:100000000C94230F0C94540F0C94540F0C94540F15
:100010000C94540F0C94540F0C94540F0C94540FD4
:100020000C94540F0C94821B0C94821B0C94821B16
:100030000C94221D0C94540F0C94540F0C94540FD8
:100040000C94540F0C94540F0C94540F0C94540FA4
:100050000C94540F0C94540F0C94540F0C94381BA4
:100060000C94540F0C94540F0C94540F0C94540F84
:100070000C94540F0C94540F0C94540F0C94540F74
:100080000C94540F0C94540F0C94540F0C94540F64
:100090000C94540F0C94540F0C94540F0C94FE1B9E
:1000A0000C94540F0C94540F0C94540F0C94540F44
:1000B0000C94540F0C94540F0C94540F0C94540F34
:1000C0000C94540F0C94540F0C94540F0C94540F24
:1000D0000C94540F0C94540F0C94540F0C94540F14
:1000E0000C94540F0C9448230C94B6150C94911254
:1000F0000C947E250C9413100C9478250C947B0F93
:100100000C9474230C946F120C94890F0C943D1072
:100110000C948C100C9406100C94EC0F0C946A2325
:100120000C94B0250C9491250C9402100C94D31DC2
:100130000C94C5120C9421100C940A100C947E128D
:100140000C940D100C948A0F0C9436230C948D1083
:100150000C94880F0C945E230C947D150C94E32969
:100160000C94FE0F0C9498120C9401110C941D1019
:100170000C94A1220C944B150C94AD250C942F10CB
:100180000C942B100C9499130C94AA250C943910F0
:100190000C9425100C94E9100C94AD220C9474105E
:1001A0000C9433100C9417100C94E70F0C9440230C
:1001B0000C94A4250C94B715AED580A83FD300406D
:1001C0008D142002A1C8DA12817FD9F1DB40A4A6E8
:1001D000AF54006D416800062061032201020A0647
:1001E00004120C02022006040202021E3B31201BF4
:1001F000101A693EB0233A7B7C7D40010101010168
:100200000202020202020202020155AA00030C0FBE
:1002100030333C3FC0C3CCCFF0F3FCFF00000A0BEF
:1002200002090C0D0E080703040100000000000085
:1002300000000000000000000000000000000000BE
:10024000000000000000000012111000000000007B
:10025000000000000000000000000000000000009E
:100260000000646973706C617921004E6F206461D5
:10027000746120746F00636F6E6E656374656421D2
:1002800000425553206E6F74000000804020010032
:10029000000000000000000000000000000000005E
:1002A000000000000000000000000000000000004E
:1002B000000000000000000000000000000000003E
:1002C000000000000000000000000000000000002E
:1002D000000000000000000000000000000000001E
:1002E000000000000000000000000000000000000E
:1002F00000000000000000000000000000000000FE
:1003000000000000000000000000000000000000ED
:1003100000000000000000000000000000000000DD
:1003200000000000000000000000000000000000CD
:10033000000000000000000000000000000000FEBF
:10034000FEFEFEFEFEFEFEFEFEFEFEFEFEFEFEFECD
:10035000FEFEFEFEFEFEFEFEFEFEFEFEFEFEFE00BB
:10036000000000000000000000000000000000008D
:10037000000000000000000000000000000000007D
:10038000000000000000000000000000000000006D
:10039000000000000000000000000000000000005D
:1003A000000000000000000000000000000000004D
:1003B000000000000000000000000000000000FF3E
:1003C000FFFFFFFFFF07030303C3C3434343C3838D
:1003D00007070F1FFF07030307FFFFFFFFFFFF00D4
:1003E000000000000000000000000000000000000D
:1003F00000000000000000000000000000000000FD
:1004000000000000000000000000000000000000EC
:1004100000000000000000000000000000000000DC
:1004200000000000000000000000000000000000CC
:10043000000000000000000000000000000000FFBD
:10044000FFFFFFFFFF80000000FFFF000000FFFF35
:1004500000000080FF80000000FFFFFFFFFFFF00A3
:10046000000000000000000000000000000000008C
:10047000000000000000000000000000000000007C
:10048000000000000000000000000000000000006C
:10049000000000000000000000000000000000005C
:1004A000000000000000000000000000000000004C
:1004B000000000000000000000000000000000FF3D
:1004C000FFFFFFFFFFFFFFFFFFFFFFFFFFFFFFFF3C
:1004D000FFFFFFFFFFFFFFFFFFFFFFFFFFFFFF002B
:1004E000000000000000000000000000000000000C
:1004F00000000000000000000000000000000000FC
:1005000000000000000000000000000000000000EB
:1005100000000000000000000000000000000000DB
:1005200000000000000000000000000000000000CB
:1005300000000000000000000000000000000001BA
:10054000010101010101010101010101010101019B
:10055000010101010101010101010101010101008C
:10056000000000000000000000000000000000008B
:10057000000000000000000000000000000000007B
:10058000000000000000000000000000000000006B
:10059000000000000000000000000000000000005B
:1005A0000000000000000000000000000000000447
:1005B0001C3C70E0E0F0781C0C04000000FCFC0027
:1005C0000000088C8CCCCCCCCCCCFCF8000000F02B
:1005D000F81C0C0404040C1CF8F0C00000FCFC0C1B
:1005E0000C0C0C0CFCF81C0C0C0C0CFCF8F00000B7
:1005F000FCFCFC0000000000000000000000000007
:1006000000000000000000000000000000000000EA
:1006100000000000000000000000000000000000DA
:1006200000000000000000000000000000000010BA
:10063000181E070303070E1C18100000001F1F00E0
:1006400000000F1F1930303030301F1F000000072E
:100650000F1C18303030181C1F0F0100001F1F0026
:10066000000000001F1F00000000001F1F1F0000EF
:100670001F1F1F000000000000000000000000001D
:10068000000000000000000000000000000000B8B2
:1006900001198040006B6D2F680043005600410037
:1006A00000001C32300C0080E0F0F8FCFCFEFEFF85
:1006B000FFFF7F7FFFFFFFFEFEFEFCFCF8F0C000A7
:1006C000000080FFFFFFFFFFFFFFFFFFFFFF0000B5
:1006D000FFFFFFFFFFFFFFFFFFFFFFFF8000FFFFA8
:1006E000FFFFFFFFFFFFFFFFFFFF0000FFFFFFFF18
:1006F000FFFFFFFFFFFFFFFFFF00FFFFFFFFFFFF09
:10070000FFFFFFFFFFFF0000FFFFFFFFFFFFFFFFF7
:10071000FFFFFFFFFF000FFFFFFFFFFFFFFFFFFFD8
:10072000FFFF0000FFFFFFFFFFFFFFFFFFFFFFFFD7
:10073000030000030F1F3F7FFFFFFFFFFFFFFCFCD5
:10074000FFFFFFFFFFFF7F7F3F1F0F030000000041
:100750000000000000000001010101010101010190
:10076000000000000000000000000000008080C0C9
:10077000C0C0E0E0F0F0F8FCFEFFFFFFFFFFFFFF6E
:10078000FF00000000000000001F1F1F1F1F3F3F51
:100790007FFFFFFFFFFFFFFFFFFFFFFFFF000000E6
:1007A00000000000000000000000000000FFFFFF4C
:1007B000FFFFFFFFFFFFFFFFFF0000000000000042
:1007C000000000000000000000FFFFFFFFFFFFFF30
:1007D000FFFFFFFFFF00000000000000000000001E
:1007E0000000000000FFFFFFFFFFFFFFFFFFFFFF14
:1007F000FF000000000000000000000000000000FA
:1008000000FFFFFFFFFFFFFFFFFFFFFFFF000000F4
:1008100000000000000000000000000000010101D5
:1008200001010101010101010100000000000000BF
:10083000C0F0F8FCFEFEFEFFFF7F7FFFFFFFFFFE24
:10084000FEFEFCF8F8E0C000000000FFFFFFFFFF25
:10085000FFFFFFFF01000080FFFFFFFFFFFFFFFF23
:10086000FFFFFFFE00000003030303030303030372
:1008700080E0FCFFFFFFFFFFFFFFFFFFFFFF3F03E5
:10088000000000000000000000C0F0FEFFFFFFFFBE
:10089000FFFFFFFFFFFF7F1F0300000000000000BD
:1008A00000C0F0FCFFFFFFFFFFFFFFFFFFFF7F1F08
:1008B0000701000000000000000000FCFFFFFFFF38
:1008C000FFFFFFFFFFFFFFFFFFFDFCFCFCFCFCFC4C
:1008D000FCFCFC000000000101010101010101011B
:1008E00001010101010101010101010101010100F9
:1008F0000000C0F0F8FCFEFEFFFFFFFFFF7F7FFF60
:10090000FFFFFFFFFEFEFEFCF8F0E0000000FFFF2F
:10091000FFFFFFFFFFFFFFFF00000000FFFFFFFFE3
:10092000FFFFFFFFFFFFFFFF0000000000000000CF
:100930000000F8F8F8F8FCFEFFFFFFFFFFFFFFFFE5
:10094000DFCF87010000E0E0E0E0E0E0E0E0E3E3AB
:10095000030307071FFFFFFFFFFFFFFFFFFFFFFF6F
:10096000F800FFFFFFFFFFFFFFFFFFFF0000000099
:1009700000FFFFFFFFFFFFFFFFFFFFFFFF00010F73
:100980001F3F7F7FFFFFFFFFFEFCFCFCFFFFFFFF21
:10099000FFFFFF7F7F3F1F070000000000000000F7
:1009A000000001010101010101010101000000003D
:1009B0000000000000000000000000000000C0F87F
:1009C000FFFFFFFFFFFFFFFFFFFFFFFFFFFFFFFF37
:1009D0000000000000000080F0FEFFFFFFFFFF3F6F
:1009E000FFFFFFFFFFFFFFFFFFFFFFFF0000000013
:1009F00000E0FCFFFFFFFFFFFF1F0100FFFFFFFF05
:100A0000FFFFFFFFFFFFFFFF0000C0F8FFFFFFFF3A
:100A1000FFFFFF0F00000000FFFFFFFFFFFFFFFFD2
:100A2000FFFFFFFF0000FFFFFFFFFFFFFFFFFFFFD4
:100A3000FFFFFFFFFFFFFFFFFFFFFFFFFFFFFFFFC6
:100A4000FF000000000000000000000000000000A7
:100A5000FFFFFFFFFFFFFFFFFFFFFFFF00000000A2
:100A60000000000000000000000000000101010182
:100A700001010101010101010000FFFFFFFFFFFF74
:100A8000FFFFFFFFFF7F7F7F7F7F7F7F7F7F7F7FF6
:100A90007F7F7F7F0000FFFFFFFFFFFFFFFFFFFF64
:100AA000FF80C0E0F0F0F0F0F0F0F0E0E0C0800097
:100AB00000007F7F7F7F7F7F7F7F7F7F7F7F0F072C
:100AC0000FFFFFFFFFFFFFFFFFFFFFFFF800C0C0AA
:100AD000C0C0C0C0C0C0C0C0C0C0000000FFFFFF99
:100AE000FFFFFFFFFFFFFFFFFF00FFFFFFFFFFFF15
:100AF000FFFFFFFFFFFF000000FFFFFFFFFFFFFF03
:100B0000FFFFFFFFFF0000070F3F3F7FFFFFFFFFDB
:100B1000FFFFFEFCFEFFFFFFFFFFFF7F7F3F1F0782
:100B200001000000000000000000000101010101BF
:100B3000010101010100000000000000000000C0F0
:100B4000E0F8FCFCFEFEFEFFFFFFFF7FFFFFFFFF64
:100B5000FEFEFEFCFCF8F0C00000FFFFFFFFFFFF01
:100B6000FFFFFFFFFFFF0000001F1F1F1F1F1F1FB2
:100B70001F1F1F1F1F00FFFFFFFFFFFFFFFFFFFFE4
:100B8000FFFFF87CFEFFFFFFFFFFFFFEFEFCF8F01B
:100B9000C000FFFFFFFFFFFFFFFFFFFFFFFF0000A1
:100BA00000FFFFFFFFFFFFFFFFFFFFFFFF00FFFF53
:100BB000FFFFFFFFFFFFFFFFFFFF000000FFFFFF42
:100BC000FFFFFFFFFFFFFFFFFF0001071F3F7F7FCA
:100BD000FFFFFFFFFFFFFEFCFFFFFFFFFFFFFF7FA9
:100BE0007F3F1F070100000000000000000000011F
:100BF00001010101010101010000000000000000ED
:100C000000007F7F7F7F7F7F7F7F7F7F7F7F7F7FF2
:100C10007FFFFFFFFFFFFFFFFFFFFFFFFF00000061
:100C2000000000000000000000000000F8FFFFFFCF
:100C3000FFFFFFFFFFFFFFFF0F00000000000000AD
:100C4000000000000000E0FFFFFFFFFFFFFFFFFFCD
:100C5000FFFF1F0000000000000000000000000077
:100C6000C0FEFFFFFFFFFFFFFFFFFFFF7F0300004E
:100C70000000000000000000000000F8FFFFFFFF80
:100C8000FFFFFFFFFFFFFF0F00000000000000005C
:100C90000000000000E0FFFFFFFFFFFFFFFFFFFF7E
:100CA000FF1F000000000000000000000000000026
:100CB0000001010101010101010101010100000028
:100CC00000000000000080E0F0F8FCFEFEFEFFFFE8
:100CD000FFFFFF7FFFFFFFFFFFFEFEFEFCF8F0E0DF
:100CE0000000FFFFFFFFFFFFFFFFFFFFFFFF000010
:100CF00000FFFFFFFFFFFFFFFFFFFFFFFF000107F8
:100D00008FDFFFFFFFFFFFFFFFFFFCF8FCFFFFFF90
:100D1000FFFFFFFFDFCF8F070100F8FFFFFFFFFF9F
:100D2000FFFFFFFFFFFF070307FFFFFFFFFFFFFFBF
:100D3000FFFFFFFFF800FFFFFFFFFFFFFFFFFFFFC9
:100D4000FFFF000000FFFFFFFFFFFFFFFFFFFFFFB0
:100D5000FF0001071F3F7F7FFFFFFFFFFFFFFEFC3C
:100D6000FEFFFFFFFFFFFFFF7F3F1F0F00000000A0
:100D70000000000000000101010101010101010169
:100D80000100000000000000000000C0F0F8FCFCC2
:100D9000FEFEFFFFFFFFFF7FFFFFFFFFFEFEFEFCEB
:100DA000F8F8E0C00000FFFFFFFFFFFFFFFFFFFFBD
:100DB000FFFF000000FFFFFFFFFFFFFFFFFFFFFF40
:100DC000FE00FFFFFFFFFFFFFFFFFFFFFFFF000031
:100DD00000FFFFFFFFFFFFFFFFFFFFFFFF00071FF9
:100DE0003F7FFFFFFFFFFFFFFFFFFE7C3EFFFFFF98
:100DF000FFFFFFFFFFFFFFFFFF00F0F0F0F0F0F05C
:100E0000F1F1F1F1F1F1000000FFFFFFFFFFFFFF43
:100E1000FFFFFFFFFF00010F1F3F7F7FFFFFFFFF6F
:100E2000FFFFFEFCFEFFFFFFFFFFFF7F3F1F0F07DF
:100E300000000000000000000000010101010101AC
:100E4000010101010000000000000000000000009E
:100E50000000000000000000000000000000000092
:100E60000000000000000000000000000000000082
:100E70000000000000000000000000000000000072
:100E8000000000000000C0C0C00000000000000022
:100E90000000000000000000000000000000000052
:100EA0000000FFFFFFF8DC8E0600FEFEFE06FEFCE3
:100EB000FE06FEFEFC000000000000000000030330
:100EC0000300010303000303E3E003E3E300030380
:100ED000030000000000000000000000000000000F
:100EE00000C0F83F070000FFFF0606FEFC00000000
:100EF00000000000000000000000000000010100F0
:100F000000000001010000010100000000000000DD
:100F100000000000000000000000000000000000D1
:100F200000000000000000000000000000000000C1
:100F300000000000000000000000000000000000B1
:100F400000000000000000000000000000000000A1
:100F50000000000000000000000000000000000091
:100F60000000000000000000000000000000000081
:100F70000000000000000000000000000000000071
:100F80000000000000000000000000000000000061
:100F90000000000000000000000000000000000051
:100FA0000000000000000000000000000000000041
:100FB0000000000000000000000000000000000031
:100FC0000000000000000000000000000000000021
:100FD00000000000000000008040200200FCFEFE37
:100FE000FEFEFEFEFEFEFEFEFCFCF8F8F0F0F0E079
:100FF000E0C0C0808080000000000000808080C0D1
:10100000C0E0E0F0F0F0F8F8FCFCFEFEFEFEFEFEB4
:10101000FEFEFEFEFE0000000080F0F8FCFCFEFE7E
:10102000FEFEFEFEFEFCFCF8F0E00000000000000A
:101030000080E0F0F8FCFCFEFEFEFEFEFCFCF8F892
:10104000E0C0000000000000FCFCFCFCFCFCFCFC20
:10105000FCFCFCFCFCFCFCFCFCFC000000FFFFFFBB
:10106000FFFFFFFFFFFFFF0F0F1F1F1F3F3F7F7F90
:10107000FFFFFFFFFFFFFFFFFEFEFFFFFFFFFFFF82
:10108000FFFF7F7F3F3F3F1F1F0F0FFFFFFFFFFF50
:10109000FFFFFFFFFF00000000FFFFFFFFFFFFFF5C
:1010A000070307FFFFFFFFFFFFFFFF00000000C077
:1010B000FEFFFFFFFFFFFFFF070307FFFFFFFFFF2D
:1010C000FFFFFEF000000000FFFFFFFFFFFFFF0734
:1010D00007070707070707070707000000FFFFFFCD
:1010E000FFFFFFFFFFFFFF00000000000000000007
:1010F00000000101010303070707070303010101C2
:1011000000000000000000000000000F07070703B8
:101110000301010100000000001F1F1F1F1F1F1FF0
:10112000000080FFFFFFFFFFFFFFFF00000000FF48
:10113000FFFFFFFFFFFFFFFF000080C3C3C38383E8
:1011400003030303000000FEFFFFFFFFFFFFFFE0BC
:10115000F0F8F8FCFCFCF8F8F0E0000000FFFFFFFE
:10116000FFFFFFFFFFFFFF00000000000000000086
:10117000000000000000000000000000000000006F
:101180000000000000000000000000F0F0F0F8F89F
:10119000FCFCFEFEFE000000000000000000FEFE61
:1011A000FEFEFFFFFFFFFFFFEFC78100000000FF13
:1011B000FFFFFFFFFFFFFFFFFC7FFFFFFFFFFFFFC2
:1011C000FFFEF880000000FFFFFFFFFFFFFFFFFFB3
:1011D0000F073FFFFFFFFFFFFFFFFF00001F7F7FA5
:1011E0003F3F1F1F0F0F0F00000000000000000016
:1011F00000000000000000000000000000000000EF
:101200000000000000000000000000FFFFFFFFFFE3
:10121000FFFFFFFF3F00000000C0C0C0C0C0C3C34D
:1012200003070F3FFFFFFFFFFFFFFFFC000000FF72
:10123000FFFFFFFFFFFFFFFF000000FFFFFFFFFFBB
:10124000FFFFFFFF00000080808080808080808022
:10125000000000FFFFFFFFFFFFFFFF000000000096
:1012600080C0C0E0E0E0F0F0F8E0C0000000000066
:10127000000000000000000000000000000000006E
:1012800000000000000000C0E0F8FFFFFFFFFFFFCC
:10129000FFFF3F070000000000FFFFFFFFFFFFFF11
:1012A00000000000FFFFFFFFFFFFFFFF000000FF47
:1012B000FFFFFFFFFFFFFFFF000000FFFFFFFFFF3B
:1012C000FFFFFFFF000000FFFFFFFFFFFFFFFFFF2B
:1012D000000000FFFFFFFFFFFFFFFF000000000016
:1012E00000030F1F3F7FFFFFFFFFFFFFFEFCFCF827
:1012F000F0F0E0E0E0E0C0C0C0C0C0C0C0E0E0E0AE
:10130000F0F0F8FCFCFEFFFFFFFFFFFF7F3F1F0F29
:10131000030100000000000000FFFFFFFFFFFFFFD0
:10132000E0C0C0E0FFFFFFFFFFFFFF1F000000075E
:101330007FFFFFFFFFFFFFFFE0C0E0FFFFFFFFFFBA
:10134000FFFFFF0700000007FFFFFFFFFFFFFFFF9A
:10135000E0C0F0FFFFFFFFFFFFFF7F000000000085
:1013600000000000000000010307070F0F1F1F3FD0
:101370003F3F7F7F7F7F7F7F7F7F7F7F7F7F7F7FFD
:101380003F3F3F1F1F1F0F07070301000000000022
:1013900000000000000000000000030F1F3F3F7F1F
:1013A0007F7F7F7F7F7F3F1F1F07010000000000BE
:1013B00000030F1F3F3F7F7F7F7F7F7F7F3F3F1F68
:1013C0000F0300000000000000030F1F3F3F7F7F5E
:1013D0007F7F7F7F7F3F3F1F0F03000000000000E3
:1013E00000000080E0E0F0F8F8FCFCFEFEFEFEFEEF
:1013F000FEFEFEFEFEFEFEFEFEFEFEFEFEFEFEFE0D
:10140000FEFEFEFEFEFEFEFEFEFEFEFEFEFEFEFEFC
:10141000FEFEFEFEFEFEFEFEFEFEFEFEFEFEFEFEEC
:10142000FEFEFEFEFEFEFEFEFEFEFEFCFCFCF8F8EE
:10143000F0E0C0800000000000000000000000009C
:101440000000000000000000000000F8F8F8F8F8C4
:10145000F8F8F8F8F8F8F8000000000000000000C4
:10146000F0FCFFFFFFFFFFFFFFFF7F3F1F8FC7E77E
:10147000E7E3E3E3E3E3E303030303030303030318
:10148000030303030303030303030303030303032C
:10149000030303030303030303030303030303031C
:1014A00003030303030707070F0F1F3FFFFFFFFFA0
:1014B000FFFFFFFFFFFCE0E0E0E0E0E0E0C0C08015
:1014C0008000000000000000000000FFFFFFFFFFA1
:1014D000FFFFFFFFFFFFFF00000000000000000013
:1014E000FFFFFFFFFFFFFFFFFF030000FEFFFFFF07
:1014F000FFFFFFFFFFFFFF000000000000000000F3
:1015000000000000000000000000000000000000DB
:1015100000000000000000000000000000000000CB
:10152000000000000000000000000000007F7F7F3E
:101530007F7F7F7F7F7F7F7F7FFFFFFFFFFFFFFF3B
:10154000FFFFFC00000000000000003FFFFFFFFF66
:10155000FFFFFFFFFFFF3F00000000000000000052
:10156000FFFFFFFFFFFFFFFFFF000000FFFFFFFF88
:10157000FFFFFFFFFFFFFF00000000000000000072
:10158000000000000000000000000000000000005B
:10159000000000000000000000000000000000004B
:1015A000000000000000000000000000000000003B
:1015B00000000000000000000000FFFFFFFFFFFF31
:1015C000FFFFFF000000000000000000FFFFFFFF22
:1015D000FFFFFFFFFFFF0000000000000000000011
:1015E000FFFFFFFFFFFFFFFFFF000000FFFFFFFF08
:1015F000FFFFFFFFFFFFFF000000000000000000F2
:1016000000000000000000000000000000000000DA
:1016100000000000000000000000000000000000CA
:1016200000000000000000000000000000000000BA
:1016300000000000000000000000FFFFFFFFFFFFB0
:10164000FFFFFF000000000000000000FFFFFFFFA1
:10165000FFFFFFFFFFFF0000000000000000000090
:10166000FFFFFFFFFFFFFFFFFFC000007FFFFFFF47
:10167000FFFFFFFFFFFFFF00000000000000000071
:10168000000000000000000000000000000000005A
:10169000000000000000000000000000000000004A
:1016A00000000000000000000000000000FEFEFE40
:1016B000FEFEFEFEFEFEFEFEFEFFFFFFFFFFFFFF43
:1016C000FFFF3F000000000000000000003F3F3F20
:1016D0003F3F3F3F3F0000000000000000000000CF
:1016E0000F3FFFFFFFFFFFFFFFFFFEFCF8F1E3E707
:1016F000E7C7C7C7C7C7C7C0C0C0C0C0C0C0C0C099
:10170000C0C0C0C0C0C0C0C0C0C0C0C0C0C0C0C0D9
:10171000C0C0C0C0C0C0C0C0C0C0C0C0C0C0C0C0C9
:10172000C0C0C0C0C0E0E0E0F0F0F8FCFFFFFFFF89
:10173000FFFFFFFFFF3F0707070707070703030137
:101740000100000000000000000000F8FCFCFCFCB0
:10175000FCFCFCFCFCFCF8000000000000000000A9
:101760000000000107070F1F1F3F3F7F7F7F7F7F24
:101770007F7F7F7F7F7F7F7F7F7F7F7F7F7F7F7F79
:101780007F7F7F7F7F7F7F7F7F7F7F7F7F7F7F7F69
:101790007F7F7F7F7F7F7F7F7F7F7F7F7F7F7F7F59
:1017A0007F7F7F7F7F7F7F7F7F7F7F3F3F3F1F1FC9
:1017B0000F0703010000000000000000000000000F
:1017C00000000000000000000000000F1F1F1F1F8E
:1017D0001F1F1F1F1F1F0F0000000000506F7765A5
:1017E00072206F6E2074696D65006B6D0000000AD9
:1017F0000E201B00000000000000000000000000A0
:1018000000000000000000000000000000000000D8
:1018100000000000000000000000000000000000C8
:1018200000000000000000000000000000000000B8
:1018300000000000000000000000000000000000A8
:101840000000000000000000000000000000000098
:101850000000000000000000000000000000000088
:101860000000000000000000000000000000000078
:101870000000000000000000000000000000000068
:101880000000000000000000000000000000000058
:101890000000000000000000000000000000000048
:1018A0000000000000000000000000000000000038
:1018B0000000000000000000000000000000000028
:1018C0000000000000000000000000000000000018
:1018D0000000000000000000000000000000000008
:1018E00000000000000000000000000000000000F8
:1018F00000000000000000000000000000000000E8
:1019000000000000000000000000000000000000D7
:10191000000000000000000000383838000000001F
:1019200000000000000000000000000000000000B7
:10193000000000FCFEFF070303FFFEFC000F1F3F3B
:101940003030383F1F0F0000000C0C0EFFFFFF006F
:101950000000000000003F3F3F0000001C1E1F076A
:10196000C7FFFE3C000030383E3F3F333030000EB2
:101970000F6F63E3E7FFFEDC000F1F3F3830383F97
:101980001F0F0080E0F83F07FFFFFF000007070779
:1019900007073F3F3F07007F7F7F333373F3F3E356
:1019A000000E1E3E3830383F1F0F00FCFEFF6763FD
:1019B000E7EFEECC000F1F3F3830303F1F0F000025
:1019C000030303E3FFFF3F07000000383F3F0F0121
:1019D000000000BCFEFFC7C3E3FFFEBC000F1F3FBB
:1019E0003130383F1F0F00FCFEFF8783C3FFFEFC32
:1019F000000C1D3D3131383F1F0F0000000000700A
:101A00007070000000000000001C1C1C000000544E
:101A10006F74616C2064697374616E6365000000AB
:101A200005072066000000000000005F00000007BE
:101A3000000700147F147F14242A7F2A122313081E
:101A4000646236495522500005030000001C224103
:101A5000000041221C00082A1C2A0808083E080829
:101A600000503000000808080808006060000020EE
:101A7000100804023E4141413E00427F4000426165
:101A80005149462141454B311814127F10274545D5
:101A900045393C4A494930017109050336494949EC
:101AA00036064949291E0036360000005636000029
:101AB00000081422411414141414412214080002C2
:101AC00001510906324979413E7E1111117E7F494B
:101AD0004949363E414141227F4141221C7F4949CB
:101AE00049417F090901013E414151327F080808FF
:101AF0007F00417F41002040413F017F0814224187
:101B00007F404040407F0204027F7F0408107F3EF8
:101B10004141413E7F090909063E4151215E7F094D
:101B2000192946464949493101017F01013F404099
:101B3000403F1F2040201F7F2018207F631408147F
:101B4000630304780403615149454300007F414128
:101B5000020408102041417F0000040201020440F9
:101B600040404040000102040020545454787F4813
:101B70004444383844444420384444487F3854541A
:101B80005418087E090102081454543C7F080404C8
:101B90007800447D40002040443D00007F102844F0
:101BA00000417F40007C041804787C0804047838E5
:101BB000444444387C14141408081414187C7C0819
:101BC0000404084854545420043F4440203C4040FE
:101BD000207C1C2040201C3C4030403C44281028E5
:101BE000440C5050503C4464544C4400083641006E
:101BF00000007F0000004136080008082A1C080881
:101C00001C2A080800060909060000007F415D5DE6
:101C10005D5D4141414141417F000000007C7C7C91
:101C20007C7C5361766520616E6420657869740000
:101C3000436F6E666967757265204D3336350042B5
:101C400061747465727920696E666F0042696720FD
:101C5000626174742E207761726E2E3A20004261A8
:101C60007474657279207761726E696E673A2000CC
:101C7000202053504545440020202054454D50001D
:101C8000564F4C544147450043555252454E54001F
:101C90004269672073706565646F2E3A200042695F
:101CA000672073706565646F6D657465723A2000B6
:101CB0003E3E3E204272616B6520746F20657869FC
:101CC00074203C3C3C00457869740020382C352257
:101CD00000202031302200576865656C2053697AF6
:101CE000653A202020202000557064617465204BE7
:101CF0004552530020205745414B005354524F4EFC
:101D000047004D454449554D004B4552533A20201C
:101D100020202020202000557064617465205461CB
:101D2000696C6967687400204E4F00594553005430
:101D300061696C69676874206F6E3A20202020000A
:101D400055706461746520437275697365004F4610
:101D50004600204F4E0043727569736520636F6EB5
:101D600074726F6C3A2000000020002300260029C6
:101D7000002C002F003200000100000301060109C1
:101D80000100002100240027002A002D003000332C
:101D90000001010000040107010A010000220025E2
:101DA0000028002B002E0031003400020100000545
:101DB0000108010B010505050507050808080802CB
:101DC0000202020A0A0808040404040101010101D4
:101DD0000101010303030303030303040707070CC3
:101DE0000C0C0C0C0C0C0C02020202060606060679
:101DF0000606060B0B0B0B0B0B0B0B010210202026
:101E0000080810204010204080020102010804024E
:101E100001010204081020408080402010080402C4
:101E2000018004020180402010080402010804021D
:101E30000101020408102040800102040810204023
:101E40008000D31DE32911241FBECFEFD1E2DEBFF6
:101E5000CDBF00E00CBF12E0A0E0B2E0ECEEF8E590
:101E600000E00BBF02C007900D92A635B107D9F76D
:101E700024E0A6E5B2E001C01D92AB38B207E1F75D
:101E80001FE0C2E2DFE000E006C021970109802FD9
:101E9000FE010E94342CC132D10780E00807A9F767
:101EA0000E94B11E0C94642C0C94000000000000F1
:101EB00000009093750480937404FC012491319682
:101EC000E491F22F319719F410927004089581E093
:101ED000809370040895EAE7F4E082E09191DF01D5
:101EE0001197913031F48C9394E0E938F907B1F708
:101EF00008951C92F9CF8091D003833028F010927E
:101F0000D003F0E0E0E019948F5F8093D003089550
:101F100008950895AF92BF92CF92DF92EF92FF9211
:101F20000F931F93CF93DF936C017B018B01040F01
:101F3000151FEB015E01AE18BF08C017D10759F09D
:101F40006991D601ED91FC910190F081E02DC601DF
:101F50001995892B79F7C501DF91CF911F910F91C9
:101F6000FF90EF90DF90CF90BF90AF900895282F13
:101F700030E0F901E45EFD4F9491F901E550F24E35
:101F800044912B54324EF9012491222309F435C097
:101F9000992311F191509231F8F4E92FF0E088275C
:101FA000EB52F04F8F4F0C94342C06100A10E70FB1
:101FB000FE0F0210EC0F0D10131017101D10211042
:101FC00025102B102F10EC0F331039103D1080917D
:101FD00080008F7780938000E22FF0E0EE0FFF1FEC
:101FE000E556F24EA591B4918FB7F894EC9161113A
:101FF00048C040954E234C938FBF08958091800038
:102000008F7DE8CF80918000877FE4CF84B58F7784
:1020100084BDE2CF84B58F7DFBCF8091B0008F77F8
:102020008093B000D9CF8091B0008F7DF9CF80919F
:1020300090008F7780939000CFCF809190008F7D1C
:10204000F9CF80919000877FF5CF8091A0008F77A6
:102050008093A000C1CF8091A0008F7DF9CF8091A7
:10206000A000877FF5CF809120018F77809320019A
:10207000B3CF809120018F7DF9CF80912001877FA0
:10208000F5CF4E2BB8CF3FB7F89480917F03909156
:102090008003A0918103B091820326B5A89B05C05F
:1020A0002F3F19F00196A11DB11D3FBFBA2FA92FD7
:1020B000982F8827BC01CD01620F711D811D911DD4
:1020C00042E0660F771F881F991F4A95D1F7089540
:1020D0002FB7F89460917B0370917C0380917D030E
:1020E00090917E032FBF0895209185033091860340
:1020F0002817390771F4909183038091840398170E
:1021000041F0E0918303F0E0E65CFC4F808190E0D9
:1021100008958FEF9FEF08950895EF92FF920F9328
:102120001F93CF93DF93DC015C96ED90FC905D975D
:10213000E114F10479F481E090E013969C938E937E
:10214000129790E080E0DF91CF911F910F91FF9067
:10215000EF9008955196ED91FC91529750968C9185
:102160005097982F90950FB75E962C915E97122FEF
:10217000127021FD6095F8942081112319F1282B0C
:102180002083E7012197F1F728E0462F50E03081C6
:1021900060FF1AC0382B3083E7012197F1F7BA01AD
:1021A00075956795215089F7112381F080818923E6
:1021B00080830FBF5C968D919C910197F1F781E030
:1021C00090E0C1CF2923DCCF3923E5CF9081892B43
:1021D000EFCF20918503309186032817390771F4DA
:1021E000809184032091830390E0805C9F4F821B49
:1021F000910960E470E00E94FE2B089590E080E079
:102200000895209185033091860328173907B9F482
:102210009091830380918403981789F0E091830360
:10222000F0E0E65CFC4F80812091830330E02F5F7B
:102230003F4F2F7333272093830390E008958FEF50
:102240009FEF089520911703260F3327331F213264
:102250003105ECF42091F803FC0190E080E024309B
:1022600069F082E00895A09117032191AC014950D3
:102270005D4FA40FB52FB11D2C930196861798F3CF
:1022800080911703680F6093170380E0089581E041
:1022900008951092F80381E08093F7031092D2031F
:1022A00061E084E10E94B70F61E085E10E94B70F11
:1022B000E9EBF0E080818E7F808380818D7F808359
:1022C00088E48093B80085E48093BC000895CF93A0
:1022D000DF9391E09093F6028823B9F0C091B800A3
:1022E000D091BA008091BC008A7B8093BC0060E0F2
:1022F00084E10E94B70F60E085E10E94B70F0E9461
:102300004911D093BA00C093B800DF91CF910895DE
:10231000CF92DF92EF92FF920F931F93CF93DF93B1
:10232000D091210481E0D13208F09CC0C0912004FA
:102330000E9443106B017C018091F80381116CC0F5
:1023400082E08093F80381E08093F7038FEF80931E
:10235000F6031092F503D093F403A0E0B4E0E4EDAB
:10236000F3E080E0D8138DC01092D3038091D303A3
:10237000CC0FC82BC093D3038091D203813009F0D6
:1023800084C01092D2030E9443106B017C018091A3
:10239000D3038093BB008091FA039091FB03A0913B
:1023A000FC03B091FD03892B8A2B8B2BA1F00E949B
:1023B00043100091FA031091FB032091FC0330912C
:1023C000FD036C197D098E099F0906171707280759
:1023D000390708F442C08091BC0083FDD8CF85EC5A
:1023E0008093BC000E9443106B017C018091F80334
:1023F000823009F44CC08091F6038F3F09F469C024
:102400008091F603803209F466C08091F603803330
:1024100009F463C084E026C08091FA039091FB0325
:10242000A091FC03B091FD03892B8A2B8B2B09F41F
:1024300083CF0E9443100091FA031091FB03209177
:10244000FC033091FD036C197D098E099F09061765
:1024500017072807390708F06FCF8091F9030E940A
:10246000671185E01092FF03109221041092FE0381
:10247000DF91CF911F910F91FF90EF90DF90CF9060
:1024800008959D9191938F5F6DCF85EEA9CF809137
:10249000FA039091FB03A091FC03B091FD03892BFB
:1024A0008A2B8B2B09F4A2CF0E9443100091FA03D0
:1024B0001091FB032091FC033091FD036C197D0901
:1024C0008E099F09061717072807390708F08ECFCE
:1024D000C4CF80E0C7CF82E0C5CF83E0C3CFE09117
:1024E0008C0380918B03E81730F4F0E0EA52FD4F43
:1024F000808190E008958FEF9FEF089590918C0375
:1025000080918B032FEF3FEF981748F4E92FF0E00D
:10251000EA52FD4F208130E09F5F90938C03C90108
:10252000089580918B0390918C03891B990B0895DA
:10253000CF92DF92EF92FF920F931F93CF93DF938F
:102540007C01CB018A012091FE03222389F0EB015B
:102550006B01C40ED51ECC15DD0569F06991D7015C
:10256000ED91FC910190F081E02DC7011995F3CF19
:10257000642F0E942211C801DF91CF911F910F910A
:10258000FF90EF90DF90CF900895CF93DF931F924D
:10259000CDB7DEB769832091FE032223F9F02091A5
:1025A0002104203258F021E030E0FC013383228303
:1025B00090E080E00F90DF91CF9108958091FF032C
:1025C000E82FF0E0E050FC4F998190838F5F80937B
:1025D000FF038093210481E090E0ECCF61E0CE0125
:1025E00001960E942211F7CFCF93DF93EC019C81DB
:1025F0008E81981768F48F856827E881F9810084B7
:10260000F185E02D42E0CE0119958C818F5F8C839E
:10261000DF91CF910895DC01ED91FC910084F1856B
:10262000E02D40E019940F931F93CF938C01FC0190
:102630006483C085C60F6C2F6F700E940B136C2FC4
:1026400062956F706061C801CF911F910F910C94DA
:102650000B13FC012781269526952695621738F4E1
:1026600065832385620F6770606B0C940B1308956C
:102670001F93CF93DF93EC01142F8E81681718F40A
:10268000CE010E941313612FCE01DF91CF911F91D4
:102690000C942913CF92DF92EF92FF920F931F9326
:1026A000CF93DF93EC01F62EC42ED22E8F81869528
:1026B00086958695081710F00FEF080F1D2D01174E
:1026C00080F0412F6F2DCE010E943813EF2CCE14D5
:1026D00030F06F85CE010E94F412E394F8CF1F5FB3
:1026E000EECF4D2D6F2DCE01DF91CF911F910F9128
:1026F000FF90EF90DF90CF900C9438130F93CF930F
:10270000DF93C7E6D4E01B861A8660E4CE010E9400
:102710000B130F8106950695069501504E81415089
:1027200020E060E0CE010E944A13DF91CF910F912B
:1027300008952F923F924F925F926F927F928F9265
:102740009F92AF92BF92CF92DF92EF92FF920F9340
:102750001F93CF93DF9300D01F921F92CDB7DEB7A8
:10276000DC011D962D913C912115310509F470C1B4
:102770009D838C83F9013296649031964491E42EC6
:10278000F12CB7E0EB0EF11C53E0F594E7945A9569
:10279000E1F7E982319654913196E491651748F05A
:1027A0008E2F90E0FC01E50FF11D6E171F060CF453
:1027B00091C06D3029F5EC81FD81868181111AC0AF
:1027C00081E090E00F900F900F900F900F90DF91AD
:1027D000CF911F910F91FF90EF90DF90CF90BF901E
:1027E000AF909F908F907F906F905F904F903F90B1
:1027F0002F90089560E08C819D810E941313E0CF9B
:102800006A3009F025C1AC81BD8116968C9116976E
:10281000882321F060E0CD010E941313EC81FD813B
:1028200000890E9DE02C112465816E0D848588231E
:1028300049F027812695269526958E2D821B860F99
:1028400018162CF08C819D810E942913B9CFAC8180
:10285000BD811B969C911B97890F87701B968C934B
:102860001B972E1915962C9315971D96ED91FC919B
:10287000309771F13396E491F0E0379633E0F595B7
:10288000E7953A95E1F70E9F002D1124EFEFE20F47
:102890000E0FEC81FD81468141506481CF010E9481
:1028A0004A13AC81BD811C968C911C97813009F034
:1028B00087CF1B966C911B97660F660F660F6F7321
:1028C0001A966C931A976064CD010E940B1378CF0F
:1028D00000E0DCCF89010A5F1F4F651BEC81FD81A1
:1028E00071855089759F502D11245B83F901549196
:1028F0002F5F3F4FF9012491352F2230310508F029
:1029000069C06E9CC0016F9C900D1124689FF001FE
:10291000699FF00D11240E0F1F1F512CAC81BD813A
:102920001496BC91BA83EC81FD812580862C912C74
:10293000AA24A394B12C312CF9813F1608F086C04B
:10294000412CAC81BD8150968C91481608F077C01F
:10295000311002C0442041F0EC81FD8145814F5F80
:102960006A81CF010E943813D12CC12CC61408F003
:1029700059C0F801EC0DFD1D7490552061F0EA146A
:10298000FB0449F4E72DF0E0052C02C0F595E7952E
:102990000A94E2F77E2EAC81BD8150968C918230F4
:1029A00081F4442009F43AC072948FE07822E72D34
:1029B000F0E0E45FFD4F7490672D8C819D810E9453
:1029C000F412672D8C819D810E94F412EFEFCE1AD4
:1029D000DE0ACCCF477028E0522E541A411101C0B4
:1029E000512CF801612C30E020E0661631F0449162
:1029F000240F311D63943196F8CF600E712E711C37
:102A0000F3016490E29EF001E39EF00DF29EF00D62
:102A100011248E0F9F1F080F191F80CFB72DBF7075
:102A20007B2EC5CFD12CFB81DF1639F060E08C8185
:102A30009D810E94F412D394F6CF439482CF3394B5
:102A4000080D191D8FEFA81AB80A76CF622DFACE9D
:102A500090E080E0B7CE682F87E694E00C9499135D
:102A60000F931F93CF93DF938C01D0E0C0E0F80168
:102A7000EC0FFD1F6491662341F087E694E00E940D
:102A80009913892B11F02196F2CFCE01DF91CF91CE
:102A90001F910F9108950895F89484B7877F84BF9C
:102AA000E0E6F0E088E18083108278940895F8945D
:102AB00084B7877F84BFE0E6F0E088E1808380917F
:102AC0008F038083789408959091600080938F03A2
:102AD00091110C9457150C944C15CF93C82F862F39
:102AE000909157029C1302C0662329F00E947E1326
:102AF000C093570281E0CF9108950F931F93CF9316
:102B0000DF93EC01062F142F8A89813120F488236A
:102B100029F0411103C00E9488111A8A8A89811103
:102B200012C0898991E09093FE0380932004109253
:102B3000FF031092210460E4111101C060E082E201
:102B400094E00E94C512602F82E294E00E94C512B8
:102B5000123041F48A898F5F8A8BDF91CF911F9168
:102B60000F9108950E9488111A8AF7CF089590E076
:102B700080E00895FC0101900020E9F73197AF0152
:102B8000481B590BBC0187E694E00C948A0F8F9286
:102B90009F92AF92BF920F931F93CF93DF93CDB7C6
:102BA000DEB7A1970FB6F894DEBF0FBECDBF19A256
:102BB000423008F44AE08E010F5D1F4F842E912CA5
:102BC000B12CA12CA50194010E94122CE62FB90171
:102BD000CA01EA30F4F4E05DD801EE938D01232BB5
:102BE000242B252B79F790E080E0109719F0CD0188
:102BF0000E94BA15A1960FB6F894DEBF0FBECDBFE6
:102C0000DF91CF911F910F91BF90AF909F908F90C8
:102C10000895E95CE1CFCF92DF92EF92FF92CF93DC
:102C2000DF936C01990FEE08FF08F7FE17C08DE2E5
:102C30000E942B15EC0166277727CB016C197D09C3
:102C40008E099F094AE00E94C7158C0F9D1FDF91D6
:102C5000CF91FF90EF90DF90CF9008954AE0C701A9
:102C6000B601DF91CF91FF90EF90DF90CF900C9461
:102C7000C7152F923F924F925F926F927F928F92E1
:102C80009F92AF92BF92CF92DF92EF92FF920F93FB
:102C90001F93CF93DF9300D01F92CDB7DEB79C83F5
:102CA0008B836A8381E0809377048EE19AE10E94AE
:102CB000590F47E060E087E694E00E943813809166
:102CC0000302882309F47AC081E80E942B1525E0CD
:102CD000298310E000E088EE482E83E0582E612C16
:102CE000712C8B819C816C01990FEE08FF081801F3
:102CF0009FEF291A390A47E0698187E694E00E942C
:102D000038132A81211199C0C701B6010E94C82A2F
:102D10002CE53FE842E45EE30E94592B4B015C0145
:102D2000B801110F880B990B0E94C82A9B01AC01B6
:102D3000C501B4010E94542B18160CF48BC083E813
:102D40000E942B1589818B5F89838101843679F6F6
:102D500047E063E687E694E00E94381384E80E9427
:102D60002B158B819C81843691055CF480E20E9456
:102D70002B152B813C812A3031051CF480E20E9406
:102D80002B158B819C810E940B1685E20F900F9072
:102D90000F900F90DF91CF911F910F91FF90EF90C7
:102DA000DF90CF90BF90AF909F908F907F906F906B
:102DB0005F904F903F902F900C942B1580910402C0
:102DC000882309F481CF2B813C81821713060CF4F0
:102DD0007BCF0E94681028EE33E040E050E00E9474
:102DE000122C643F71408105910508F46DCF198262
:102DF00047E0698187E694E00E94381380E20E94F0
:102E00002B1539813B5F39833A3A91F70F900F9038
:102E10000F900F90DF91CF911F910F91FF90EF9046
:102E2000DF90CF90BF90AF909F908F907F906F90EA
:102E30005F904F903F902F9008950E946810A301DB
:102E400092010E94122C643F71408105910508F0A7
:102E50005BCF75CF82E874CFBC0190E080E04AE0A0
:102E60000C94C7150C94BA159F92AF92BF92CF9253
:102E7000DF92EF92FF920F931F93CF93DF9360E067
:102E800086E00E946D1540E060E087E694E00E94D5
:102E9000381381E0809377048091AC039091AD0367
:102EA00097FF03C091958195910964E670E00E94B7
:102EB000FE2B8B01EC016A3071051CF480E20E944C
:102EC0002B15C8010E940B168EE20E942B15CA30EA
:102ED000D1051CF480E30E942B15CE010E940B1635
:102EE0008CE996E00E94301580E20E942B158091BB
:102EF000AA039091AB0397FF03C091958195910927
:102F000064E670E00E94FE2B8B01EC016A307105D3
:102F10001CF480E20E942B15C8010E940B168EE261
:102F20000E942B15CA30D1051CF480E30E942B159A
:102F3000CE010E940B168EE996E00E94301580E2C9
:102F40000E942B158091A6039091A703883E934081
:102F500018F480E20E942B158091A6039091A7039C
:102F60008436910518F480E20E942B158091A60307
:102F70009091A7030A9718F480E20E942B15809184
:102F8000A6039091A7030E942C1783ED91E00E9465
:102F90003015C091AE03C451DD0B41E069E087E616
:102FA00094E00E94381381ED91E00E9430158DE38A
:102FB00092E00E943217CA30D1051CF480E20E94D0
:102FC0002B15CE010E940B1680E80E942B1581E480
:102FD00092E00E94321741E06AE487E694E00E94A2
:102FE000381381ED91E00E94301583E492E00E9455
:102FF0003217C091AF03C451DD0BCA30D1051CF4A8
:1030000080E20E942B15CE010E940B1680E80E94E0
:103010002B1581E492E00E943217C12CD12C76014D
:10302000C8E5D2E008EE13E082E0982E9C0C492D12
:1030300065E087E694E00E9438134AE0C701B601D4
:103040000E94C7158EE392E00E9432178881998111
:10305000B8010E94FE2BCB010E940B168EE20E944B
:103060002B1588819981B8010E94FE2B5C0184E6B2
:10307000A816B10454F480E30E942B152AE0A2168E
:10308000B1041CF480E30E942B15C5010E940B16AD
:103090008CE996E00E943015492D66E487E694E0BD
:1030A0000E943813C60105960E940B168EE392E02B
:1030B0000E9432178A859B85B8010E94FE2BCB01A6
:1030C0000E940B168EE20E942B158A859B85B80103
:1030D0000E94FE2B5C0184E6A816B10454F480E340
:1030E0000E942B152AE0A216B1041CF480E30E9472
:1030F0002B15C5010E940B168CE996E00E94301535
:1031000022968FEFC81AD80AE80AF80A25E0C216F4
:10311000D104E104F10409F087CFDF91CF911F9131
:103120000F91FF90EF90DF90CF90BF90AF909F9066
:103130000895CF93DF930E943015EC0187E492E06D
:103140000E94BA158C0F9D1FDF91CF9108950E94A8
:10315000562C85ED8093BC008091FA039091FB037F
:10316000A091FC03B091FD030796A11DB11D23E0C2
:10317000B695A795979587952A95D1F72091BC008C
:1031800024FD03C01092F80308954091FA03509172
:10319000FB036091FC037091FD03452B462B472BED
:1031A00069F30097A105B10541F025E32A95F1F7F0
:1031B00000000197A109B109E1CF8091F9030C94B6
:1031C00067110C94082AEF92FF920F931F93CF93ED
:1031D000DF9381E08093420488E0809343048AE097
:1031E000809344048EE08093450484E080934704F8
:1031F000E091CD02F0E0E25DFB4FC489CF3008F0F2
:103200006FC080912E0481116BC0D0E0FE01E550AB
:10321000FE4FE49110E000E09AEDE92E91E0F92EE6
:10322000E130B9F0E23029F010E000E0F12CE12CBF
:1032300010C0E093CA0280919F038093CB028091DB
:10324000A0038093CC020AEC12E087EDE82E81E027
:10325000F82E42E050E06AE072E080E394E00E94E1
:10326000FF2943E050E0B70182E394E00E94FF2988
:10327000BE0164517E4F41E050E085E394E00E943E
:10328000FF29BE0163527E4F41E050E086E394E0A7
:103290000E94FF2987E394E00115110551F083E0B6
:1032A000F801A7E3B4E001900D928A95E1F78AE373
:1032B00094E082539440282F80932F04E2E3F4E0BB
:1032C0008FEF9FEF222329F03191831B9109215029
:1032D000F9CF909341048093400481E080932E04C1
:1032E0008091CD028F5F8093CD0290914704891722
:1032F00010F01092CD02DF91CF911F910F91FF90AE
:10330000EF9008950F931F93CF93DF9328E832E057
:103310003093C9022093C80280918702813089F1DD
:10332000A0F0823009F43CC180918702909177022D
:10333000981709F438C18093770281E080930002E6
:10334000DF91CF911F910F91089588E494E00E943E
:10335000E91002974CF388E494E00E94011185354E
:10336000910599F788E494E00E9474108A3A9105D7
:1033700061F788E494E00E94011181E08093870264
:10338000D3CF80910002882309F1C3E8D2E084E022
:10339000FE0111928A95E9F730938202209381020F
:1033A000109280020E94681060937C0270937D02EC
:1033B00080937E0290937F02D0937B02C0937A0227
:1033C0008FEF9FEF90937902809378028091800233
:1033D000803410F082E0D2CF0E94681000917C020D
:1033E00010917D0220917E0230917F02601B710B53
:1033F000820B930B653071058105910558F788E4C0
:1034000094E00E94E910C0918002892B59F188E470
:1034100094E00E940111CF5FC0938002C53008F094
:10342000C5C0E0917A02F0917B029F012F5F3F4F70
:1034300030937B0220937A0280832091780230912E
:103440007902281B310930937902209378020E9477
:10345000681060937C0270937D0280937E0290934B
:103460007F02CDCF209183024C2F4450550B24175F
:10347000150609F059CFE0918102F091820232974E
:103480002091780230917902808191812817390743
:1034900009F0A0CFC65080918602909184029332A9
:1034A00009F447C0953209F467C09032A9F581113B
:1034B00033C080918502853679F580912E04813064
:1034C00019F58091760281111FC08091C1008F7E15
:1034D0008093C10040912F0450E04E5F5F4F60E346
:1034E00074E088E494E00E948A0F42E050E060E4D7
:1034F00074E088E494E00E948A0F8091C1008061AA
:103500008093C10010922E044C2F50E068E872E0C6
:103510008EE993E00E945B2C80918602813329F032
:10352000803B19F08A3309F055CF81E08093D103B5
:1035300051CF8A3371F0803B79F780E2E8E8F2E01E
:10354000A0EBB3E0C03241F701900D928A95E1F70C
:10355000E3CFC43009F78091880290918902A0914D
:103560008A02B0918B028093900390939103A09371
:103570009203B0939303D0CF813351F0803461F63E
:103580008EE1E8E8F2E0A8E5B2E0CE3129F6DCCF42
:10359000CA3011F68AE0E8E8F2E0A6EAB3E0D4CF58
:1035A00010928702C1CE10920002CACEE091810231
:1035B000F09182029F012F5F3F4F30938202209350
:1035C000810280832091830230E02E5F3F4FC2173B
:1035D000130609F00CF431CF3ACFFF920F931F93EB
:1035E000CF93DF93EC01F62E08811981C8010E9468
:1035F000082AF81621F06F2DC8010E94102ACE016A
:10360000DF91CF911F910F91FF9008950F931F931A
:10361000CF93DF931F921F92CDB7DEB78B019A83B2
:103620008983FB016081CE0101960E94ED1AC801D9
:103630000F900F90DF91CF911F910F9108950F93ED
:103640001F93CF93DF931F921F92CDB7DEB78B01ED
:103650009A838983FB016081CE0101960E94ED1A55
:10366000C8010F900F90DF91CF911F910F91089596
:103670001F920F920FB60F9211242F933F938F93A7
:103680009F93AF93BF9380917B0390917C03A09114
:103690007D03B0917E0330917A0323E0230F2D3711
:1036A00058F50196A11DB11D20937A0380937B03E9
:1036B00090937C03A0937D03B0937E0380917F035E
:1036C00090918003A0918103B09182030196A11D86
:1036D000B11D80937F0390938003A0938103B093E7
:1036E0008203BF91AF919F918F913F912F910F9046
:1036F0000FBE0F901F90189526E8230F0296A11D6C
:10370000B11DD2CF1F920F920FB60F9211240BB69C
:103710000F922F933F934F935F936F937F938F936A
:103720009F93AF93BF93EF93FF93E0918503F09145
:103730008603309749F0A685B7858585968D91FFDC
:1037400016C09C918923B1F4FF91EF91BF91AF9185
:103750009F918F917F916F915F914F913F912F91A9
:103760000F900BBE0F900FBE0F901F9018959C915D
:10377000892351F7A389B4899C91858980958923F0
:103780008C93868997890197F1F7608D718DA68555
:10379000B785558538E020E0CB010197F1F7822FFE
:1037A00090E095958795282F4C91452309F0206846
:1037B000315091F7868D81FD20958091840390E0B2
:1037C00001968F73992730918303381799F0A09150
:1037D0008403B0E0A65CBC4F2C9380938403828D5D
:1037E000938D0197F1F7A389B4898C919589892BE1
:1037F0008C93AACF868D8160868FF1CF1F920F9216
:103800000FB60F9211240BB60F922F933F934F9345
:103810005F936F937F938F939F93AF93BF93EF9338
:10382000FF938091B900887F803609F44DC008F07D
:1038300040C0883209F4A9C028F5803109F49DC040
:10384000C8F4882309F4FBC0883009F496C0FF91BE
:10385000EF91BF91AF919F918F917F916F915F9108
:103860004F913F912F910F900BBE0F900FBE0F9075
:103870001F901895883109F488C0803241F78093F1
:10388000F60314C0803409F49DC040F48033B9F3CA
:103890008833E9F68093F60385ECB0C0803509F4EF
:1038A00085C0883509F496C0883489F60E94A91825
:1038B000CECF883909F48CC038F5883729F050F418
:1038C000883611F0803719F683E08093F803109260
:1038D000390357C0883809F47BC0803919F0803823
:1038E00009F0B5CF80913903803208F071C0E091C2
:1038F000390381E08E0F809339038091BB00F0E0A3
:10390000E75EFC4F80833DC0803B39F0E0F4803AB5
:1039100009F479C0883A09F09ACF84E08093F803DB
:103920001092180310921703E0918903F0918A0313
:1039300019958091170381110FC081E080931703BF
:103940001092F70209C0803C09F4A6CF883C09F424
:10395000A3CF883B09F07BCFE091180381E08E0F65
:1039600080931803F0E0E950FD4F80818093BB0005
:10397000909118038091170329C08091D3038093FD
:10398000BB0085EC8093BC0062CF9091F5038091E1
:10399000F403981758F5E091F50381E08E0F8093BA
:1039A000F503F0E0EC52FC4F8081E9CFE091F503A4
:1039B00081E08E0F8093F5038091BB00F0E0EC5224
:1039C000FC4F80839091F5038091F4039817C8F21F
:1039D00085E8D8CFE091F50381E08E0F8093F50361
:1039E0008091BB00F0E0EC52FC4F80838091F703A4
:1039F00081115CCF81E08093D20384EA8093BC0084
:103A00001092F80324CF85EC8093BC001092F80349
:103A100080913903803230F4E0913903F0E0E75EC1
:103A2000FC4F10826091390370E0E0918703F091C0
:103A3000880389E193E019951092390308CF109219
:103A4000F60334CF1F920F920FB60F9211240BB6CC
:103A50000F922F933F934F935F936F937F938F9327
:103A60009F93AF93BF93EF93FF932091D402309134
:103A7000D50280918D0390918E0328173907E0F4C9
:103A80008091D4029091D50201969093D5028093B3
:103A9000D402FF91EF91BF91AF919F918F917F9150
:103AA0006F915F914F913F912F910F900BBE0F90AF
:103AB0000FBE0F901F9018951092D5021092D4024D
:103AC000E0910102F09102021995E3CF94E0909306
:103AD000CE0290E29093CF0293E09093D002833095
:103AE00009F45BC078F48130B1F0823009F44FC042
:103AF0008CE78093D10281E090E09093D302809391
:103B0000D20210C0853009F44CC008F448C0863099
:103B100079F78BE73DC08CE78093D1021092D302F6
:103B20001092D20242E050E06AE072E080E394E05A
:103B30000E94FF2986E0EEECF2E0A2E3B4E00190FF
:103B40000D928A95E1F786E080932F0480913204EC
:103B500090E08095909520913304821B91092091EB
:103B60003404821B910920913504821B9109209114
:103B70003604821B910920913704821B910990938E
:103B800041048093400481E080932E0408958DE7E2
:103B90008093D10282E090E0B0CF8DE7BDCF8BE77C
:103BA000BBCF8BE7A6CF0F931F93CF93DF931092DA
:103BB00025041092240488EE93E0A0E0B0E0809306
:103BC000260490932704A0932804B09329042FE09F
:103BD00032E03093230420932204EAE7F4E02FE05C
:103BE000EF0119922A95E9F710928A04109289043C
:103BF00010926A0410926904109273041092750472
:103C0000109274041092760461E06093770423E3C9
:103C100032E0309368042093670410924B041092B2
:103C20004A0480934C0490934D04A0934E04B093A7
:103C30004F0481E292E090934904809348041092EB
:103C40005F0410925E04109261041092600410925E
:103C500063041092620410926504109264048091CF
:103C600066048E7F8D7F80936604869581706827B9
:103C70008CE00E94B70F47E05EE1FA01649181ECAD
:103C80009DE1FC012491222399F030E0220F331FA3
:103C9000F901EF57F24EA591B491F901E556F24EB4
:103CA000259134912FB7F8943C91632B6C932FBFDF
:103CB000FA01449140935804FC018491E82FF0E00C
:103CC000EE0FFF1FE556F24E8591949190935A04A2
:103CD0008093590406E01EE1F8012491C0ECDDE177
:103CE000FE0184918823C9F090E0880F991FFC01A0
:103CF000EF57F24EA591B491FC01E556F24E459175
:103D000054913FB7F8949C91822F809598239C936F
:103D1000FA019081892380833FBF8091660481FDF1
:103D200004C061E08BE00E94B70F8BE080935404E5
:103D3000F801049100935504FE01C491EC2FF0E0CA
:103D4000EE0FFF1FE959F24E85919491909357041D
:103D50008093560410924704DF91CF911F910F91E9
:103D60000895CF93DF9300D000D000D01F92CDB73D
:103D7000DEB7789484B5826084BD84B5816084BDEB
:103D800085B5826085BD85B5816085BD80916E00F9
:103D9000816080936E00109281008091810082602A
:103DA0008093810080918100816080938100809167
:103DB00080008160809380008091B1008460809356
:103DC000B1008091B00081608093B000809191003B
:103DD0008260809391008091910081608093910036
:103DE000809190008160809390008091A10082601A
:103DF0008093A1008091A10081608093A1008091B7
:103E0000A00081608093A000809121018260809356
:103E10002101809121018160809321018091200105
:103E200081608093200180917A00846080937A0081
:103E300080917A00826080937A0080917A0081601C
:103E400080937A0080917A00806880937A00109243
:103E5000C1001092630410926204109261041092E7
:103E6000600410925F0410925E048FE190E09093E2
:103E70006504809364048091540496EF980F943005
:103E800048F02EEC280F243028F022EC280F2830A0
:103E900008F061C021E030E030935F0420935E04BD
:103EA0002DE130E030936104209360042DE030E098
:103EB0003093630420936204943050F02EEC280F6A
:103EC000243030F022EC280FF0E0E0E0283010F44D
:103ED000E8E6F0E02081943028F032EC380F3830FA
:103EE00008F4FBC031E0232B943048F09EEC980F8F
:103EF000943028F08E53F0E0E0E0883010F4E8E6EB
:103F0000F0E020832091540436EF320F343008F46F
:103F1000E6C08EEC820F843008F4E1C082EC820FA0
:103F2000883008F0DFC08DE690E090935C048093C9
:103F30005B04343008F0D9C02650330B81E001C057
:103F4000880F2A95EAF780935D048091640490912C
:103F500065040197F1F78091620490916304892BC5
:103F600049F1E0918503F091860324E0E834F207FB
:103F700009F1309739F0A389B4899C91858980959E
:103F800089238C93809166048E7F809366041092BF
:103F900084031092830388E494E0909386038093D3
:103FA0008503E0915B04F0915C04808190915D0455
:103FB000892B808390E080E00E94E118803809F02E
:103FC000A9C081E090E00E94E11891E0811101C058
:103FD00090E09093050282E090E00E94E1188093C7
:103FE000040283E090E00E94E1188093940384E04F
:103FF00090E00E94E11891E0811101C090E090935F
:10400000030285E090E00E94E11891E0811101C077
:1040100090E090930A0286E090E00E94E11891E01F
:10402000811101C090E09093970387E090E00E9497
:10403000E11891E0811101C090E09093960388E02F
:1040400090E00E94E1188093950310928C031092E7
:104050008B031092FF03109221040E94491188E8FB
:104060009FE090938A038093890389E89FE090936F
:104070008803809387038CE08093B80010927904C2
:104080008CE38093780410926B0410926C04EFE838
:10409000F6E085919491E82EE1E9F6E0F490E2E90A
:1040A000F6E0E491E0936D04E3E9F6E0E491E09357
:1040B0006E04E4E9F6E0E491E0936F048C01802F54
:1040C0008E198F1508F067C0F801649187E694E0B7
:1040D0000E940B130F5F1F4FF2CF34E004CF8BE62B
:1040E00090E023CF90E080E020CF88E0223309F4F5
:1040F0002ACF84E0233309F426CF82E0243309F465
:1041000022CF82EC820F883018F42E53330B16CF57
:1041100081E019CF1A82198260E8CE0101960E94CF
:10412000ED1A81E090E09A83898360E0CE010196E8
:104130000E94ED1A65E072E081E090E00E941F1B92
:1041400064E072E082E090E00E94061B64E973E0A4
:1041500083E090E00E94061B63E072E084E090E060
:104160000E941F1B6AE072E085E090E00E941F1B26
:1041700067E973E086E090E00E941F1B66E973E048
:1041800087E090E00E941F1B65E973E088E090E003
:104190000E94061B5ACF0E947E1389E892E00E947B
:1041A000590F61E080E00E946D1540E060E087E615
:1041B00094E00E94381380E20E942B158EE19AE170
:1041C0000E94590F0E9468106B017C01F0EDCF0E28
:1041D000F7E0DF1EE11CF11C4B015C0128EE820EB2
:1041E00023E0921EA11CB11C0E9468106C157D0575
:1041F0008E059F0558F40E94821980912E0481112A
:1042000002C00E94E3180E946B0FEECF0E9468105C
:104210002091AA033091AB03681579058A059B05A7
:1042200088F4232B89F08091AC039091AD03892B06
:1042300021F08091A8038111DECF60E081E00E942F
:104240006D152CC0232BC9F78091AC039091AD0361
:10425000892B99F78091A8038111EFCF60E081E06D
:104260000E946D1582E08093770440E060E087E66D
:1042700094E00E94381381E892E00E94991886E742
:1042800092E00E9499188BE692E00E94991882E6CB
:1042900092E00E94991881E0809377041092D003F5
:1042A00010928E0310928D0385E40E946415809114
:1042B0008F0381110E9457158BE79FE090930202B4
:1042C00080930102332433940E94821980912E043A
:1042D000811102C00E94E3188091D103813009F05E
:1042E0008CC21092D103C090BA03D090BB0380EF70
:1042F000C81688EDD8060CF05FC00D2C000CEE0837
:10430000FF089FEFC90ED91EE11CF11C80910A0223
:10431000882309F45BC0AAE0B0E0A70196010E94DF
:104320003C2C0E94C82A20E030E048E051E40E9482
:104330001E2A0E94902A6B837C838D839E838B81AF
:104340009C81AD81BE81B7FF0BC0B095A0959095C3
:1043500081959F4FAF4FBF4F8B839C83AD83BE83AF
:104360006B817C818D819E8128EE33E040E050E0BE
:104370000E94122C29013A010091AA031091AB036B
:104380002090AC039091AD039F83A2E04A165104A4
:1043900061047104F0F08091A503882331F010923C
:1043A000A4031092A3031092A50329ECC216D10412
:1043B000E104F104ACF069C0D7FE03C0D194C1940C
:1043C000D1080D2C000CEE08FF08A0CFB601C701E4
:1043D000B2CFB9ECCB16D104E104F1040CF051C01A
:1043E0002091A00388248394912C233850F481E0F9
:1043F00090E0223310F090E080E088249924881A1D
:10440000990A20919F03273908F05AC781E090E06C
:10441000223310F090E080E0AA24BB24A81AB90A45
:104420008091A303882309F417C2E1E0AE16B1041A
:1044300009F05CC08091060290910702019709F48F
:1044400055C0FFEF8F169F0609F050C080910802FB
:1044500090910902019609F088C0E0919803E83034
:1044600008F083C0F0E08827E75CFD4D8F4F0C9487
:10447000342CA122AD223623402348235E236A2315
:1044800074238091A5038111ABCF80910302811128
:1044900087C4C60168EE73E00E94EA2B64E670E010
:1044A0000E94EA2B7A876987C80117FF04C0882712
:1044B0009927801B910B64E670E00E94FE2B4B0154
:1044C0005C0122E0421651046104710408F099C4B1
:1044D0000C391F4F0CF012C629ECC216D104E104AE
:1044E000F1040CF00BC60E94341712C581E0881647
:1044F0009104D9F580910802909109020197A9F1E0
:10450000FFEFAF16BF0689F5809106029091070272
:10451000019659F580919803873008F002C18F5FAA
:10452000809398030E9468106053784F8F4F9F4F7D
:104530006093990370939A0380939B0390939C03D9
:1045400014C08091970383258093970367E973E0F4
:1045500086E090E00E941F1B08C08091970388238B
:1045600009F482C080E00E94661D60E087E00E943E
:104570006D158111109298033092770440E060E04D
:1045800087E694E00E943813809198038111CCC093
:104590008EE70E942B1586E59DE10E9430158091E3
:1045A0009703882309F4C5C082E59DE10E94301578
:1045B00041E060E087E694E00E9438138091980320
:1045C000813009F0B9C08EE70E942B1580E49DE18F
:1045D0000E94301542E060E087E694E00E943813C4
:1045E00080919803823009F0ACC08EE70E942B15B1
:1045F0008FE29DE10E94301580919603882309F493
:10460000A5C08BE29DE10E94301543E060E087E6A3
:1046100094E00E94381380919803833009F099C088
:104620008EE70E942B1587E19DE10E94301544E042
:1046300060E087E694E00E9438138091980384300C
:1046400009F08CC08EE70E942B1589E09DE10E9445
:10465000301580919503813009F485C0823009F4CA
:10466000E6C084EF9CE181C081E07DCF809196031C
:1046700083258093960366E973E087E090E06ACF34
:1046800080919603882311F082E06DCF83E06BCF99
:1046900080919503813029F0823069F03092950342
:1046A00003C082E08093950365E973E088E090E0C1
:1046B0000E94061B5ACF10929503F6CF8091950366
:1046C000813021F0823021F084E04DCF85E04BCF66
:1046D00086E049CF80910A02832580930A026AE02E
:1046E00072E085E090E036CFAFEFBFEFB093090204
:1046F000A0930802E1E0F0E0F0930702E0930602E5
:104700000E9468106053784F8F4F9F4F60939903BA
:1047100070939A0380939B0390939C031092A3033E
:1047200024CF10929803FECE8FE392E00E943217BE
:1047300032CF8EE49DE13ACF8FE392E00E943217B0
:1047400045CF8FE392E00E94321752CF87E29DE17E
:104750005ACF8FE392E00E94321765CF8FE392E049
:104760000E94321772CF82E09DE10E94301545E031
:1047700060E087E694E00E943813809198038530CA
:1047800009F058C08EE70E942B1588EE9CE10E942C
:10479000301546E060E087E694E00E94381380918F
:1047A0009803863009F04BC08EE70E942B1587EDE9
:1047B0009CE10E94301580910A02882309F444C0CC
:1047C00081ED9CE10E94301547E060E087E694E0CF
:1047D0000E943813809198038730C9F58EE70E94B4
:1047E0002B1586EC9CE10E94301590920902809274
:1047F0000802B0920702A09206020E946B0F8091FD
:104800008904813009F454C51092890480918A0486
:10481000813009F451C510928A041092D003E0E06F
:10482000F0E0EF2B09F450CD0E9400004BCD8BEF50
:104830009CE19BCF8FE392E00E943217A6CF8FE3DB
:1048400092E00E943217B3CF8BEC9CE1BBCF8FE399
:1048500092E00E943217C5CF8091A4038823C1F152
:1048600081E08816910481F48091080290910902F8
:10487000019751F09FEFA916B90631F48091060215
:1048800090910702019659F00E94341747E060E0CA
:1048900087E694E00E94381380EB9CE1A4CF9092CD
:1048A000090280920802B0920702A09206020E94BA
:1048B00068106053784F8F4F9F4F609399037093A8
:1048C0009A0380939B0390939C031092A40395CF2B
:1048D0008091A503882309F4A3C1B1E08B1691044C
:1048E00009F046C58091080290910902019709F0EC
:1048F00011C5EFEFAE16BE0609F00CC58091060299
:1049000090910702019609F009C5C0909903D090D3
:104910009A03E0909B03F0909C03C114D104E1043E
:10492000F10409F4FBC40E946810C616D706E80615
:10493000F90608F0F3C41092A5035FCFB1E08B161F
:10494000910409F4EBC460E082E00E946D1530929E
:10495000770440E060E087E694E00E94381380919D
:104960009D0381111BC18EE70E942B158EE99CE1EE
:104970000E94301580910502882309F414C18BE24E
:104980009DE10E94301541E060E087E694E00E94DE
:10499000381380919D03813009F008C18EE70E9491
:1049A0002B1580E99CE10E943015809194038230A0
:1049B00009F401C1833009F401C1813009F001C15A
:1049C00088E89CE10E94301542E060E087E694E0D0
:1049D0000E94381380919D03823009F0F5C08EE764
:1049E0000E942B158EE59CE10E94301580910402F7
:1049F0008A3009F4EEC08F3009F4EEC0853009F03A
:104A0000EEC08AE492E00E94321743E060E087E65D
:104A100094E00E94381380919D03833009F0E4C034
:104A20008EE70E942B158CE49CE10E94301580914A
:104A30000302882309F4DDC08BE29DE10E9430155A
:104A400044E060E087E694E00E94381380919D0383
:104A5000843009F0D1C08EE70E942B158FE39CE1D2
:104A60000E94301545E060E087E694E00E9438132C
:104A700080919D03853009F0C4C08EE70E942B15FC
:104A800080E39CE10E94301546E060E087E694E018
:104A90000E94381310E046E0612F87E694E00E9400
:104AA00038138DE20E942B151B5F1D37A1F747E0DD
:104AB00060E087E694E00E94381380919D03863081
:104AC00009F0A4C08EE70E942B1582E29CE10E94AF
:104AD000301548E060E087E694E00E94381380914A
:104AE0009D03873009F097C08EE70E942B157DCE7D
:104AF0008091050283258093050225CF8091940340
:104B0000813049F028F0823051F0109294031BCF8D
:104B10003092940318CF82E08093940314CF83E003
:104B2000FBCF80910402853041F08A3041F0811141
:104B300008C085E08093040206CF8AE0FBCF8FE0B7
:104B4000F9CF10920402FFCE809103028325809357
:104B50000302F9CE3092A403F6CE3092A303F3CE33
:104B600065E072E081E090E00E941F1B64E072E06B
:104B700082E090E00E94061B64E973E083E090E02D
:104B80000E94061B63E072E084E090E00E941F1B1D
:104B90001092A503D8CE10929D03DBC38FE392E061
:104BA0000E943217E3CE87E29DE1EBCE8FE392E0E5
:104BB0000E943217F6CE80E89CE104CF88E79CE1A2
:104BC00001CF80E79CE1FECE8FE392E00E94321796
:104BD00009CF8EE492E017CF82E592E014CF8EE405
:104BE0009DE10E94301511CF8FE392E00E943217B1
:104BF0001ACF87E29DE122CF8FE392E00E94321725
:104C00002DCF8FE392E00E9432173ACF8FE392E0EC
:104C10000E9432175ACF8FE392E00E943217E5CDFF
:104C200021E0A216B10481F480910602909107025E
:104C3000019751F08FEF8816980631F480910802A1
:104C400090910902019649F090920902809208021F
:104C5000B0920702A092060218CC60E083E00E94A6
:104C60006D15309277048EE19AE10E94590F40E071
:104C700060E087E694E00E9438138FE09AE10E949A
:104C800030158AE30E942B158DEE97E10E94590F93
:104C900041E06FE087E694E00E9438136091BE0324
:104CA0007091BF038091C0039091C10328EE33E05F
:104CB00040E050E00E94122C290189012AE030E0F6
:104CC00040E050E00E94122C69015901B8EE4B16E9
:104CD000B3E05B067CF480E20E942B1504361105DC
:104CE0004CF480E20E942B150A3011051CF480E27E
:104CF0000E942B15C2010E940B168EE20E942B15FA
:104D0000EAE0AE16B1041CF480E30E942B15C60144
:104D10000E940B168EE19AE10E94590F8AEE97E1EC
:104D20000E94301545E060E087E694E00E94381369
:104D30008CED97E10E9430158AE30E942B158DEED1
:104D400097E10E94590F46E06FE087E694E00E94E9
:104D5000381380919003909191036CE370E00E946E
:104D6000EA2B8B017C016436710548F480E20E94D5
:104D70002B150A30110518F480E20E942B15C8018A
:104D80000E940B168AE30E942B15FAE0EF16F1043D
:104D900018F480E30E942B15C7010E940B162DCD3D
:104DA00080910402882309F474CB9091A803891799
:104DB00008F46FCB0E94681020ED37E040E050E02F
:104DC0000E94122C6C3B72408105910508F061CB6A
:104DD00060E084E00E946D15882309F40ECD86ED15
:104DE0009FE00E94590F40E060E087E694E00E9457
:104DF000381381E20E942B158EE19AE10E94590F2F
:104E0000FCCC80910502882309F462CB60E085E048
:104E10000E946D153092770480919403823009F4DA
:104E200082C0833009F4F7C0813009F01EC180EAE6
:104E300096E00E94590FC4016AE070E00E94EA2BDC
:104E40008B017C0140E062E087E694E00E94381329
:104E50000115110509F440C0C8010E940B1640E07D
:104E600060E287E694E00E943813C7010E940B16A7
:104E700040E06BE487E694E00E943813C5016AE0E5
:104E800070E00E94EA2B8C01CB010E940B1640E0DF
:104E90006CE687E694E00E9438138DEE97E10E945D
:104EA000590FC8010E940B168EE19AE10E94590F1A
:104EB0008091AA039091AB0397FD12C082E080938A
:104EC000770444E06CE687E694E00E9438138EE9AC
:104ED00096E00E94301511C08BE30E942B15BFCFC6
:104EE0000E94681028EE33E040E050E00E94122C4F
:104EF000643F71408105910508F33092770445E0E5
:104F000060E487E694E00E94381385E80E942B1540
:104F10006091AB03661F6627661F8091A80390E02F
:104F20000E9439166ACC022D1F8117FF03C011950C
:104F300001951109C80164E670E00E94FE2B7B0117
:104F400080EA96E00E94590FC7016AE070E00E9473
:104F5000EA2B7B016C0140E062E087E694E00E946E
:104F60003813E114F10409F444C0C7010E940B1680
:104F7000C80164E670E00E94FE2B8C0140E063E211
:104F800087E694E00E943813C6010E940B1640E0A9
:104F90006BE487E694E00E943813C8016AE070E091
:104FA0000E94EA2B8C01CB010E940B1640E06CE6BC
:104FB00087E694E00E9438138DEE97E10E94590F26
:104FC000C8010E940B168EE19AE10E94590F809150
:104FD000AA039091AB0397FD10C082E08093770401
:104FE00044E06CE687E694E00E9438138CE996E092
:104FF00070CF8BE30E942B15BBCF0E94681028EE68
:1050000033E040E050E00E94122C643F7140810583
:10501000910518F372CF80EA96E00E94590F40E0A4
:105020006EE187E694E00E9438138091C603909168
:10503000C7036AE070E00E94FE2BCB010E940B16B2
:105040008EE19AE10E94590F82E08093770444E058
:105050006CE687E694E00E94381380E80E942B15E6
:105060008AE996E00E94301553CF80EA96E00E94CC
:10507000590F6B817C818D819E8120E137E240E078
:1050800050E00E94122C6901C301B2012AE030E015
:1050900040E050E00E94122C2B0140E062E087E6E5
:1050A00094E00E9438131C141D0424F5C6010E94CC
:1050B0000B1640E060E287E694E00E943813C201DC
:1050C0000E940B1640E06BE487E694E00E943813E0
:1050D00089859A850E942C1740E06AE687E694E06D
:1050E0000E9438138AE30E942B158EE19AE10E94F8
:1050F000590F03CF8BE30E942B15DBCF60E080E0DC
:105100000E946D158091C2039091C30364E670E024
:105110000E94EA2B6B017C01809192039091930392
:105120006CE370E00E94EA2B7C836B838C0180919E
:10513000C6039091C7036AE070E00E94FE2B788757
:105140006F83309277048DEE97E10E94590F40E013
:1051500060E087E694E00E9438138AE04816510424
:105160006104710418F480E20E942B154AE0C30127
:10517000B2010E94C7158EE20E942B1589859A857F
:105180000E942C178EE19AE10E94590F85E996E062
:105190000E9430158DEE97E10E94590F40E06FE5B7
:1051A00087E694E00E943813AF81B8851A9718F407
:1051B00080E20E942B158F8198850E942C178EE12A
:1051C0009AE10E94590F80E80E942B158AE996E027
:1051D0000E9430158DEE97E10E94590F42E060E089
:1051E00087E694E00E943813BAE0CB16D10418F495
:1051F00080E20E942B15C6010E942C178EE20E94AD
:105200002B15EAE0EE16F10418F480E30E942B154A
:10521000C7010E942C178EE19AE10E94590F8AEE75
:1052200097E10E9430158DEE97E10E94590F44E0FE
:1052300060E087E694E00E9438138B819C810A9796
:1052400018F480E30E942B158B819C810E942C17FF
:105250008AE30E942B150A30110518F480E30E949E
:105260002B15C8010E942C1744E064E487E694E003
:105270000E9438139AE0891691041CF480E20E947F
:105280002B15C4010E942C178EE20E942B15AAE058
:10529000AA16B1041CF480E30E942B15C5010E94DC
:1052A0002C178EE19AE10E94590F8EE996E0DACE32
:1052B00082E080938904AACA82E080938A04ADCAFE
:1052C000F1E08F16910411F58091A50381111EC0A4
:1052D0008091080290910902019731F480910602B1
:1052E00090910702019791F010929D030E9468101F
:1052F0006053784F8F4F9F4F6093990370939A0339
:1053000080939B0390939C033092A503AA24A394BB
:10531000B12C86C881E0A816B10479F18091080209
:1053200090910902019709F40ECBEFEFAE16BE067D
:1053300009F009CB8091060290910702019609F0CD
:1053400002CB80919D03863008F025CC8F5F80933F
:105350009D030E9468106053784F8F4F9F4F60935A
:10536000990370939A0380939B0390939C03EBCAD9
:1053700091E0A916B10409F0E6CA80910602909165
:105380000702019709F4DACA2FEF8216920609F094
:10539000D5CA8091080290910902019609F0D3CAFA
:1053A000E0919D03E73008F0CECAF0E08827E45290
:1053B000F64D8F4F0C94342C78257E259125A4250D
:1053C000AA25AD25B02581E292E09093490480930F
:1053D000480480918503909186038854944071F429
:1053E000E0915B04F0915C04908180915D04809574
:1053F0008923808310928603109285030895FB0110
:10540000DC0102C005900D9241505040D8F708953C
:10541000F999FECF92BD81BDF89A992780B508957C
:10542000262FF999FECF1FBA92BD81BD20BD0FB6C0
:10543000F894FA9AF99A0FBE019608950E94322ABA
:105440000C941A2B0E94132B58F00E940C2B40F046
:1054500029F45F3F29F00C94032B51110C944E2B2F
:105460000C94092B0E942B2B68F39923B1F355233D
:1054700091F3951B550BBB27AA2762177307840767
:1054800038F09F5F5F4F220F331F441FAA1FA9F3FD
:1054900035D00E2E3AF0E0E832D091505040E695EB
:1054A000001CCAF72BD0FE2F29D0660F771F881F4C
:1054B000BB1F261737074807AB07B0E809F0BB0B3F
:1054C000802DBF01FF2793585F4F3AF09E3F510553
:1054D00078F00C94032B0C944E2B5F3FE4F3983E32
:1054E000D4F3869577956795B795F7959F5FC9F73C
:1054F000880F911D9695879597F90895E1E0660FBD
:10550000771F881FBB1F621773078407BA0720F035
:10551000621B730B840BBA0BEE1F88F7E09508959E
:105520000E94972A6894B1110C944E2B08950E9402
:10553000332B88F09F5798F0B92F9927B751B0F0C7
:10554000E1F0660F771F881F991F1AF0BA95C9F707
:1055500014C0B13091F00E944D2BB1E008950C942D
:105560004D2B672F782F8827B85F39F0B93FCCF3E0
:10557000869577956795B395D9F73EF49095809584
:10558000709561957F4F8F4F9F4F0895E89409C0A4
:1055900097FB3EF490958095709561957F4F8F4F66
:1055A0009F4F9923A9F0F92F96E9BB279395F6957C
:1055B000879577956795B795F111F8CFFAF4BB0FFA
:1055C00011F460FF1BC06F5F7F4F8F4F9F4F16C05E
:1055D000882311F096E911C0772321F09EE8872FE8
:1055E000762F05C0662371F096E8862F70E060E0A4
:1055F0002AF09A95660F771F881FDAF7880F96951D
:10560000879597F9089597F99F6780E870E060E0C3
:1056100008959FEF80EC089500240A94161617064B
:1056200018060906089500240A9412161306140693
:1056300005060895092E0394000C11F4882352F0F6
:10564000BB0F40F4BF2B11F460FF04C06F5F7F4FAE
:105650008F4F9F4F089557FD9058440F551F59F095
:105660005F3F71F04795880F97FB991F61F09F3F4F
:1056700079F087950895121613061406551FF2CF78
:105680004695F1DF08C0161617061806991FF1CFC8
:1056900086957105610508940895E894BB276627EF
:1056A0007727CB0197F908950E94C62B08F48FEF56
:1056B00008950E946C2B0C941A2B0E940C2B38F02E
:1056C0000E94132B20F0952311F00C94032B0C94C3
:1056D000092B11240C944E2B0E942B2B70F3959FB9
:1056E000C1F3950F50E0551F629FF001729FBB27D9
:1056F000F00DB11D639FAA27F00DB11DAA1F649F75
:105700006627B00DA11D661F829F2227B00DA11D27
:10571000621F739FB00DA11D621F839FA00D611DAD
:10572000221F749F3327A00D611D231F849F600DCE
:10573000211D822F762F6A2F11249F5750409AF0F7
:10574000F1F088234AF0EE0FFF1FBB1F661F771F83
:10575000881F91505040A9F79E3F510580F00C944E
:10576000032B0C944E2B5F3FE4F3983ED4F38695C5
:1057700077956795B795F795E7959F5FC1F7FE2BEE
:10578000880F911D9695879597F90895990F0008B0
:10579000550FAA0BE0E8FEEF16161706E807F90703
:1057A000C0F012161306E407F50798F0621B730B9E
:1057B000840B950B39F40A2661F0232B242B252B1F
:1057C00021F408950A2609F4A140A6958FEF811DC2
:1057D000811D0895AA1BBB1B51E107C0AA1FBB1F57
:1057E000A617B70710F0A61BB70B881F991F5A956D
:1057F000A9F780959095BC01CD01089597FB072EE0
:1058000016F4009407D077FD09D00E94EA2B07FC1C
:1058100005D03EF4909581959F4F089570956195C0
:105820007F4F0895A1E21A2EAA1BBB1BFD010DC0DC
:10583000AA1FBB1FEE1FFF1FA217B307E407F50740
:1058400020F0A21BB30BE40BF50B661F771F881F1C
:10585000991F1A9469F760957095809590959B01B2
:10586000AC01BD01CF010895EE0FFF1F881F8BBF54
:105870000790F691E02D19940E94472CA59F900D5A
:10588000B49F900DA49F800D911D11240895A29F97
:10589000B001B39FC001A39F700D811D1124911D04
:1058A000B29F700D811D1124911D089581E090E03B
:1058B000F8940C94642CFB01DC0102C001900D9261
:1058C00041505040D8F708951FE0C2E2DFE000E009
:1058D00006C0802FFE010E94342C2196011DC33288
:0C58E000D10780E00807A9F7F894FFCF7B
:1058EC00014B15010501FFFFFFFF0100000000C582
:1058FC00129812B7158C1091127E126F12000000C4
:10590C00008D108A0FB7158C10E91001117410005E
:10591C0000000099138A0FB715B6157D15313A2082
:10592C00004300323A20000D0A00203525003130AA
:06593C00250031352500B5
:00000001FF
