:100000000C94180E0C94400E0C94400E0C942C1A68
:100010000C942C1A0C942C1A0C94C31B0C94400EA8
:100020000C94400E0C94400E0C94400E0C94400E18
:100030000C94400E0C94400E0C94400E0C94400E08
:100040000C94E2190C94400E0C94400E0C94400E4B
:100050000C94400E0C94400E0C94400E0C94400EE8
:100060000C94A41A0C94400EAED580A83FD3004047
:100070008D142002A1C8DA12817FD9F1DB40A4A639
:10008000AF54006D416800062061032201020A0698
:1000900004120C02022006040202021E3B31201B45
:1000A000101A693EB0233A7B7C7D400101010101B9
:1000B0000202020202020202020155AA00030C0F10
:1000C00030333C3FC0C3CCCFF0F3FCFF000000084E
:1000D000000201000003040700000000000000000F
:1000E000646973706C617921004E6F206461746182
:1000F00020746F00636F6E6E6563746564210042E7
:100100005553206E6F7400000080402001000000F5
:1001100000000000000000000000000000000000DF
:1001200000000000000000000000000000000000CF
:1001300000000000000000000000000000000000BF
:1001400000000000000000000000000000000000AF
:10015000000000000000000000000000000000009F
:10016000000000000000000000000000000000008F
:10017000000000000000000000000000000000007F
:10018000000000000000000000000000000000006F
:10019000000000000000000000000000000000005F
:1001A000000000000000000000000000000000004F
:1001B00000000000000000000000000000FEFEFE45
:1001C000FEFEFEFEFEFEFEFEFEFEFEFEFEFEFEFE4F
:1001D000FEFEFEFEFEFEFEFEFEFEFEFEFE00000039
:1001E000000000000000000000000000000000000F
:1001F00000000000000000000000000000000000FF
:1002000000000000000000000000000000000000EE
:1002100000000000000000000000000000000000DE
:1002200000000000000000000000000000000000CE
:1002300000000000000000000000000000FFFFFFC1
:10024000FFFFFF07030303C3C3434343C3830707FE
:100250000F1FFF07030307FFFFFFFFFFFF00000063
:10026000000000000000000000000000000000008E
:10027000000000000000000000000000000000007E
:10028000000000000000000000000000000000006E
:10029000000000000000000000000000000000005E
:1002A000000000000000000000000000000000004E
:1002B00000000000000000000000000000FFFFFF41
:1002C000FFFFFF80000000FFFF000000FFFF0000B5
:1002D0000080FF80000000FFFFFFFFFFFF00000025
:1002E000000000000000000000000000000000000E
:1002F00000000000000000000000000000000000FE
:1003000000000000000000000000000000000000ED
:1003100000000000000000000000000000000000DD
:1003200000000000000000000000000000000000CD
:1003300000000000000000000000000000FFFFFFC0
:10034000FFFFFFFFFFFFFFFFFFFFFFFFFFFFFFFFBD
:10035000FFFFFFFFFFFFFFFFFFFFFFFFFF000000AA
:10036000000000000000000000000000000000008D
:10037000000000000000000000000000000000007D
:10038000000000000000000000000000000000006D
:10039000000000000000000000000000000000005D
:1003A000000000000000000000000000000000004D
:1003B000000000000000000000000000000101013A
:1003C000010101010101010101010101010101011D
:1003D0000101010101010101010101010100000010
:1003E000000000000000000000000000000000000D
:1003F00000000000000000000000000000000000FD
:1004000000000000000000000000000000000000EC
:1004100000000000000000000000000000000000DC
:1004200000000000000000000000000000041C3C70
:1004300070E0E0F0781C0C04000000FCFC00000000
:10044000088C8CCCCCCCCCCCFCF8000000F0F81C98
:100450000C0404040C1CF8F0C00000FCFC0C0C0C98
:100460000C0CFCF81C0C0C0C0CFCF8F00000FCFC58
:10047000FC00000000000000000000000000000080
:10048000000000000000000000000000000000006C
:10049000000000000000000000000000000000005C
:1004A0000000000000000000000000000010181E06
:1004B000070303070E1C18100000001F1F00000098
:1004C0000F1F1930303030301F1F000000070F1C85
:1004D00018303030181C1F0F0100001F1F000000D3
:1004E00000001F1F00000000001F1F1F00001F1F33
:1004F0001F000000000000000000000000000000DD
:10050000000000000000000000000000006800196A
:100510008040006B6D2F68004300560041000000D2
:100520001C32300C0080E0F0F8FCFCFEFEFFFFFF08
:100530007F7FFFFFFFFEFEFEFCFCF8F0C000000026
:1005400080FFFFFFFFFFFFFFFFFFFFFF0000FFFF38
:10055000FFFFFFFFFFFFFFFFFFFF8000FFFFFFFF29
:10056000FFFFFFFFFFFFFFFF0000FFFFFFFFFFFF99
:10057000FFFFFFFFFFFFFF00FFFFFFFFFFFFFFFF8A
:10058000FFFFFFFF0000FFFFFFFFFFFFFFFFFFFF79
:10059000FFFFFF000FFFFFFFFFFFFFFFFFFFFFFF5A
:1005A0000000FFFFFFFFFFFFFFFFFFFFFFFF030054
:1005B00000030F1F3F7FFFFFFFFFFFFFFCFCFFFF5C
:1005C000FFFFFFFF7F7F3F1F0F03000000000000C1
:1005D0000000000000010101010101010101000012
:1005E00000000000000000000000008080C0C0C0CB
:1005F000E0E0F0F0F8FCFEFFFFFFFFFFFFFFFF0071
:10060000000000000000001F1F1F1F1F3F3F7FFF53
:10061000FFFFFFFFFFFFFFFFFFFFFF0000000000E5
:100620000000000000000000000000FFFFFFFFFFCF
:10063000FFFFFFFFFFFFFF000000000000000000C1
:1006400000000000000000FFFFFFFFFFFFFFFFFFB3
:10065000FFFFFF000000000000000000000000009D
:10066000000000FFFFFFFFFFFFFFFFFFFFFFFF0096
:10067000000000000000000000000000000000FF7B
:10068000FFFFFFFFFFFFFFFFFFFFFF000000000075
:100690000000000000000000000000010101010155
:1006A0000101010101010100000000000000C0F093
:1006B000F8FCFEFEFEFFFF7F7FFFFFFFFFFEFEFE5A
:1006C000FCF8F8E0C000000000FFFFFFFFFFFFFFA5
:1006D000FFFF01000080FFFFFFFFFFFFFFFFFFFFA5
:1006E000FFFE00000003030303030303030380E092
:1006F000FCFFFFFFFFFFFFFFFFFFFFFF3F030000C7
:1007000000000000000000C0F0FEFFFFFFFFFFFF41
:10071000FFFFFFFF7F1F030000000000000000C07C
:10072000F0FCFFFFFFFFFFFFFFFFFFFF7F1F070141
:10073000000000000000000000FCFFFFFFFFFFFFC3
:10074000FFFFFFFFFFFFFFFDFCFCFCFCFCFCFCFCD3
:10075000FC00000000010101010101010101010192
:10076000010101010101010101010101010000007C
:10077000C0F0F8FCFEFEFFFFFFFFFF7F7FFFFFFFE3
:10078000FFFFFEFEFEFCF8F0E0000000FFFFFFFFB1
:10079000FFFFFFFFFFFF00000000FFFFFFFFFFFF65
:1007A000FFFFFFFFFFFF000000000000000000004F
:1007B000F8F8F8F8FCFEFFFFFFFFFFFFFFFFDFCFB9
:1007C00087010000E0E0E0E0E0E0E0E0E3E30303D5
:1007D00007071FFFFFFFFFFFFFFFFFFFFFFFF800FF
:1007E000FFFFFFFFFFFFFFFFFFFF0000000000FF14
:1007F000FFFFFFFFFFFFFFFFFFFFFF00010F1F3F96
:100800007F7FFFFFFFFFFEFCFCFCFFFFFFFFFFFF02
:10081000FF7F7F3F1F070000000000000000000076
:1008200001010101010101010101000000000000BE
:10083000000000000000000000000000C0F8FFFF02
:10084000FFFFFFFFFFFFFFFFFFFFFFFFFFFF0000B6
:10085000000000000080F0FEFFFFFFFFFF3FFFFFF2
:10086000FFFFFFFFFFFFFFFFFFFF0000000000E0B2
:10087000FCFFFFFFFFFFFF1F0100FFFFFFFFFFFF68
:10088000FFFFFFFFFFFF0000C0F8FFFFFFFFFFFFBC
:10089000FF0F00000000FFFFFFFFFFFFFFFFFFFF54
:1008A000FFFF0000FFFFFFFFFFFFFFFFFFFFFFFF56
:1008B000FFFFFFFFFFFFFFFFFFFFFFFFFFFFFF0047
:1008C0000000000000000000000000000000FFFF2A
:1008D000FFFFFFFFFFFFFFFFFFFF00000000000022
:1008E0000000000000000000000001010101010102
:1008F0000101010101010000FFFFFFFFFFFFFFFFFA
:10090000FFFFFF7F7F7F7F7F7F7F7F7F7F7F7F7F77
:100910007F7F0000FFFFFFFFFFFFFFFFFFFFFF8064
:10092000C0E0F0F0F0F0F0F0F0E0E0C08000000097
:100930007F7F7F7F7F7F7F7F7F7F7F7F0F070FFF9F
:10094000FFFFFFFFFFFFFFFFFFFFF800C0C0C0C0B9
:10095000C0C0C0C0C0C0C0C0000000FFFFFFFFFF9C
:10096000FFFFFFFFFFFFFF00FFFFFFFFFFFFFFFF96
:10097000FFFFFFFF000000FFFFFFFFFFFFFFFFFF84
:10098000FFFFFF0000070F3F3F7FFFFFFFFFFFFF5D
:10099000FEFCFEFFFFFFFFFFFF7F7F3F1F07010001
:1009A0000000000000000000000101010101010140
:1009B00001010100000000000000000000C0E0F89C
:1009C000FCFCFEFEFEFFFFFFFF7FFFFFFFFFFEFEC2
:1009D000FEFCFCF8F0C00000FFFFFFFFFFFFFFFF81
:1009E000FFFFFFFF0000001F1F1F1F1F1F1F1F1FF4
:1009F0001F1F1F00FFFFFFFFFFFFFFFFFFFFFFFFA6
:100A0000F87CFEFFFFFFFFFFFFFEFEFCF8F0C000DA
:100A1000FFFFFFFFFFFFFFFFFFFFFFFF000000FFE3
:100A2000FFFFFFFFFFFFFFFFFFFFFF00FFFFFFFFD5
:100A3000FFFFFFFFFFFFFFFF000000FFFFFFFFFFC3
:100A4000FFFFFFFFFFFFFF0001071F3F7F7FFFFF4B
:100A5000FFFFFFFFFEFCFFFFFFFFFFFFFF7F7F3F6A
:100A60001F0701000000000000000000000101015C
:100A70000101010101010000000000000000000070
:100A80007F7F7F7F7F7F7F7F7F7F7F7F7F7F7FFFF6
:100A9000FFFFFFFFFFFFFFFFFFFFFF000000000061
:100AA00000000000000000000000F8FFFFFFFFFF53
:100AB000FFFFFFFFFFFF0F0000000000000000002D
:100AC00000000000E0FFFFFFFFFFFFFFFFFFFFFF51
:100AD0001F00000000000000000000000000C0FE39
:100AE000FFFFFFFFFFFFFFFFFFFF7F03000000008E
:100AF000000000000000000000F8FFFFFFFFFFFF04
:100B0000FFFFFFFFFF0F00000000000000000000DB
:100B1000000000E0FFFFFFFFFFFFFFFFFFFFFF1FE1
:100B200000000000000000000000000000000001C4
:100B300001010101010101010101010000000000AA
:100B40000000000080E0F0F8FCFEFEFEFFFFFFFF6B
:100B5000FF7FFFFFFFFFFFFEFEFEFCF8F0E000005E
:100B6000FFFFFFFFFFFFFFFFFFFFFFFF000000FF92
:100B7000FFFFFFFFFFFFFFFFFFFFFF0001078FDF0A
:100B8000FFFFFFFFFFFFFFFFFCF8FCFFFFFFFFFF82
:100B9000FFFFDFCF8F070100F8FFFFFFFFFFFFFF21
:100BA000FFFFFFFF070307FFFFFFFFFFFFFFFFFF41
:100BB000FFFFF800FFFFFFFFFFFFFFFFFFFFFFFF4B
:100BC000000000FFFFFFFFFFFFFFFFFFFFFFFF0031
:100BD00001071F3F7F7FFFFFFFFFFFFFFEFCFEFFC0
:100BE000FFFFFFFFFFFF7F3F1F0F0000000000001F
:100BF00000000000010101010101010101010100EA
:100C0000000000000000000000C0F0F8FCFCFEFE48
:100C1000FFFFFFFFFF7FFFFFFFFFFEFEFEFCF8F878
:100C2000E0C00000FFFFFFFFFFFFFFFFFFFFFFFF30
:100C3000000000FFFFFFFFFFFFFFFFFFFFFFFE00C1
:100C4000FFFFFFFFFFFFFFFFFFFFFFFF000000FFB1
:100C5000FFFFFFFFFFFFFFFFFFFFFF00071F3F7FBB
:100C6000FFFFFFFFFFFFFFFFFE7C3EFFFFFFFFFFD9
:100C7000FFFFFFFFFFFFFF00F0F0F0F0F0F0F1F1F9
:100C8000F1F1F1F1000000FFFFFFFFFFFFFFFFFFA9
:100C9000FFFFFF00010F1F3F7F7FFFFFFFFFFFFFF1
:100CA000FEFCFEFFFFFFFFFFFF7F3F1F0F0700005F
:100CB000000000000000000001010101010101012C
:100CC0000101000000000000000000000000000022
:100CD0000000000000000000000000000000000014
:100CE0000000000000000000000000000000000004
:100CF00000000000000000000000000000000000F4
:100D000000000000C0C0C0000000000000000000A3
:100D100000000000000000000000000000000000D3
:100D2000FFFFFFF8DC8E0600FEFEFE06FEFCFE0660
:100D3000FEFEFC00000000000000000003030300B2
:100D4000010303000303E3E003E3E3000303030001
:100D5000000000000000000000000000000000C0D3
:100D6000F83F070000FFFF0606FEFC000000000041
:100D70000000000000000000000000010100000071
:100D8000000101000001010000000000000000005F
:100D90000000000000000000000000000000000053
:100DA0000000000000000000000000000000000043
:100DB0000000000000000000000000000000000033
:100DC0000000000000000000000000000000000023
:100DD0000000000000000000000000000000000013
:100DE0000000000000000000000000000000000003
:100DF00000000000000000000000000000000000F3
:100E000000000000000000000000000000000000E2
:100E100000000000000000000000000000000000D2
:100E200000000000000000000000000000000000C2
:100E300000000000000000000000000000000000B2
:100E400000000000000000000000000000000000A2
:100E50000000000000008040200200FCFEFEFEFEBC
:100E6000FEFEFEFEFEFEFCFCF8F8F0F0F0E0E0C056
:100E7000C0808080000000000000808080C0C0E052
:100E8000E0F0F0F0F8F8FCFCFEFEFEFEFEFEFEFEDA
:100E9000FEFEFE0000000080F0F8FCFCFEFEFEFE00
:100EA000FEFEFEFCFCF8F0E0000000000000008008
:100EB000E0F0F8FCFCFEFEFEFEFEFCFCF8F8E0C0F4
:100EC000000000000000FCFCFCFCFCFCFCFCFCFC4A
:100ED000FCFCFCFCFCFCFCFC000000FFFFFFFFFF37
:100EE000FFFFFFFFFF0F0F1F1F1F3F3F7F7FFFFF12
:100EF000FFFFFFFFFFFFFEFEFFFFFFFFFFFFFFFF04
:100F00007F7F3F3F3F1F1F0F0FFFFFFFFFFFFFFFD1
:100F1000FFFFFF00000000FFFFFFFFFFFFFF0703D1
:100F200007FFFFFFFFFFFFFFFF00000000C0FEFF05
:100F3000FFFFFFFFFFFF070307FFFFFFFFFFFFFFAD
:100F4000FEF000000000FFFFFFFFFFFFFF070707A5
:100F50000707070707070707000000FFFFFFFFFF5E
:100F6000FFFFFFFFFF000000000000000000000086
:100F70000101010303070707070303010101000043
:100F80000000000000000000000F07070703030136
:100F9000010100000000001F1F1F1F1F1F1F000076
:100FA00080FFFFFFFFFFFFFFFF00000000FFFFFFCC
:100FB000FFFFFFFFFFFF000080C3C3C38383030362
:100FC0000303000000FEFFFFFFFFFFFFFFE0F0F85C
:100FD000F8FCFCFCF8F8F0E0000000FFFFFFFFFF6A
:100FE000FFFFFFFFFF000000000000000000000006
:100FF00000000000000000000000000000000000F1
:10100000000000000000000000F0F0F0F8F8FCFC28
:10101000FEFEFE000000000000000000FEFEFEFEDE
:10102000FFFFFFFFFFFFEFC78100000000FFFFFF92
:10103000FFFFFFFFFFFFFC7FFFFFFFFFFFFFFFFE44
:10104000F880000000FFFFFFFFFFFFFFFFFF0F071B
:101050003FFFFFFFFFFFFFFFFF00001F7F7F3F3FBE
:101060001F1F0F0F0F000000000000000000000015
:101070000000000000000000000000000000000070
:10108000000000000000000000FFFFFFFFFFFFFF67
:10109000FFFF3F00000000C0C0C0C0C0C3C30307C3
:1010A0000F3FFFFFFFFFFFFFFFFC000000FFFFFF00
:1010B000FFFFFFFFFFFF000000FFFFFFFFFFFFFF3D
:1010C000FFFF0000008080808080808080800000A2
:1010D00000FFFFFFFFFFFFFFFF000000000080C0D8
:1010E000C0E0E0E0F0F0F8E0C00000000000000028
:1010F00000000000000000000000000000000000F0
:101100000000000000C0E0F8FFFFFFFFFFFFFFFF4F
:101110003F070000000000FFFFFFFFFFFFFF000090
:101120000000FFFFFFFFFFFFFFFF000000FFFFFFCA
:10113000FFFFFFFFFFFF000000FFFFFFFFFFFFFFBC
:10114000FFFF000000FFFFFFFFFFFFFFFFFF0000AA
:1011500000FFFFFFFFFFFFFFFF0000000000000394
:101160000F1F3F7FFFFFFFFFFFFFFEFCFCF8F0F0CB
:10117000E0E0E0E0C0C0C0C0C0C0C0E0E0E0F0F02F
:10118000F8FCFCFEFFFFFFFFFFFF7F3F1F0F030187
:1011900000000000000000FFFFFFFFFFFFFFE0C0B6
:1011A000C0E0FFFFFFFFFFFFFF1F000000077FFF02
:1011B000FFFFFFFFFFFFE0C0E0FFFFFFFFFFFFFFBC
:1011C000FF0700000007FFFFFFFFFFFFFFFFE0C07A
:1011D000F0FFFFFFFFFFFFFF7F00000000000000A7
:1011E0000000000000010307070F0F1F1F3F3F3FD4
:1011F0007F7F7F7F7F7F7F7F7F7F7F7F7F7F3F3F7F
:101200003F1F1F1F0F070703010000000000000021
:101210000000000000000000030F1F3F3F7F7F7FA2
:101220007F7F7F7F3F1F1F0701000000000000033A
:101230000F1F3F3F7F7F7F7F7F7F7F3F3F1F0F03DA
:1012400000000000000000030F1F3F3F7F7F7F7FF3
:101250007F7F7F3F3F1F0F03000000000000000062
:101260000080E0E0F0F8F8FCFCFEFEFEFEFEFEFE74
:10127000FEFEFEFEFEFEFEFEFEFEFEFEFEFEFEFE8E
:10128000FEFEFEFEFEFEFEFEFEFEFEFEFEFEFEFE7E
:10129000FEFEFEFEFEFEFEFEFEFEFEFEFEFEFEFE6E
:1012A000FEFEFEFEFEFEFEFEFEFCFCFCF8F8F0E09C
:1012B000C0800000000000000000000000000000EE
:1012C000000000000000000000F8F8F8F8F8F8F856
:1012D000F8F8F8F8F8000000000000000000F0FC4A
:1012E000FFFFFFFFFFFFFFFF7F3F1F8FC7E7E7E322
:1012F000E3E3E3E3E303030303030303030303035E
:1013000003030303030303030303030303030303AD
:10131000030303030303030303030303030303039D
:101320000303030707070F0F1F3FFFFFFFFFFFFF29
:10133000FFFFFFFCE0E0E0E0E0E0E0C0C080800014
:10134000000000000000000000FFFFFFFFFFFFFFA4
:10135000FFFFFFFFFF000000000000000000FFFF94
:10136000FFFFFFFFFFFFFF030000FEFFFFFFFFFF88
:10137000FFFFFFFFFF000000000000000000000072
:10138000000000000000000000000000000000005D
:10139000000000000000000000000000000000004D
:1013A00000000000000000000000007F7F7F7F7FC2
:1013B0007F7F7F7F7F7F7FFFFFFFFFFFFFFFFFFFBD
:1013C000FC00000000000000003FFFFFFFFFFFFFE8
:1013D000FFFFFFFF3F000000000000000000FFFFD4
:1013E000FFFFFFFFFFFFFF000000FFFFFFFFFFFF0A
:1013F000FFFFFFFFFF0000000000000000000000F2
:1014000000000000000000000000000000000000DC
:1014100000000000000000000000000000000000CC
:1014200000000000000000000000000000000000BC
:101430000000000000000000FFFFFFFFFFFFFFFFB4
:10144000FF000000000000000000FFFFFFFFFFFFA3
:10145000FFFFFFFF00000000000000000000FFFF92
:10146000FFFFFFFFFFFFFF000000FFFFFFFFFFFF89
:10147000FFFFFFFFFF000000000000000000000071
:10148000000000000000000000000000000000005C
:10149000000000000000000000000000000000004C
:1014A000000000000000000000000000000000003C
:1014B0000000000000000000FFFFFFFFFFFFFFFF34
:1014C000FF000000000000000000FFFFFFFFFFFF23
:1014D000FFFFFFFF00000000000000000000FFFF12
:1014E000FFFFFFFFFFFFFFC000007FFFFFFFFFFFC9
:1014F000FFFFFFFFFF0000000000000000000000F1
:1015000000000000000000000000000000000000DB
:1015100000000000000000000000000000000000CB
:101520000000000000000000000000FEFEFEFEFEC5
:10153000FEFEFEFEFEFEFEFFFFFFFFFFFFFFFFFFC2
:101540003F000000000000000000003F3F3F3F3F21
:101550003F3F3F00000000000000000000000F3F80
:10156000FFFFFFFFFFFFFFFFFEFCF8F1E3E7E7C728
:10157000C7C7C7C7C7C0C0C0C0C0C0C0C0C0C0C048
:10158000C0C0C0C0C0C0C0C0C0C0C0C0C0C0C0C05B
:10159000C0C0C0C0C0C0C0C0C0C0C0C0C0C0C0C04B
:1015A000C0C0C0E0E0E0F0F0F8FCFFFFFFFFFFFF8D
:1015B000FFFFFF3F070707070707070303010100B6
:1015C000000000000000000000F8FCFCFCFCFCFC3B
:1015D000FCFCFCFCF8000000000000000000000023
:1015E000000107070F1F1F3F3F7F7F7F7F7F7F7FA8
:1015F0007F7F7F7F7F7F7F7F7F7F7F7F7F7F7F7FFB
:101600007F7F7F7F7F7F7F7F7F7F7F7F7F7F7F7FEA
:101610007F7F7F7F7F7F7F7F7F7F7F7F7F7F7F7FDA
:101620007F7F7F7F7F7F7F7F7F3F3F3F1F1F0F0732
:1016300003010000000000000000000000000000A6
:101640000000000000000000000F1F1F1F1F1F1FD1
:101650001F1F1F1F0F0000000000506F77657220D2
:101660006F6E2074696D65006B6D0000000A0E20BE
:101670001B0000000000000000000000000000004F
:10168000000000000000000000000000000000005A
:10169000000000000000000000000000000000004A
:1016A000000000000000000000000000000000003A
:1016B000000000000000000000000000000000002A
:1016C000000000000000000000000000000000001A
:1016D000000000000000000000000000000000000A
:1016E00000000000000000000000000000000000FA
:1016F00000000000000000000000000000000000EA
:1017000000000000000000000000000000000000D9
:1017100000000000000000000000000000000000C9
:1017200000000000000000000000000000000000B9
:1017300000000000000000000000000000000000A9
:101740000000000000000000000000000000000099
:101750000000000000000000000000000000000089
:101760000000000000000000000000000000000079
:101770000000000000000000000000000000000069
:101780000000000000000000000000000000000059
:1017900000000000000000383838000000000000A1
:1017A0000000000000000000000000000000000039
:1017B00000FCFEFF070303FFFEFC000F1F3F30305D
:1017C000383F1F0F0000000C0C0EFFFFFF00000051
:1017D000000000003F3F3F0000001C1E1F07C7FF26
:1017E000FE3C000030383E3F3F333030000E0F6F7C
:1017F00063E3E7FFFEDC000F1F3F3830383F1F0F69
:101800000080E0F83F07FFFFFF000007070707071A
:101810003F3F3F07007F7F7F333373F3F3E3000ED7
:101820001E3E3830383F1F0F00FCFEFF6763E7EFB6
:10183000EECC000F1F3F3830303F1F0F0000030376
:1018400003E3FFFF3F07000000383F3F0F010000A8
:1018500000BCFEFFC7C3E3FFFEBC000F1F3F3130DB
:10186000383F1F0F00FCFEFF8783C3FFFEFC000C08
:101870001D3D3131383F1F0F0000000000707070B7
:10188000000000000000001C1C1C000000546F74CD
:10189000616C2064697374616E6365000000050704
:1018A0002066000000000000005F00000007000745
:1018B00000147F147F14242A7F2A122313086462E1
:1018C00036495522500005030000001C224100004B
:1018D00041221C00082A1C2A0808083E080800505B
:1018E00030000008080808080060600000201008A8
:1018F00004023E4141413E00427F40004261514965
:10190000462141454B311814127F10274545453972
:101910003C4A4949300171090503364949493606AF
:101920004949291E003636000000563600000008DE
:1019300014224114141414144122140800020151F9
:101940000906324979413E7E1111117E7F4949498C
:10195000363E414141227F4141221C7F4949494154
:101960007F090901013E414151327F0808087F008B
:10197000417F41002040413F017F081422417F40C8
:101980004040407F0204027F7F0408107F3E4141B7
:10199000413E7F090909063E4151215E7F0919290F
:1019A00046464949493101017F01013F4040403FDE
:1019B0001F2040201F7F2018207F6314081463031A
:1019C00004780403615149454300007F414102040A
:1019D00008102041417F0000040201020440404001
:1019E0004040000102040020545454787F4844448D
:1019F000383844444420384444487F3854545418B8
:101A0000087E090102081454543C7F08040478003D
:101A1000447D40002040443D00007F1028440041A8
:101A20007F40007C041804787C080404783844441F
:101A300044387C14141408081414187C7C0804041A
:101A4000084854545420043F4440203C4040207CEB
:101A50001C2040201C3C4030403C44281028440CB2
:101A60005050503C4464544C44000836410000003F
:101A70007F0000004136080008082A1C08081C2ABC
:101A8000080800060909060000007F415D5D5D5DF4
:101A90004141414141417F000000007C7C7C7C7CD5
:101AA0005361766520616E64206578697400436FC8
:101AB0006E666967757265204D3336350042617414
:101AC0007465727920696E666F0042696720626191
:101AD00074742E207761726E2E3A20004261747405
:101AE000657279207761726E696E673A20002020F6
:101AF00053504545440020202054454D5000564F3A
:101B00004C544147450043555252454E540042699A
:101B1000672073706565646F2E3A20004269672004
:101B200073706565646F6D657465723A20003E3E42
:101B30003E204272616B6520746F20657869742065
:101B40003C3C3C00457869740020382C352200204C
:101B50002031302200576865656C2053697A653AF8
:101B6000202020202000557064617465204B455270
:101B7000530020205745414B005354524F4E4700CD
:101B80004D454449554D004B4552533A20202020A5
:101B90002020202000557064617465205461696CB8
:101BA0006967687400204E4F0059455300546169BD
:101BB0006C69676874206F6E3A2020202000557091
:101BC0006461746520437275697365004F46460011
:101BD000204F4E0043727569736520636F6E747297
:101BE0006F6C3A200000000000230026002900004E
:101BF000000000240027002A000000000025002823
:101C0000002B00040404040404040402020202027F
:101C100002030303030303010204081020408001B0
:101C2000020408102001020408102000701C1D2866
:101C300011241FBECFEFD8E0DEBFCDBF11E0A0E082
:101C4000B1E0E2E5F5E502C005900D92A635B107D9
:101C5000D9F723E0A6E5B1E001C01D92AB38B20789
:101C6000E1F71EE0C7E1DEE004C02197FE010E941B
:101C70006E2AC631D107C9F70E944E1D0C949C2ACA
:101C80000C94000000000000000090937503809306
:101C90007403FC0124913196E491F22F319719F4E9
:101CA00010927003089581E0809370030895EAE72D
:101CB000F3E082E09191DF011197913031F48C9340
:101CC00093E0E938F907B1F708951C92F9CF8091B4
:101CD000D002833028F01092D002F0E0E0E00994C6
:101CE0008F5F8093D002089508950895AF92BF92B8
:101CF000CF92DF92EF92FF920F931F93CF93DF93D8
:101D00006C017B018B01040F151FEB015E01AE1806
:101D1000BF08C017D10759F06991D601ED91FC9128
:101D20000190F081E02DC6010995892B79F7C50155
:101D3000DF91CF911F910F91FF90EF90DF90CF90A7
:101D4000BF90AF90089590E0FC01E453FF4F2491C1
:101D5000FC01E95EF34E3491FC01ED5FF34EE4913A
:101D6000EE23C9F0222339F0233001F1A8F4213009
:101D700019F1223029F1F0E0EE0FFF1FE750F44E89
:101D8000A591B4918FB7F894EC91611126C030956C
:101D90003E233C938FBF08952730A9F02830C9F027
:101DA000243049F7809180008F7D03C080918000AE
:101DB0008F7780938000DFCF84B58F7784BDDBCFB2
:101DC00084B58F7DFBCF8091B0008F778093B0007A
:101DD000D2CF8091B0008F7DF9CF3E2BDACF3FB7C5
:101DE000F89480917F0290918002A0918102B0913D
:101DF000820226B5A89B05C02F3F19F00196A11DB0
:101E0000B11D3FBFBA2FA92F982F8827BC01CD0144
:101E1000620F711D811D911D42E0660F771F881FA3
:101E2000991F4A95D1F708952FB7F89460917B02D6
:101E300070917C0280917D0290917E022FBF089567
:101E400020918502309186022817390771F490910C
:101E5000830280918402981741F0E0918302F0E0C0
:101E6000E65CFD4F808190E008958FEF9FEF08952D
:101E70000895EF92FF920F931F93CF93DF93DC01AE
:101E80005C96ED90FC905D97E114F10479F481E0AB
:101E900090E013969C938E93129790E080E0DF91F0
:101EA000CF911F910F91FF90EF9008955196ED9172
:101EB000FC91529750968C915097982F90950FB710
:101EC0005E962C915E97122F127021FD6095F8940A
:101ED0002081112319F1282B2083E7012197F1F7A5
:101EE00028E0462F50E0308160FF1AC0382B308345
:101EF000E7012197F1F7BA0175956795215089F7A8
:101F0000112381F08081892380830FBF5C968D919E
:101F10009C910197F1F781E090E0C1CF2923DCCFBC
:101F20003923E5CF9081892BEFCF20918502309125
:101F300086022817390771F4809184022091830268
:101F400090E0805C9F4F821B910960E470E00E94EA
:101F5000382A089590E080E008952091850230911C
:101F6000860228173907B9F4909183028091840280
:101F7000981789F0E0918302F0E0E65CFD4F8081E4
:101F80002091830230E02F5F3F4F2F733327209340
:101F9000830290E008958FEF9FEF0895209117023C
:101FA000260F3327331F21323105ECF42091F8023C
:101FB000FC0190E080E0243069F082E00895A09177
:101FC00017022191AC0149505E4FA40FB52FB11DEE
:101FD0002C930196861798F380911702680F6093EF
:101FE000170280E0089581E008951092F80281E0E0
:101FF0008093F7021092D20261E082E10E94A30E68
:1020000061E083E10E94A30EE9EBF0E080818E7F26
:10201000808380818D7F808388E48093B80085E40D
:102020008093BC000895CF93DF9391E09093F601E5
:102030008823B9F0C091B800D091BA008091BC005B
:102040008A7B8093BC0060E082E10E94A30E60E086
:1020500083E10E94A30E0E94F50FD093BA00C093B3
:10206000B800DF91CF910895CF92DF92EF92FF9267
:102070000F931F93CF93DF93D091210381E0D1324F
:1020800008F09CC0C09120030E94EF0E6B017C0100
:102090008091F80281116CC082E08093F80281E0A7
:1020A0008093F7028FEF8093F6021092F502D0939F
:1020B000F402A0E0B3E0E4EDF2E080E0D8138DC0DC
:1020C0001092D3028091D302CC0FC82BC093D302BD
:1020D0008091D202813009F084C01092D2020E9415
:1020E000EF0E6B017C018091D3028093BB00809145
:1020F000FA029091FB02A091FC02B091FD02892BA3
:102100008A2B8B2BA1F00E94EF0E0091FA02109106
:10211000FB022091FC023091FD026C197D098E09B1
:102120009F09061717072807390708F442C080914E
:10213000BC0083FDD8CF85EC8093BC000E94EF0EDD
:102140006B017C018091F802823009F44CC08091CF
:10215000F6028F3F09F469C08091F602803209F4DB
:1021600066C08091F602803309F463C084E026C023
:102170008091FA029091FB02A091FC02B091FD02C5
:10218000892B8A2B8B2B09F483CF0E94EF0E0091B1
:10219000FA021091FB022091FC023091FD026C19B1
:1021A0007D098E099F09061717072807390708F0C8
:1021B0006FCF8091F9020E94131085E01092FF0208
:1021C000109221031092FE02DF91CF911F910F9187
:1021D000FF90EF90DF90CF9008959D9191938F5F46
:1021E0006DCF85EEA9CF8091FA029091FB02A0916C
:1021F000FC02B091FD02892B8A2B8B2B09F4A2CF14
:102200000E94EF0E0091FA021091FB022091FC0255
:102210003091FD026C197D098E099F090617170779
:102220002807390708F08ECFC4CF80E0C7CF82E0FF
:10223000C5CF83E0C3CFE0918C0280918B02E81779
:1022400030F4F0E0EA52FE4F808190E008958FEF85
:102250009FEF089590918C0280918B022FEF3FEFBA
:10226000981748F4E92FF0E0EA52FE4F208130E061
:102270009F5F90938C02C901089580918B02909189
:102280008C02891B990B0895CF92DF92EF92FF92F7
:102290000F931F93CF93DF937C01CB018A01209191
:1022A000FE02222389F0EB016B01C40ED51ECC1572
:1022B000DD0569F06991D701ED91FC910190F08104
:1022C000E02DC7010995F3CF642F0E94CE0FC801FE
:1022D000DF91CF911F910F91FF90EF90DF90CF9002
:1022E0000895CF93DF931F92CDB7DEB76983209116
:1022F000FE022223F9F020912103203258F021E040
:1023000030E0FC013383228390E080E00F90DF9186
:10231000CF9108958091FF02E82FF0E0E050FD4F4B
:10232000998190838F5F8093FF028093210381E0E6
:1023300090E0ECCF61E0CE0101960E94CE0FF7CF86
:10234000CF93DF93EC019C818E81981768F48F8581
:102350006827E881F9810084F185E02D42E0CE0113
:1023600009958C818F5F8C83DF91CF910895DC017B
:10237000ED91FC910084F185E02D40E009940F93EC
:102380001F93CF938C01FC016483C085C60F6C2F13
:102390006F700E94B7116C2F62956F706061C801F9
:1023A000CF911F910F910C94B711FC0127812695B5
:1023B00026952695621738F465832385620F67702A
:1023C000606B0C94B71108951F93CF93DF93EC01CA
:1023D000142F8E81681718F4CE010E94BF11612F4F
:1023E000CE01DF91CF911F910C94D511CF92DF9246
:1023F000EF92FF920F931F93CF93DF93EC01F62E92
:10240000C42ED22E8F81869586958695081710F05A
:102410000FEF080F1D2D011780F0412F6F2DCE01FA
:102420000E94E411EF2CCE1430F06F85CE010E9493
:10243000A011E394F8CF1F5FEECF4D2D6F2DCE018D
:10244000DF91CF911F910F91FF90EF90DF90CF9090
:102450000C94E4110F93CF93DF93C7E6D3E01B8670
:102460001A8660E4CE010E94B7110F810695069589
:10247000069501504E81415020E060E0CE010E945F
:10248000F611DF91CF910F9108952F923F924F92C5
:102490005F926F927F928F929F92AF92BF92CF92F4
:1024A000DF92EF92FF920F931F93CF93DF9300D0B1
:1024B00000D01F92CDB7DEB7DC011D962D913C9167
:1024C0002115310509F470C19D838C83F901329681
:1024D000649031964491E42EF12CB7E0EB0EF11CA0
:1024E00053E0F594E7945A95E1F7E98231965491D7
:1024F0003196E491651748F08E2F90E0FC01E50FCE
:10250000F11D6E171F060CF491C06D3029F5EC819A
:10251000FD81868181111AC081E090E00F900F90BB
:102520000F900F900F90DF91CF911F910F91FF901F
:10253000EF90DF90CF90BF90AF909F908F907F9063
:102540006F905F904F903F902F90089560E08C8146
:102550009D810E94BF11E0CF6A3009F025C1AC8196
:10256000BD8116968C911697882321F060E0CD01ED
:102570000E94BF11EC81FD8100890E9DE02C112489
:1025800065816E0D8485882349F0278126952695DF
:1025900026958E2D821B860F18162CF08C819D811E
:1025A0000E94D511B9CFAC81BD811B969C911B9720
:1025B000890F87701B968C931B972E1915962C9359
:1025C00015971D96ED91FC91309771F13396E4913A
:1025D000F0E0379633E0F595E7953A95E1F70E9FF1
:1025E000002D1124EFEFE20F0E0FEC81FD814681EB
:1025F00041506481CF010E94F611AC81BD811C96CF
:102600008C911C97813009F087CF1B966C911B979A
:10261000660F660F660F6F731A966C931A97606455
:10262000CD010E94B71178CF00E0DCCF89010A5FAD
:102630001F4F651BEC81FD8171855089759F502D61
:1026400011245B83F90154912F5F3F4FF9012491CD
:10265000352F2230310508F069C06E9CC0016F9C97
:10266000900D1124689FF001699FF00D11240E0F49
:102670001F1F512CAC81BD811496BC91BA83EC8193
:10268000FD812580862C912CAA24A394B12C312C79
:10269000F9813F1608F086C0412CAC81BD8150966F
:1026A0008C91481608F077C0311002C0442041F0E8
:1026B000EC81FD8145814F5F6A81CF010E94E41169
:1026C000D12CC12CC61408F059C0F801EC0DFD1D29
:1026D0007490552061F0EA14FB0449F4E72DF0E012
:1026E000052C02C0F595E7950A94E2F77E2EAC81A1
:1026F000BD8150968C91823081F4442009F43AC017
:1027000072948FE07822E72DF0E0E454FF4F74904C
:10271000672D8C819D810E94A011672D8C819D81E8
:102720000E94A011EFEFCE1ADE0ACCCF477028E04E
:10273000522E541A411101C0512CF801612C30E085
:1027400020E0661631F04491240F311D63943196D8
:10275000F8CF600E712E711CF3016490E29EF001BF
:10276000E39EF00DF29EF00D11248E0F9F1F080FB7
:10277000191F80CFB72DBF707B2EC5CFD12CFB8109
:10278000DF1639F060E08C819D810E94A011D39406
:10279000F6CF439482CF3394080D191D8FEFA81AFA
:1027A000B80A76CF622DFACE90E080E0B7CE682FDF
:1027B00087E693E00C9445120F931F93CF93DF931A
:1027C0008C01D0E0C0E0F801EC0FFD1F649166239E
:1027D00041F087E693E00E944512892B11F0219683
:1027E000F2CFCE01DF91CF911F910F9108950895FF
:1027F000F89484B7877F84BFE0E6F0E088E18083C7
:10280000108278940895F89484B7877F84BFE0E6B7
:10281000F0E088E1808380918F028083789408952E
:102820009091600080938F0291110C9403140C948A
:10283000F813CF93C82F862F909157019C1302C095
:10284000662329F00E942A12C093570181E0CF919C
:1028500008950F931F93CF93DF93EC01062F142F4E
:102860008A89813120F4882329F0411103C00E9414
:1028700034101A8A8A89811112C0898991E0909353
:10288000FE02809320031092FF021092210360E465
:10289000111101C060E082E293E00E947111602F8B
:1028A00082E293E00E947111123041F48A898F5FB5
:1028B0008A8BDF91CF911F910F9108950E94341060
:1028C0001A8AF7CF089590E080E00895FC01019006
:1028D0000020E9F73197AF01481B590BBC0187E68F
:1028E00093E00C94760E8F929F92AF92BF920F93CB
:1028F0001F93CF93DF93CDB7DEB7A1970FB6F894B0
:10290000DEBF0FBECDBF19A2423008F44AE08E01EF
:102910000F5D1F4F842E912CB12CA12CA501940189
:102920000E944C2AE62FB901CA01EA30F4F4E05DB6
:10293000D801EE938D01232B242B252B79F790E0E2
:1029400080E0109719F0CD010E946614A1960FB691
:10295000F894DEBF0FBECDBFDF91CF911F910F91D5
:10296000BF90AF909F908F900895E95CE1CFCF9298
:10297000DF92EF92FF92CF93DF936C01990FEE08F5
:10298000FF08F7FE17C08DE20E94D713EC016627FF
:102990007727CB016C197D098E099F094AE00E94B7
:1029A00073148C0F9D1FDF91CF91FF90EF90DF90FC
:1029B000CF9008954AE0C701B601DF91CF91FF9013
:1029C000EF90DF90CF900C9473142F923F924F9220
:1029D0005F926F927F928F929F92AF92BF92CF92AF
:1029E000DF92EF92FF920F931F93CF93DF9300D06C
:1029F00000D0CDB7DEB79C838B836A8381E0809360
:102A000077038CE998E10E94450E47E060E087E695
:102A100093E00E94E41180910301882309F47AC0B5
:102A200081E80E94D71325E0298310E000E088EEBA
:102A3000482E83E0582E612C712C8B819C816C0177
:102A4000990FEE08FF0818019FEF291A390A47E08D
:102A5000698187E693E00E94E4112A81211199C0DF
:102A6000C701B6010E9402292CE53FE842E45EE37B
:102A70000E9493294B015C01B801110F880B990B3F
:102A80000E9402299B01AC01C501B4010E948E295C
:102A900018160CF48BC083E80E94D71389818B5FD2
:102AA00089838101843679F647E063E687E693E01F
:102AB0000E94E41184E80E94D7138B819C818436A4
:102AC00091055CF480E20E94D7132B813C812A306F
:102AD00031051CF480E20E94D7138B819C810E94F7
:102AE000B71485E20F900F900F900F90DF91CF9168
:102AF0001F910F91FF90EF90DF90CF90BF90AF901C
:102B00009F908F907F906F905F904F903F902F900D
:102B10000C94D71380910401882309F481CF2B8171
:102B20003C81821713060CF47BCF0E94140F28EE11
:102B300033E040E050E00E944C2A643F7140810540
:102B4000910508F46DCF198247E0698187E693E02B
:102B50000E94E41180E20E94D71339813B5F3983E0
:102B60003A3A91F70F900F900F900F90DF91CF911D
:102B70001F910F91FF90EF90DF90CF90BF90AF909B
:102B80009F908F907F906F905F904F903F902F908D
:102B900008950E94140FA30192010E944C2A643FE1
:102BA00071408105910508F05BCF75CF82E874CF45
:102BB000BC0190E080E04AE00C9473140C9466141D
:102BC0009F92AF92BF92CF92DF92EF92FF920F93BC
:102BD0001F93CF93DF9360E086E00E94191440E0DA
:102BE00060E087E693E00E94E41181E08093770340
:102BF0008091AC029091AD0297FF03C091958195B1
:102C0000910964E670E00E94382A8B01EC016A3079
:102C100071051CF480E20E94D713C8010E94B7140A
:102C20008EE20E94D713CA30D1051CF480E30E94C3
:102C3000D713CE010E94B7148AE195E00E94DC13FD
:102C400080E20E94D7138091AA029091AB0297FF75
:102C500003C091958195910964E670E00E94382A3D
:102C60008B01EC016A3071051CF480E20E94D713DD
:102C7000C8010E94B7148EE20E94D713CA30D10552
:102C80001CF480E30E94D713CE010E94B7148CE19C
:102C900095E00E94DC1380E20E94D7138091A60287
:102CA0009091A702883E934018F480E20E94D713C7
:102CB0008091A6029091A7028436910518F480E2D3
:102CC0000E94D7138091A6029091A7020A9718F448
:102CD00080E20E94D7138091A6029091A7020E94E1
:102CE000D81583E890E00E94DC13C091AE02C45175
:102CF000DD0B41E069E087E693E00E94E41181E8A2
:102D000090E00E94DC138DE391E00E94DE15CA3052
:102D1000D1051CF480E20E94D713CE010E94B714A3
:102D200080E80E94D71381E491E00E94DE1541E023
:102D30006AE487E693E00E94E41181E890E00E9453
:102D4000DC1383E491E00E94DE15C091AF02C45110
:102D5000DD0BCA30D1051CF480E20E94D713CE01EE
:102D60000E94B71480E80E94D71381E491E00E948A
:102D7000DE15C12CD12C7601C8E5D1E008EE13E0B8
:102D800082E0982E9C0C492D65E087E693E00E9436
:102D9000E4114AE0C701B6010E9473148EE391E08A
:102DA0000E94DE1588819981B8010E94382ACB01E2
:102DB0000E94B7148EE20E94D71388819981B801CE
:102DC0000E94382A5C0184E6A816B10454F480E31A
:102DD0000E94D7132AE0A216B1041CF480E30E94DB
:102DE000D713C5010E94B7148AE195E00E94DC1355
:102DF000492D66E487E693E00E94E411C60105963A
:102E00000E94B7148EE391E00E94DE158A859B85AF
:102E1000B8010E94382ACB010E94B7148EE20E94AA
:102E2000D7138A859B85B8010E94382A5C0184E605
:102E3000A816B10454F480E30E94D7132AE0A21626
:102E4000B1041CF480E30E94D713C5010E94B7149B
:102E50008AE195E00E94DC1322968FEFC81AD80A07
:102E6000E80AF80A25E0C216D104E104F10409F0E9
:102E700087CFDF91CF911F910F91FF90EF90DF905F
:102E8000CF90BF90AF909F900895CF93DF930E9413
:102E9000DC13EC0187E491E00E9466148C0F9D1F07
:102EA000DF91CF9108950E948E2A85ED8093BC001A
:102EB0008091FA029091FB02A091FC02B091FD0278
:102EC0000796A11DB11D23E0B695A7959795879507
:102ED0002A95D1F72091BC0024FD03C01092F8027E
:102EE00008954091FA025091FB026091FC027091AA
:102EF000FD02452B462B472B69F30097A105B10531
:102F000041F025E32A95F1F700000197A109B109E5
:102F1000E1CF8091F9020C9413100C944228EF92A7
:102F2000FF920F931F93CF93DF9381E0809342032F
:102F300088E0809343038AE0809344038EE080938B
:102F4000450384E080934703E091CD01F0E0E25D2A
:102F5000FC4FC489CF3008F06FC080912E038111DF
:102F60006BC0D0E0FE01E555FF4FE49110E000E0BA
:102F70009AE8E92E90E0F92EE130B9F0E23029F03C
:102F800010E000E0F12CE12C10C0E093CA01809128
:102F90009F028093CB018091A0028093CC010AEC28
:102FA00011E087E8E82E80E0F82E42E050E06AEB7E
:102FB00070E080E393E00E94392843E050E0B701DD
:102FC00082E393E00E943928BE0164567F4F41E0BE
:102FD00050E085E393E00E943928BE0163577F4F9C
:102FE00041E050E086E393E00E94392887E393E0D4
:102FF0000115110551F083E0F801A7E3B3E001905A
:103000000D928A95E1F78AE393E082539340282F4B
:1030100080932F03E2E3F3E08FEF9FEF222329F069
:103020003191831B91092150F9CF909341038093F3
:10303000400381E080932E038091CD018F5F8093C8
:10304000CD0190914703891710F01092CD01DF91C7
:10305000CF911F910F91FF90EF9008950F931F93C1
:10306000CF93DF9328E831E03093C9012093C80162
:1030700080918701813089F1A0F0823009F43CC150
:103080008091870190917701981709F438C1809356
:10309000770181E080930001DF91CF911F910F9123
:1030A000089588E493E00E94950F02974CF388E41A
:1030B00093E00E94AD0F8535910599F788E493E080
:1030C0000E94200F8A3A910561F788E493E00E94FC
:1030D000AD0F81E080938701D3CF809100018823D9
:1030E00009F1C3E8D1E084E0FE0111928A95E9F785
:1030F0003093820120938101109280010E94140F6D
:1031000060937C0170937D0180937E0190937F0199
:10311000D0937B01C0937A018FEF9FEF9093790159
:103120008093780180918001803410F082E0D2CFCA
:103130000E94140F00917C0110917D0120917E016D
:1031400030917F01601B710B820B930B6530710511
:103150008105910558F788E493E00E94950FC0918E
:103160008001892B59F188E493E00E94AD0FCF5F75
:10317000C0938001C53008F0C5C0E0917A01F0919C
:103180007B019F012F5F3F4F30937B0120937A019A
:1031900080832091780130917901281B3109309387
:1031A0007901209378010E94140F60937C01709341
:1031B0007D0180937E0190937F01CDCF209183018B
:1031C0004C2F4450550B2417150609F059CFE091A8
:1031D0008101F0918201329720917801309179013B
:1031E000808191812817390709F0A0CFC6508091BE
:1031F000860190918401933209F447C0953209F415
:1032000067C09032A9F5811133C080918501853660
:1032100079F580912E03813019F580917601811125
:103220001FC08091C1008F7E8093C10040912F0309
:1032300050E04E5F5F4F60E373E088E493E00E94EC
:10324000760E42E050E060E473E088E493E00E9490
:10325000760E8091C10080618093C10010922E0390
:103260004C2F50E068E871E08EE992E00E94932ACA
:1032700080918601813329F0803B19F08A3309F06F
:1032800055CF81E08093D10251CF8A3371F0803BDA
:1032900079F780E2E8E8F1E0A0EBB2E0C03241F774
:1032A00001900D928A95E1F7E3CFC43009F7809140
:1032B000880190918901A0918A01B0918B0180933E
:1032C000900290939102A0939202B0939302D0CF78
:1032D000813351F0803461F68EE1E8E8F1E0A8E551
:1032E000B1E0CE3129F6DCCFCA3011F68AE0E8E849
:1032F000F1E0A6EAB2E0D4CF10928701C1CE1092DD
:103300000001CACEE0918101F09182019F012F5FFF
:103310003F4F30938201209381018083209183016C
:1033200030E02E5F3F4FC217130609F00CF431CF87
:103330003ACFFF920F931F93CF93DF93EC01F62EBA
:1033400008811981C8010E944228F81621F06F2DCA
:10335000C8010E944A28CE01DF91CF911F910F91A1
:10336000FF9008950F931F93CF93DF9300D0CDB7B5
:10337000DEB78B019A838983FB016081CE010196C0
:103380000E949919C8010F900F90DF91CF911F9162
:103390000F9108950F931F93CF93DF9300D0CDB774
:1033A000DEB78B019A838983FB016081CE01019690
:1033B0000E949919C8010F900F90DF91CF911F9132
:1033C0000F9108951F920F920FB60F9211242F9311
:1033D0003F938F939F93AF93BF9380917B02909184
:1033E0007C02A0917D02B0917E0230917A0223E0AE
:1033F000230F2D3758F50196A11DB11D20937A0298
:1034000080937B0290937C02A0937D02B0937E0216
:1034100080917F0290918002A0918102B0918202FE
:103420000196A11DB11D80937F0290938002A0930D
:103430008102B0938202BF91AF919F918F913F9192
:103440002F910F900FBE0F901F90189526E8230F15
:103450000296A11DB11DD2CF1F920F920FB60F92EF
:1034600011242F933F934F935F936F937F938F9389
:103470009F93AF93BF93EF93FF93E0918502F091F9
:103480008602309749F0A685B7858585968D91FF90
:1034900014C09C918923A1F4FF91EF91BF91AF914A
:1034A0009F918F917F916F915F914F913F912F915C
:1034B0000F900FBE0F901F9018959C91892361F774
:1034C000A389B4899C918589809589238C93868969
:1034D00097890197F1F7608D718DA685B785558520
:1034E00038E020E0CB010197F1F7822F90E095952D
:1034F0008795282F4C91452309F02068315091F78A
:10350000868D81FD20958091840290E001968F73D5
:10351000992730918302381799F0A0918402B0E086
:10352000A65CBD4F2C9380938402828D938D01976E
:10353000F1F7A389B4898C919589892B8C93ACCFB1
:10354000868D8160868FF1CF1F920F920FB60F92FA
:1035500011242F933F934F935F936F937F938F9398
:103560009F93AF93BF93EF93FF938091B900887FB0
:10357000803609F44AC0F0F5883209F4A7C018F57E
:10358000803109F49BC0B8F4882309F4F9C088306D
:1035900009F494C0FF91EF91BF91AF919F918F91EA
:1035A0007F916F915F914F913F912F910F900FBE3F
:1035B0000F901F901895883109F488C0803251F718
:1035C0008093F60214C0803409F49DC040F4803327
:1035D000B9F38833F9F68093F60285ECB0C08035F4
:1035E00009F485C0883509F496C0883499F60E949C
:1035F0005517D0CF883909F48CC038F5883729F0B1
:1036000050F4883611F0803729F683E08093F80271
:103610001092390257C0883809F47BC0803919F0FC
:10362000803809F0B7CF80913902803208F071C03C
:10363000E091390281E08E0F809339028091BB00C6
:10364000F0E0E75EFD4F80833DC0803B39F0E0F461
:10365000803A09F479C0883A09F09CCF84E08093DD
:10366000F8021092180210921702E0918902F0916C
:103670008A0209958091170281110FC081E0809321
:1036800017021092F70109C0803C09F4A6CF883CCC
:1036900009F4A3CF883B09F07DCFE091180281E0C7
:1036A0008E0F80931802F0E0E950FE4F80818093E6
:1036B000BB00909118028091170229C08091D3021B
:1036C0008093BB0085EC8093BC0064CF9091F502A1
:1036D0008091F402981758F5E091F50281E08E0F81
:1036E0008093F502F0E0EC52FD4F8081E9CFE0914C
:1036F000F50281E08E0F8093F5028091BB00F0E02F
:10370000EC52FD4F80839091F5028091F40298175E
:10371000C8F285E8D8CFE091F50281E08E0F809362
:10372000F5028091BB00F0E0EC52FD4F8083809168
:10373000F70281115CCF81E08093D20284EA80930A
:10374000BC001092F80226CF85EC8093BC0010924A
:10375000F80280913902803230F4E0913902F0E0D1
:10376000E75EFD4F10826091390270E0E0918702C0
:10377000F091880289E192E00995109239020ACF0E
:103780001092F60234CF1F920F920FB60F921124AF
:103790002F933F934F935F936F937F938F939F9359
:1037A000AF93BF93EF93FF932091D4013091D50154
:1037B00080918D0290918E0228173907D0F4809164
:1037C000D4019091D50101969093D5018093D401B5
:1037D000FF91EF91BF91AF919F918F917F916F91E9
:1037E0005F914F913F912F910F900FBE0F901F90BF
:1037F00018951092D5011092D401E0910101F09139
:1038000002010995E5CF94E09093CE0190E2909368
:10381000CF0193E09093D001833009F45BC078F43A
:103820008130B1F0823009F44FC08CE78093D10130
:1038300081E090E09093D3018093D20110C0853055
:1038400009F44CC008F448C0863079F78BE73DC0D6
:103850008CE78093D1011092D3011092D20142E003
:1038600050E06AEB70E080E393E00E94392886E044
:10387000EEECF1E0A2E3B3E001900D928A95E1F75E
:1038800086E080932F038091320390E0809590959D
:1038900020913303821B910920913403821B9109EB
:1038A00020913503821B910920913603821B9109D7
:1038B00020913703821B9109909341038093400329
:1038C00081E080932E0308958DE78093D10182E0FB
:1038D00090E0B0CF8DE7BDCF8BE7BBCF8BE7A6CF16
:1038E0000F931F93CF93DF9310922503109224031D
:1038F00088EE93E0A0E0B0E0809326039093270346
:10390000A0932803B09329032FE031E030932303E1
:1039100020932203EAE7F3E02FE0EF0119922A95C2
:10392000E9F710928A031092890310926A031092A9
:10393000690310927303109275031092740310922E
:10394000760361E06093770323E331E0309368030B
:103950002093670310924B0310924A0380934C0309
:1039600090934D03A0934E03B0934F0381E291E0F7
:10397000909349038093480310925F0310925E0373
:10398000109261031092600310926303109262031D
:103990001092650310926403809166038E7F8D7F81
:1039A000809366038695817068278CE00E94A30E41
:1039B00043E25CE1FA0164918FE09CE1FC01249117
:1039C000222399F030E0220F331FF901E151F44E28
:1039D000A591B491F901E750F44E259134912FB798
:1039E000F8943C91632B6C932FBFFA014491409360
:1039F0005803FC018491E82FF0E0EE0FFF1FE75021
:103A0000F44E8591949190935A038093590302E266
:103A10001CE1F8012491CEE0DCE1FE0184918823D1
:103A2000C9F090E0880F991FFC01E151F44EA59177
:103A3000B491FC01E750F44E459154913FB7F8948E
:103A40009C91822F809598239C93FA0190818923E1
:103A500080833FBF8091660381FD04C061E08BE0FD
:103A60000E94A30E8BE080935403F801049100930D
:103A70005503FE01C491EC2FF0E0EE0FFF1FEB5158
:103A8000F44E85919491909357038093560310922E
:103A90004703DF91CF911F910F910895CF93DF934B
:103AA000CDB7DEB72A970FB6F894DEBF0FBECDBFF5
:103AB000789484B5826084BD84B5816084BD85B509
:103AC000826085BD85B5816085BD80916E00816015
:103AD00080936E00109281008091810082608093BB
:103AE00081008091810081608093810080918000BD
:103AF0008160809380008091B10084608093B100E8
:103B00008091B00081608093B00080917A008460E1
:103B100080937A0080917A00826080937A0080910D
:103B20007A00816080937A0080917A008068809327
:103B30007A001092C10010926303109262031092F7
:103B400061031092600310925F0310925E038FE195
:103B500090E09093650380936403909154039631B1
:103B600008F047C021E030E030935F0320935E030C
:103B70002DE130E030936103209360032DE030E0CD
:103B800030936303209362032091680084E09830AF
:103B900048F031E09E3008F430E081E001C0880F49
:103BA0003A95EAF7822B809368002DE630E0983052
:103BB00050F02BE630E09E3030F02CE630E09631CD
:103BC00010F030E020E030935C0320935B03292F5A
:103BD00030E0983008F0CFC081E001C0880F9A959E
:103BE000EAF780935D0380916403909165030197E8
:103BF000F1F78091620390916303892B49F1E09181
:103C00008502F091860223E0E834F20709F130974B
:103C100039F0A389B4899C918589809589238C93F7
:103C2000809166038E7F80936603109284021092C7
:103C3000830288E493E09093860280938502E0916A
:103C40005B03F0915C03808190915D03892B8083FD
:103C500090E080E00E948D17803809F099C081E0E3
:103C600090E00E948D1791E0811101C090E0909347
:103C7000050182E090E00E948D178093040183E0AB
:103C800090E00E948D178093940284E090E00E945F
:103C90008D1791E0811101C090E09093030185E0C0
:103CA00090E00E948D1791E0811101C090E0909307
:103CB0000A0186E090E00E948D1791E0811101C019
:103CC00090E09093970287E090E00E948D1791E03A
:103CD000811101C090E09093960288E090E00E94EC
:103CE0008D178093950210928C0210928B02109285
:103CF000FF02109221030E94F50F84E79EE090934B
:103D00008A028093890285E79EE0909388028093DF
:103D100087028CE08093B800109279038CE3809343
:103D2000780310926B0310926C03EDE0F5E085913F
:103D30009491E82EEFE0F5E0F490E0E1F5E0E49115
:103D4000E0936D03E1E1F5E0E491E0936E03E2E1DD
:103D5000F5E0E491E0936F038C01802F8E198F15AD
:103D600008F057C0F801649187E693E00E94B7110C
:103D70000F5F1F4FF2CF9E3040F42850310981E091
:103D800001C0880F2A95EAF72CCF2E503109F7CFC2
:103D90001A82198260E8CE0101960E94991981E089
:103DA00090E09A83898360E0CE0101960E94991980
:103DB00065E071E081E090E00E94CA1964E071E082
:103DC00082E090E00E94B21964E972E083E090E042
:103DD0000E94B21963E071E084E090E00E94CA1989
:103DE0006AE071E085E090E00E94CA1967E972E03C
:103DF00086E090E00E94CA1966E972E087E090E0F0
:103E00000E94CA1965E972E088E090E00E94B21948
:103E10006ACF0E942A1287E091E00E94450E61E07D
:103E200080E00E94191440E060E087E693E00E9481
:103E3000E41180E20E94D7138CE998E10E94450EBC
:103E40000E94140F6B017C01F0EDCF0EF7E0DF1E36
:103E5000E11CF11C4B015C0128EE820E23E0921E56
:103E6000A11CB11C0E94140F6C157D058E059F05C9
:103E700058F40E942E1880912E03811102C00E94D6
:103E80008F170E94570EEECF0E94140F2091AA02A6
:103E90003091AB02681579058A059B0588F4232BC0
:103EA00089F08091AC029091AD02892B21F0809134
:103EB000A8028111DECF60E081E00E9419142CC0BD
:103EC000232BC9F78091AC029091AD02892B99F711
:103ED0008091A8028111EFCF60E081E00E94191467
:103EE00082E08093770340E060E087E693E00E9401
:103EF000E4118FEF90E00E94451784EF90E00E945C
:103F0000451789EE90E00E94451780EE90E00E94F0
:103F1000451781E0809377031092D00210928E02B1
:103F200010928D0285E40E94101480918F028111FD
:103F30000E94031487E69EE09093020180930101A2
:103F4000332433940E942E1880912E03811102C0D5
:103F50000E948F178091D102813009F08AC210929D
:103F6000D102C090BA02D090BB0280EFC81688ED93
:103F7000D8060CF05FC00D2C000CEE08FF089FEF78
:103F8000C90ED91EE11CF11C80910A01882309F495
:103F90005BC0AAE0B0E0A70196010E94742A0E94CB
:103FA000022920E030E048E051E40E9458280E94B5
:103FB000CA286B837C838D839E838B819C81AD819A
:103FC000BE81B7FF0BC0B095A095909581959F4F8E
:103FD000AF4FBF4F8B839C83AD83BE836B817C814E
:103FE0008D819E8128EE33E040E050E00E944C2A13
:103FF00029013A010091AA021091AB022090AC0273
:104000009091AD029F83A2E04A16510461047104AD
:10401000F0F08091A502882331F01092A402109252
:10402000A3021092A50229ECC216D104E104F10406
:10403000ACF067C0D7FE03C0D194C194D1080D2C59
:10404000000CEE08FF08A0CFB601C701B2CFB9EC53
:10405000CB16D104E104F1040CF04FC02091A00272
:1040600088248394912C233850F481E090E022330B
:1040700010F090E080E088249924881A990A209111
:104080009F02273908F058C781E090E0223310F0F2
:1040900090E080E0AA24BB24A81AB90A8091A30268
:1040A000882309F415C2E1E0AE16B10409F05AC044
:1040B0008091060190910701019709F453C0FFEF29
:1040C0008F169F0609F04EC080910801909109015A
:1040D000019609F086C0E0919802E83008F081C0AE
:1040E000F0E0EB58FF4D0C946E2ADD20E9207221A0
:1040F0007C2184219A21A621B0218091A5028111E1
:10410000ADCF80910301811187C4C60168EE73E0D1
:104110000E94242A64E670E00E94242A7A87698734
:10412000C80117FF04C088279927801B910B64E6FC
:1041300070E00E94382A4B015C0122E042165104D3
:104140006104710408F099C40C391F4F0CF012C6B9
:1041500029ECC216D104E104F1040CF00BC60E9454
:10416000E01512C581E088169104D9F58091080107
:10417000909109010197A9F1FFEFAF16BF0689F5EC
:104180008091060190910701019659F5809198025E
:10419000873008F002C18F5F809398020E94140F4D
:1041A0006053784F8F4F9F4F6093990270939A029C
:1041B00080939B0290939C0214C080919702832568
:1041C0008093970267E972E086E090E00E94CA1946
:1041D00008C080919702882309F482C080E00E9481
:1041E000031C60E087E00E9419148111109298026C
:1041F0003092770340E060E087E693E00E94E411AC
:10420000809198028111CCC08EE70E94D71384ED73
:104210009BE10E94DC1380919702882309F4C5C0BA
:1042200080ED9BE10E94DC1341E060E087E693E0D3
:104230000E94E41180919802813009F0B9C08EE7A4
:104240000E94D7138EEB9BE10E94DC1342E060E0FA
:1042500087E693E00E94E41180919802823009F091
:10426000ACC08EE70E94D7138DEA9BE10E94DC135D
:1042700080919602882309F4A5C089EA9BE10E94F7
:10428000DC1343E060E087E693E00E94E411809154
:104290009802833009F099C08EE70E94D71385E910
:1042A0009BE10E94DC1344E060E087E693E00E941B
:1042B000E41180919802843009F08CC08EE70E944E
:1042C000D71387E89BE10E94DC138091950281302F
:1042D00009F485C0823009F4E6C082E79BE181C021
:1042E00081E07DCF8091960283258093960266E9D6
:1042F00072E087E090E06ACF80919602882311F007
:1043000082E06DCF83E06BCF80919502813029F000
:10431000823069F03092950203C082E0809395026A
:1043200065E972E088E090E00E94B2195ACF1092DD
:104330009502F6CF80919502813021F0823021F0F4
:1043400084E04DCF85E04BCF86E049CF80910A01D4
:10435000832580930A016AE071E085E090E036CF22
:10436000AFEFBFEFB0930901A0930801E1E0F0E0E7
:10437000F0930701E09306010E94140F6053784FF9
:104380008F4F9F4F6093990270939A0280939B0284
:1043900090939C021092A30224CF10929802FECE1A
:1043A0008FE391E00E94DE1532CF8CEC9BE13ACF97
:1043B0008FE391E00E94DE1545CF8FE391E00E94EC
:1043C000DE1552CF85EA9BE15ACF8FE391E00E9440
:1043D000DE1565CF8FE391E00E94DE1572CF80E895
:1043E0009BE10E94DC1345E060E087E693E00E94D9
:1043F000E41180919802853009F058C08EE70E9440
:10440000D71386E69BE10E94DC1346E060E087E676
:1044100093E00E94E41180919802863009F04BC02D
:104420008EE70E94D71385E59BE10E94DC13809103
:104430000A01882309F444C08FE49BE10E94DC1345
:1044400047E060E087E693E00E94E41180919802E3
:104450008730C9F58EE70E94D71384E49BE10E9460
:10446000DC139092090180920801B0920701A0929A
:1044700006010E94570E80918903813009F454C5CA
:104480001092890380918A03813009F451C51092FA
:104490008A031092D002E0E0F0E0EF2B09F452CD55
:1044A0000E9400004DCD89E79BE19BCF8FE391E017
:1044B0000E94DE15A6CF8FE391E00E94DE15B3CFF8
:1044C00089E49BE1BBCF8FE391E00E94DE15C5CF6D
:1044D0008091A4028823C1F181E08816910481F4BF
:1044E0008091080190910901019751F09FEFA91661
:1044F000B90631F48091060190910701019659F0B7
:104500000E94E01547E060E087E693E00E94E41136
:104510008EE29BE1A4CF9092090180920801B092B3
:104520000701A09206010E94140F6053784F8F4F2D
:104530009F4F6093990270939A0280939B0290938D
:104540009C021092A40295CF8091A502882309F4C1
:10455000A3C1B1E08B16910409F046C58091080112
:1045600090910901019709F011C5EFEFAE16BE0653
:1045700009F00CC58091060190910701019609F0A0
:1045800009C5C0909902D0909A02E0909B02F090E9
:104590009C02C114D104E104F10409F4FBC40E949B
:1045A000140FC616D706E806F90608F0F3C41092F1
:1045B000A5025FCFB1E08B16910409F4EBC460E073
:1045C00082E00E9419143092770340E060E087E6B1
:1045D00093E00E94E41180919D0281111BC18EE73E
:1045E0000E94D7138CE19BE10E94DC1380910501AE
:1045F000882309F414C189EA9BE10E94DC1341E09D
:1046000060E087E693E00E94E41180919D02813092
:1046100009F008C18EE70E94D7138EE09BE10E944B
:10462000DC1380919402823009F401C1833009F4D3
:1046300001C1813009F001C186E09BE10E94DC13D9
:1046400042E060E087E693E00E94E41180919D02E1
:10465000823009F0F5C08EE70E94D7138CED9AE105
:104660000E94DC13809104018A3009F4EEC08F307F
:1046700009F4EEC0853009F0EEC08AE491E00E94B2
:10468000DE1543E060E087E693E00E94E41180914C
:104690009D02833009F0E4C08EE70E94D7138AECB4
:1046A0009AE10E94DC1380910301882309F4DDC0A4
:1046B00089EA9BE10E94DC1344E060E087E693E036
:1046C0000E94E41180919D02843009F0D1C08EE7F0
:1046D0000E94D7138DEB9AE10E94DC1345E060E065
:1046E00087E693E00E94E41180919D02853009F0F5
:1046F000C4C08EE70E94D7138EEA9AE10E94DC13B1
:1047000046E060E087E693E00E94E41110E046E0B6
:10471000612F87E693E00E94E4118DE20E94D71397
:104720001B5F1D37A1F747E060E087E693E00E943A
:10473000E41180919D02863009F0A4C08EE70E94AA
:10474000D71380EA9AE10E94DC1348E060E087E634
:1047500093E00E94E41180919D02873009F097C098
:104760008EE70E94D7137DCE80910501832580932B
:10477000050125CF80919402813049F028F08230E4
:1047800051F0109294021BCF3092940218CF82E025
:104790008093940214CF83E0FBCF80910401853095
:1047A00041F08A3041F0811108C085E08093040116
:1047B00006CF8AE0FBCF8FE0F9CF10920401FFCE45
:1047C00080910301832580930301F9CE3092A402E6
:1047D000F6CE3092A302F3CE65E071E081E090E086
:1047E0000E94CA1964E071E082E090E00E94B21970
:1047F00064E972E083E090E00E94B21963E071E046
:1048000084E090E00E94CA191092A502D8CE1092BE
:104810009D02DBC38FE391E00E94DE15E3CE85EAC3
:104820009BE1EBCE8FE391E00E94DE15F6CE8EEF9A
:104830009AE104CF86EF9AE101CF8EEE9AE1FECEA7
:104840008FE391E00E94DE1509CF8EE491E017CF4F
:1048500082E591E014CF8CEC9BE10E94DC1311CF38
:104860008FE391E00E94DE151ACF85EA9BE122CF0B
:104870008FE391E00E94DE152DCF8FE391E00E943F
:10488000DE153ACF8FE391E00E94DE155ACF8FE319
:1048900091E00E94DE15E5CD21E0A216B10481F47D
:1048A0008091060190910701019751F08FEF8816D2
:1048B000980631F48091080190910901019649F020
:1048C0009092090180920801B0920701A09206011E
:1048D00018CC60E083E00E941914309277038CE9D1
:1048E00098E10E94450E40E060E087E693E00E9478
:1048F000E4118DE898E10E94DC138AE30E94D7134B
:104900008BE696E10E94450E41E06FE087E693E07A
:104910000E94E4116091BE027091BF028091C002BA
:104920009091C10228EE33E040E050E00E944C2A12
:10493000290189012AE030E040E050E00E944C2A41
:1049400069015901B8EE4B16B3E05B067CF480E2D6
:104950000E94D713043611054CF480E20E94D7134D
:104960000A3011051CF480E20E94D713C2010E9494
:10497000B7148EE20E94D713EAE0AE16B1041CF41D
:1049800080E30E94D713C6010E94B7148CE998E116
:104990000E94450E88E696E10E94DC1345E060E047
:1049A00087E693E00E94E4118AE596E10E94DC1319
:1049B0008AE30E94D7138BE696E10E94450E46E0FB
:1049C0006FE087E693E00E94E4118091900290915D
:1049D00091026CE370E00E94242A8B017C01643612
:1049E000710548F480E20E94D7130A30110518F4CB
:1049F00080E20E94D713C8010E94B7148AE30E9484
:104A0000D713FAE0EF16F10418F480E30E94D713ED
:104A1000C7010E94B7142DCD80910401882309F4A9
:104A200074CB9091A802891708F46FCB0E94140FE1
:104A300020ED37E040E050E00E944C2A6C3B724091
:104A40008105910508F061CB60E084E00E941914B3
:104A5000882309F40ECD84E59EE00E94450E40E0D7
:104A600060E087E693E00E94E41181E20E94D713A0
:104A70008CE998E10E94450EFCCC809105018823C9
:104A800009F462CB60E085E00E941914309277034C
:104A900080919402823009F482C0833009F4F7C017
:104AA000813009F01EC18EE195E00E94450EC401DF
:104AB0006AE070E00E94242A8B017C0140E062E001
:104AC00087E693E00E94E4110115110509F440C046
:104AD000C8010E94B71440E060E287E693E00E94BC
:104AE000E411C7010E94B71440E06BE487E693E04D
:104AF0000E94E411C5016AE070E00E94242A8C0142
:104B0000CB010E94B71440E06CE687E693E00E9478
:104B1000E4118BE696E10E94450EC8010E94B7148D
:104B20008CE998E10E94450E8091AA029091AB0217
:104B300097FD12C082E08093770344E06CE687E63D
:104B400093E00E94E4118CE195E00E94DC1311C017
:104B50008BE30E94D713BFCF0E94140F28EE33E0DF
:104B600040E050E00E944C2A643F7140810591056D
:104B700008F33092770345E060E487E693E00E9413
:104B8000E41185E80E94D7136091AB02661F662787
:104B9000661F8091A80290E00E94E5146ACC022D65
:104BA0001F8117FF03C0119501951109C80164E623
:104BB00070E00E94382A7B018EE195E00E94450E4C
:104BC000C7016AE070E00E94242A7B016C0140E08A
:104BD00062E087E693E00E94E411E114F10409F435
:104BE00044C0C7010E94B714C80164E670E00E9487
:104BF000382A8C0140E063E287E693E00E94E411EA
:104C0000C6010E94B71440E06BE487E693E00E947F
:104C1000E411C8016AE070E00E94242A8C01CB01F3
:104C20000E94B71440E06CE687E693E00E94E4112E
:104C30008BE696E10E94450EC8010E94B7148CE9EC
:104C400098E10E94450E8091AA029091AB0297FDD7
:104C500010C082E08093770344E06CE687E693E03F
:104C60000E94E4118AE195E070CF8BE30E94D71394
:104C7000BBCF0E94140F28EE33E040E050E00E94CA
:104C80004C2A643F71408105910518F372CF8EE183
:104C900095E00E94450E40E06EE187E693E00E94B9
:104CA000E4118091C6029091C7026AE070E00E9410
:104CB000382ACB010E94B7148CE998E10E94450E76
:104CC00082E08093770344E06CE687E693E00E94FD
:104CD000E41180E80E94D71388E195E00E94DC137C
:104CE00053CF8EE195E00E94450E6B817C818D81D2
:104CF0009E8120E137E240E050E00E944C2A6901A9
:104D0000C301B2012AE030E040E050E00E944C2AAA
:104D10002B0140E062E087E693E00E94E4111C145E
:104D20001D0424F5C6010E94B71440E060E287E646
:104D300093E00E94E411C2010E94B71440E06BE4CA
:104D400087E693E00E94E41189859A850E94D81530
:104D500040E06AE687E693E00E94E4118AE30E945D
:104D6000D7138CE998E10E94450E03CF8BE30E9494
:104D7000D713DBCF60E080E00E9419148091C2025B
:104D80009091C30264E670E00E94242A6B017C01CA
:104D900080919202909193026CE370E00E94242A29
:104DA0007C836B838C018091C6029091C7026AE07C
:104DB00070E00E94382A78876F83309277038BE601
:104DC00096E10E94450E40E060E087E693E00E9495
:104DD000E4118AE0481651046104710418F480E279
:104DE0000E94D7134AE0C301B2010E9473148EE2FD
:104DF0000E94D71389859A850E94D8158CE998E17D
:104E00000E94450E83E195E00E94DC138BE696E15B
:104E10000E94450E40E06FE587E693E00E94E411B2
:104E2000AF81B8851A9718F480E20E94D7138F815A
:104E300098850E94D8158CE998E10E94450E80E87B
:104E40000E94D71388E195E00E94DC138BE696E17F
:104E50000E94450E42E060E087E693E00E94E41184
:104E6000BAE0CB16D10418F480E20E94D713C60131
:104E70000E94D8158EE20E94D713EAE0EE16F104E4
:104E800018F480E30E94D713C7010E94D8158CE95B
:104E900098E10E94450E88E696E10E94DC138BE6BD
:104EA00096E10E94450E44E060E087E693E00E94B0
:104EB000E4118B819C810A9718F480E30E94D71338
:104EC0008B819C810E94D8158AE30E94D7130A30F7
:104ED000110518F480E30E94D713C8010E94D81569
:104EE00044E064E487E693E00E94E4119AE08916C6
:104EF00091041CF480E20E94D713C4010E94D815CB
:104F00008EE20E94D713AAE0AA16B1041CF480E333
:104F10000E94D713C5010E94D8158CE998E10E9420
:104F2000450E8CE195E0DACE82E080938903AACA2F
:104F300082E080938A03ADCAF1E08F16910411F5E7
:104F40008091A50281111EC08091080190910901F4
:104F5000019731F48091060190910701019791F03A
:104F600010929D020E94140F6053784F8F4F9F4FF5
:104F70006093990270939A0280939B0290939C0293
:104F80003092A502AA24A394B12C88C881E0A81667
:104F9000B10479F18091080190910901019709F418
:104FA0000ECBEFEFAE16BE0609F009CB80910601DD
:104FB00090910701019609F002CB80919D02863005
:104FC00008F025CC8F5F80939D020E94140F6053E0
:104FD000784F8F4F9F4F6093990270939A028093FE
:104FE0009B0290939C02EBCA91E0A916B10409F0D0
:104FF000E6CA8091060190910701019709F4DACA87
:105000002FEF8216920609F0D5CA8091080190917F
:105010000901019609F0D3CAE0919D02E73008F03A
:10502000CECAF0E0EA5EF74D0C946E2AB423BA23A0
:10503000CD23E023E623E923EC2381E291E0909362
:105040004903809348038091850290918602885499
:10505000934071F4E0915B03F0915C039081809147
:105060005D038095892380831092860210928502C9
:105070000895FB01DC0102C005900D9241505040A3
:10508000D8F70895F999FECF92BD81BDF89A992776
:1050900080B50895262FF999FECF1FBA92BD81BD24
:1050A00020BD0FB6F894FA9AF99A0FBE01960895AA
:1050B0000E946C280C9454290E944D2958F00E949B
:1050C000462940F029F45F3F29F00C943D29511105
:1050D0000C9488290C9443290E94652968F399232C
:1050E000B1F3552391F3951B550BBB27AA276217E4
:1050F0007307840738F09F5F5F4F220F331F441FF1
:10510000AA1FA9F335D00E2E3AF0E0E832D0915024
:105110005040E695001CCAF72BD0FE2F29D0660F11
:10512000771F881FBB1F261737074807AB07B0E854
:1051300009F0BB0B802DBF01FF2793585F4F3AF05A
:105140009E3F510578F00C943D290C9488295F3FCF
:10515000E4F3983ED4F3869577956795B795F795E0
:105160009F5FC9F7880F911D9695879597F90895C8
:10517000E1E0660F771F881FBB1F62177307840764
:10518000BA0720F0621B730B840BBA0BEE1F88F773
:10519000E09508950E94D1286894B1110C94882953
:1051A00008950E946D2988F09F5798F0B92F99278C
:1051B000B751B0F0E1F0660F771F881F991F1AF002
:1051C000BA95C9F714C0B13091F00E948729B1E0B7
:1051D00008950C948729672F782F8827B85F39F0B6
:1051E000B93FCCF3869577956795B395D9F73EF49B
:1051F00090958095709561957F4F8F4F9F4F089543
:10520000E89409C097FB3EF4909580957095619560
:105210007F4F8F4F9F4F9923A9F0F92F96E9BB2716
:105220009395F695879577956795B795F111F8CF92
:10523000FAF4BB0F11F460FF1BC06F5F7F4F8F4FFD
:105240009F4F16C0882311F096E911C0772321F0F3
:105250009EE8872F762F05C0662371F096E8862F8B
:1052600070E060E02AF09A95660F771F881FDAF7E2
:10527000880F9695879597F9089597F99F6780E825
:1052800070E060E008959FEF80EC089500240A9498
:105290001616170618060906089500240A94121611
:1052A0001306140605060895092E0394000C11F444
:1052B000882352F0BB0F40F4BF2B11F460FF04C0F1
:1052C0006F5F7F4F8F4F9F4F089557FD9058440F4A
:1052D000551F59F05F3F71F04795880F97FB991F55
:1052E00061F09F3F79F08795089512161306140612
:1052F000551FF2CF4695F1DF08C01616170618069F
:10530000991FF1CF86957105610508940895E89479
:10531000BB2766277727CB0197F908950E94002ABB
:1053200008F48FEF08950E94A6290C9454290E9436
:10533000462938F00E944D2920F0952311F00C9455
:105340003D290C94432911240C9488290E94652935
:1053500070F3959FC1F3950F50E0551F629FF001C8
:10536000729FBB27F00DB11D639FAA27F00DB11DE1
:10537000AA1F649F6627B00DA11D661F829F22276A
:10538000B00DA11D621F739FB00DA11D621F839FF1
:10539000A00D611D221F749F3327A00D611D231FC7
:1053A000849F600D211D822F762F6A2F11249F5715
:1053B00050409AF0F1F088234AF0EE0FFF1FBB1F18
:1053C000661F771F881F91505040A9F79E3F5105D7
:1053D00080F00C943D290C9488295F3FE4F3983EBB
:1053E000D4F3869577956795B795F795E7959F5F81
:1053F000C1F7FE2B880F911D9695879597F9089513
:10540000990F0008550FAA0BE0E8FEEF16161706D5
:10541000E807F907C0F012161306E407F50798F03D
:10542000621B730B840B950B39F40A2661F0232B56
:10543000242B252B21F408950A2609F4A140A695D2
:105440008FEF811D811D0895AA1BBB1B51E107C071
:10545000AA1FBB1FA617B70710F0A61BB70B881F04
:10546000991F5A95A9F780959095BC01CD01089593
:1054700097FB072E16F4009407D077FD09D00E9401
:10548000242A07FC05D03EF4909581959F4F0895FE
:10549000709561957F4F0895A1E21A2EAA1BBB1B40
:1054A000FD010DC0AA1FBB1FEE1FFF1FA217B307F0
:1054B000E407F50720F0A21BB30BE40BF50B661F06
:1054C000771F881F991F1A9469F7609570958095CA
:1054D00090959B01AC01BD01CF010895EE0FFF1F18
:1054E0000590F491E02D09940E947F2AA59F900DCC
:1054F000B49F900DA49F800D911D11240895A29F2B
:10550000B001B39FC001A39F700D811D1124911D97
:10551000B29F700D811D1124911D089581E090E0CE
:10552000F8940C949C2AFB01DC0102C001900D92BE
:1055300041505040D8F708951EE0C7E1DEE004C0B6
:10554000FE010E946E2A2196C831D107C9F7F8944E
:02555000FFCF8B
:1055520001F713010501FFFFFFFF010000000071C9
:105562001144116314380F3D112A111B1100000060
:1055720000390F760E6314380F950FAD0F200F0010
:105582000000004512760E631462142914313A2089
:10559200004300323A20000D0A0020352500313048
:0655A20025003135250053
:00000001FF
