:100000000C940A0F0C943B0F0C943B0F0C943B0F79
:100010000C943B0F0C943B0F0C943B0F0C943B0F38
:100020000C943B0F0C943B0F0C943B0F0C943B0F28
:100030000C94471D0C943B0F0C943B0F0C943B0FFE
:100040000C943B0F0C943B0F0C943B0F0C943B0F08
:100050000C943B0F0C943B0F0C943B0F0C94D91B4E
:100060000C943B0F0C943B0F0C943B0F0C943B0FE8
:100070000C943B0F0C943B0F0C943B0F0C943B0FD8
:100080000C943B0F0C943B0F0C943B0F0C943B0FC8
:100090000C943B0F0C943B0F0C943B0F0C94231CC3
:1000A0000C943B0F0C943B0F0C943B0F0C943B0FA8
:1000B0000C943B0F0C943B0F0C943B0F0C943B0F98
:1000C0000C943B0F0C943B0F0C943B0F0C943B0F88
:1000D0000C943B0F0C943B0F0C94A31B0C94791BBA
:1000E0000C943B0F0C940B110C94BF120C948C15B8
:1000F0000C940F110C94B0120C9413110C94CF2487
:100100000C949D240C9454100C94C9240C94BE158A
:100110000C946F0F0C94CC240C94F8150C940710CD
:100120000C9405110C94DA100C94D5100C94422206
:100130000C94F8100C94D9120C9438220C949E0F45
:100140000C94C3240C9460220C94F0100C94F715BA
:100150000C94AF210C94CF0F0C94DA130C9427114C
:100160000C94F81D0C946C220C94D2120C94AD0FCC
:100170000C9419110C942B110C94F4100C944A2229
:100180000C9476220C9421110C94FB100C94A32156
:100190000C941D110C94AF120C94700F0C94620F00
:1001A0000C94B0240C94EC100C94C10F0C94C32349
:1001B0000C9401110C9406130C94710FAED580A809
:1001C0003FD300408D142002A1C8DA12817FD9F1FB
:1001D000DB40A4A6AF54006D4168000620610322F5
:1001E00001020A0604120C02022006040202021E88
:1001F0003B31201B101A693EB0233A7B7C7D4001C5
:10020000010101010202020202020202020155AAD8
:1002100000030C0F30333C3FC0C3CCCFF0F3FCFFE6
:1002200000002200250028002B002E0031003400A1
:1002300002010000050108010B0105050505070580
:1002400008080808020202020A0A08080404040452
:10025000010101010101010103030303030303037E
:10026000040707070C0C0C0C0C0C0C0C020202020D
:1002700006060606060606060B0B0B0B0B0B0B0BF6
:1002800001021020200808102040102040800201A8
:10029000020108040201010204081020408080408D
:1002A000201008040201800402018040201008048C
:1002B000020108040201010204081020408001022A
:1002C00004081020408000000A0B02090C0D0E08E3
:1002D000070304010000000000000000000000000F
:1002E000000000000000000000000000000000000E
:1002F00000001211100000000000000000000000CB
:10030000000000000000000000000000646973703D
:100310006C617921004E6F206461746120746F00FC
:10032000636F6E6E65637465642100425553206E81
:100330006F740000008040200100000000000000F9
:1003400000000000000000000000000000000000AD
:10035000000000000000000000000000000000009D
:1003600000000000000000000080C0E0E0F0F8F8AD
:10037000FCFCFEFEFEFFFFFFFFFFFFFF7F7E3E3E19
:100380007EFCFCF8F8F0E0C08000000000000000F7
:10039000000000000000000000000000000000005D
:1003A000000000000000000000000000000000004D
:1003B000000000000000000000000000000000003D
:1003C000000000000000000000000000000000002D
:1003D000000000000000000000000000000000001D
:1003E000000000000080F0FCFEFFFFFFFFFFFF7F2A
:1003F0007F7F7F7F7F7F7F7F7F7F7F79706060E0FF
:10040000E0F0FFFFFFFFFFFFFFFFFCF8C000000070
:1004100000000000000000000000000000000000DC
:1004200000000000000000000000000000000000CC
:1004300000000000000000000000000000000000BC
:1004400000000000000000000000000000000000AC
:10045000000000000000000000000000000000009C
:100460000000000000FFFFFFFFFFFFFFF3F3F3F3C7
:10047000B3B3B3333333333333F3F3FFFE1E00E050
:10048000FFFFFFFFFFFFFFFFFFFFFFFFFF7C0000FD
:10049000000000000000000000000000000000005C
:1004A000000000000000000000000000000000004C
:1004B000000000000000000000000000000000003C
:1004C000000000000000000000000000000000002C
:1004D000000000000000000000000000000000001C
:1004E0000000000000031F7FFFFFFFFFFFFFFFFF73
:1004F000FFFFFFFF1FC0F0FCFFFF7F0F81F0FEFF3B
:10050000FFFFFFFFFFFFFFFFFFFF7F3F0700000030
:1005100000000000000000000000000000000000DB
:1005200000000000000000000000000000000000CB
:1005300000000000000000000000000000000000BB
:1005400000000000000000000000000000000000AB
:10055000000000000000000000000000000000009B
:1005600000000000000000000003070F0F1F3F3FC6
:100570007F7FFFFFF8F9F3F3F3F9F8FCFFFFFFFFCC
:10058000FF7F7F3F3F1F0F070301000000000000B7
:10059000000000000000000000000000000000005B
:1005A000000000000000000000000000000000004B
:1005B000000000000000000000000000000000003B
:1005C000000000000000000000000000000000002B
:1005D000000000000000000000000000000000001B
:1005E000000000000000000000000000000000000B
:1005F00000000000000101010101010101000000F3
:1006000000000000000000000000000000000000EA
:1006100000000000000000000000000000000000DA
:1006200000000000000000000000000000000000CA
:1006300000000000000000000000000000000000BA
:1006400000000000000000F0F89898981800008062
:10065000C04040C0C00000C0C040C0C0C000C0C05A
:100660000000C0C00000C0C00040C04040C08000CA
:10067000C0C00000C0C04000000000000000F8F84A
:10068000F0C000F8F8F800D8D80000C0C040C0C0E2
:10069000800080C04040C0C00000F8F840C0C0806A
:1006A0000080C0C040C0800040F0F040000000006A
:1006B000000000000000000000000000000000003A
:1006C00000000000000000181919191B1F0E000F70
:1006D0001F1A121B1B0003CFDFD8D87F3F00010F6A
:1006E0001E1F03031F1E0F01001E1E121A1F1F00D4
:1006F00000C7FF7E0F0100030303030300001F1F59
:100700000003071F1F1F001F1F00001F1F00001FE7
:100710001F000F1F1A121B1B02001F1F18181F0F8C
:10072000000F1F18181F0F00001F1F1000000000EF
:10073000000000000000000000BC01198040006BB8
:100740006D2F680043005600410000001C32300C41
:100750000080E0F0F8FCFCFEFEFFFFFF7F7FFFFF64
:10076000FFFEFEFEFCFCF8F0C000000080FFFFFF73
:10077000FFFFFFFFFFFFFFFF0000FFFFFFFFFFFF87
:10078000FFFFFFFFFFFF8000FFFFFFFFFFFFFFFFF7
:10079000FFFFFFFF0000FFFFFFFFFFFFFFFFFFFF67
:1007A000FFFFFF00FFFFFFFFFFFFFFFFFFFFFFFF58
:1007B0000000FFFFFFFFFFFFFFFFFFFFFFFFFF0046
:1007C0000FFFFFFFFFFFFFFFFFFFFFFF0000FFFF27
:1007D000FFFFFFFFFFFFFFFFFFFF030000030F1FEF
:1007E0003F7FFFFFFFFFFFFFFCFCFFFFFFFFFFFF5F
:1007F0007F7F3F1F0F03000000000000000000008B
:1008000000010101010101010101000000000000DF
:10081000000000000000008080C0C0C0E0E0F0F0F8
:10082000F8FCFEFFFFFFFFFFFFFFFF0000000000DE
:100830000000001F1F1F1F1F3F3F7FFFFFFFFFFF25
:10084000FFFFFFFFFFFFFF000000000000000000AF
:1008500000000000000000FFFFFFFFFFFFFFFFFFA1
:10086000FFFFFF000000000000000000000000008B
:10087000000000FFFFFFFFFFFFFFFFFFFFFFFF0084
:10088000000000000000000000000000000000FF69
:10089000FFFFFFFFFFFFFFFFFFFFFF000000000063
:1008A0000000000000000000000000FFFFFFFFFF4D
:1008B000FFFFFFFFFFFFFF0000000000000000003F
:1008C000000000000000000101010101010101011F
:1008D00001010100000000000000C0F0F8FCFEFE75
:1008E000FEFFFF7F7FFFFFFFFFFEFEFEFCF8F8E04C
:1008F000C000000000FFFFFFFFFFFFFFFFFF010040
:100900000080FFFFFFFFFFFFFFFFFFFFFFFE000074
:100910000003030303030303030380E0FCFFFFFF63
:10092000FFFFFFFFFFFFFFFF3F030000000000008D
:10093000000000C0F0FEFFFFFFFFFFFFFFFFFFFF13
:100940007F1F030000000000000000C0F0FCFFFF5C
:10095000FFFFFFFFFFFFFFFF7F1F070100000000F9
:100960000000000000FCFFFFFFFFFFFFFFFFFFFF95
:10097000FFFFFFFDFCFCFCFCFCFCFCFCFC000000A1
:100980000001010101010101010101010101010158
:10099000010101010101010101000000C0F0F8FCAA
:1009A000FEFEFFFFFFFFFF7F7FFFFFFFFFFFFEFE5B
:1009B000FEFCF8F0E0000000FFFFFFFFFFFFFFFF7D
:1009C000FFFF00000000FFFFFFFFFFFFFFFFFFFF33
:1009D000FFFF00000000000000000000F8F8F8F839
:1009E000FCFEFFFFFFFFFFFFFFFFDFCF87010000DF
:1009F000E0E0E0E0E0E0E0E0E3E3030307071FFFFF
:100A0000FFFFFFFFFFFFFFFFFFFFF800FFFFFFFFFC
:100A1000FFFFFFFFFFFF0000000000FFFFFFFFFFE1
:100A2000FFFFFFFFFFFFFF00010F1F3F7F7FFFFF63
:100A3000FFFFFEFCFCFCFFFFFFFFFFFFFF7F7F3F90
:100A40001F0700000000000000000000010101017C
:100A50000101010101010000000000000000000090
:100A60000000000000000000C0F8FFFFFFFFFFFFD4
:100A7000FFFFFFFFFFFFFFFFFFFF00000000000080
:100A80000080F0FEFFFFFFFFFF3FFFFFFFFFFFFFC4
:100A9000FFFFFFFFFFFF0000000000E0FCFFFFFF83
:100AA000FFFFFF1F0100FFFFFFFFFFFFFFFFFFFF33
:100AB000FFFF0000C0F8FFFFFFFFFFFFFF0F000078
:100AC0000000FFFFFFFFFFFFFFFFFFFFFFFF000032
:100AD000FFFFFFFFFFFFFFFFFFFFFFFFFFFFFFFF26
:100AE000FFFFFFFFFFFFFFFFFFFFFF000000000011
:100AF00000000000000000000000FFFFFFFFFFFFFC
:100B0000FFFFFFFFFFFF00000000000000000000EB
:100B100000000000000001010101010101010101CB
:100B200001010000FFFFFFFFFFFFFFFFFFFFFF7F4F
:100B30007F7F7F7F7F7F7F7F7F7F7F7F7F7F0000C3
:100B4000FFFFFFFFFFFFFFFFFFFFFF80C0E0F0F0B0
:100B5000F0F0F0F0F0E0E0C0800000007F7F7F7FE9
:100B60007F7F7F7F7F7F7F7F0F070FFFFFFFFFFF6D
:100B7000FFFFFFFFFFFFF800C0C0C0C0C0C0C0C083
:100B8000C0C0C0C0000000FFFFFFFFFFFFFFFFFF6E
:100B9000FFFFFF00FFFFFFFFFFFFFFFFFFFFFFFF64
:100BA000000000FFFFFFFFFFFFFFFFFFFFFFFF0051
:100BB00000070F3F3F7FFFFFFFFFFFFFFEFCFEFF31
:100BC000FFFFFFFFFF7F7F3F1F07010000000000C6
:100BD000000000000001010101010101010101000B
:100BE000000000000000000000C0E0F8FCFCFEFE79
:100BF000FEFFFFFFFF7FFFFFFFFFFEFEFEFCFCF896
:100C0000F0C00000FFFFFFFFFFFFFFFFFFFFFFFF40
:100C10000000001F1F1F1F1F1F1F1F1F1F1F1F0060
:100C2000FFFFFFFFFFFFFFFFFFFFFFFFF87CFEFF5F
:100C3000FFFFFFFFFFFEFEFCF8F0C000FFFFFFFF1D
:100C4000FFFFFFFFFFFFFFFF000000FFFFFFFFFFB1
:100C5000FFFFFFFFFFFFFF00FFFFFFFFFFFFFFFFA3
:100C6000FFFFFFFF000000FFFFFFFFFFFFFFFFFF91
:100C7000FFFFFF0001071F3F7F7FFFFFFFFFFFFF19
:100C8000FEFCFFFFFFFFFFFFFF7F7F3F1F0701000D
:100C9000000000000000000000010101010101014D
:100CA0000101000000000000000000007F7F7F7F46
:100CB0007F7F7F7F7F7F7F7F7F7F7FFFFFFFFFFFC4
:100CC000FFFFFFFFFFFFFF0000000000000000002B
:100CD000000000000000F8FFFFFFFFFFFFFFFFFF25
:100CE000FFFF0F00000000000000000000000000F7
:100CF000E0FFFFFFFFFFFFFFFFFFFFFF1F00000000
:100D000000000000000000000000C0FEFFFFFFFF29
:100D1000FFFFFFFFFFFF7F03000000000000000057
:100D20000000000000F8FFFFFFFFFFFFFFFFFFFFD5
:100D3000FF0F00000000000000000000000000E0C5
:100D4000FFFFFFFFFFFFFFFFFFFFFF1F000000008F
:100D5000000000000000000000000001010101018E
:100D6000010101010101010000000000000000007C
:100D700080E0F0F8FCFEFEFEFFFFFFFFFF7FFFFFBD
:100D8000FFFFFFFEFEFEFCF8F0E00000FFFFFFFFAC
:100D9000FFFFFFFFFFFFFFFF000000FFFFFFFFFF60
:100DA000FFFFFFFFFFFFFF0001078FDFFFFFFFFFD8
:100DB000FFFFFFFFFCF8FCFFFFFFFFFFFFFFDFCFA0
:100DC0008F070100F8FFFFFFFFFFFFFFFFFFFFFF9F
:100DD000070307FFFFFFFFFFFFFFFFFFFFFFF80015
:100DE000FFFFFFFFFFFFFFFFFFFFFFFF000000FF10
:100DF000FFFFFFFFFFFFFFFFFFFFFF0001071F3F98
:100E00007F7FFFFFFFFFFFFFFEFCFEFFFFFFFFFFF7
:100E1000FFFF7F3F1F0F00000000000000000000E8
:100E200001010101010101010101010000000000B7
:100E30000000000000C0F0F8FCFCFEFEFFFFFFFF1A
:100E4000FF7FFFFFFFFFFEFEFEFCF8F8E0C00000A2
:100E5000FFFFFFFFFFFFFFFFFFFFFFFF000000FF9F
:100E6000FFFFFFFFFFFFFFFFFFFFFE00FFFFFFFF92
:100E7000FFFFFFFFFFFFFFFF000000FFFFFFFFFF7F
:100E8000FFFFFFFFFFFFFF00071F3F7FFFFFFFFF89
:100E9000FFFFFFFFFE7C3EFFFFFFFFFFFFFFFFFFA7
:100EA000FFFFFF00F0F0F0F0F0F0F1F1F1F1F1F1FF
:100EB000000000FFFFFFFFFFFFFFFFFFFFFFFF003E
:100EC000010F1F3F7F7FFFFFFFFFFFFFFEFCFEFFC5
:100ED000FFFFFFFFFF7F3F1F0F0700000000000024
:100EE00000000000010101010101010101010000F8
:100EF00000000000000000000000000000000000F2
:100F000000000000000000000000000000000000E1
:100F100000000000000000000000000000000000D1
:100F200000000000000000000000000000000000C1
:100F3000C0C0C00000000000000000000000000071
:100F4000000000000000000000000000FFFFFFF8AC
:100F5000DC8E0600FEFEFE06FEFCFE06FEFEFC002B
:100F60000000000000000000030303000103030071
:100F70000303E3E003E3E3000303030000000000D6
:100F80000000000000000000000000C0F83F070063
:100F900000FFFF0606FEFC0000000000000000004D
:100FA000000000000000000101000000000101003D
:100FB000000101000000000000000000000000002F
:100FC0000000000000000000000000000000000021
:100FD0000000000000000000000000000000000011
:100FE0000000000000000000000000000000000001
:100FF00000000000000000000000000000000000F1
:1010000000000000000000000000000000000000E0
:1010100000000000000000000000000000000000D0
:1010200000000000000000000000000000000000C0
:1010300000000000000000000000000000000000B0
:1010400000000000000000000000000000000000A0
:101050000000000000000000000000000000000090
:101060000000000000000000000000000000000080
:101070000000000000000000000000000000000070
:1010800000008040200200FCFEFEFEFEFEFEFEFE92
:10109000FEFEFCFCF8F8F0F0F0E0E0C0C0808080DC
:1010A000000000000000808080C0C0E0E0F0F0F0B0
:1010B000F8F8FCFCFEFEFEFEFEFEFEFEFEFEFE005E
:1010C00000000080F0F8FCFCFEFEFEFEFEFEFEFCD2
:1010D000FCF8F0E00000000000000080E0F0F8FC08
:1010E000FCFEFEFEFEFEFCFCF8F8E0C00000000086
:1010F0000000FCFCFCFCFCFCFCFCFCFCFCFCFCFC28
:10110000FCFCFCFC000000FFFFFFFFFFFFFFFFFFF8
:10111000FF0F0F1F1F1F3F3F7F7FFFFFFFFFFFFFDF
:10112000FFFFFEFEFFFFFFFFFFFFFFFF7F7F3F3F51
:101130003F1F1F0F0FFFFFFFFFFFFFFFFFFFFF001E
:10114000000000FFFFFFFFFFFFFF070307FFFFFF98
:10115000FFFFFFFFFF00000000C0FEFFFFFFFFFFDB
:10116000FFFF070307FFFFFFFFFFFFFFFEF0000089
:101170000000FFFFFFFFFFFFFF0707070707070745
:1011800007070707000000FFFFFFFFFFFFFFFFFF4C
:10119000FF0000000000000000000000010101034A
:1011A0000307070707030301010100000000000017
:1011B00000000000000F0707070303010101000002
:1011C0000000001F1F1F1F1F1F1F000080FFFFFFC9
:1011D000FFFFFFFFFF00000000FFFFFFFFFFFFFF1B
:1011E000FFFF000080C3C3C3838303030303000026
:1011F00000FEFFFFFFFFFFFFFFE0F0F8F8FCFCFC44
:10120000F8F8F0E0000000FFFFFFFFFFFFFFFFFF27
:10121000FF000000000000000000000000000000CF
:1012200000000000000000000000000000000000BE
:101230000000000000F0F0F0F8F8FCFCFEFEFE00FC
:101240000000000000000000FEFEFEFEFFFFFFFFAA
:10125000FFFFEFC78100000000FFFFFFFFFFFFFF60
:10126000FFFFFC7FFFFFFFFFFFFFFFFEF880000096
:1012700000FFFFFFFFFFFFFFFFFF0F073FFFFFFF25
:10128000FFFFFFFFFF00001F7F7F3F3F1F1F0F0F6C
:101290000F0000000000000000000000000000003F
:1012A000000000000000000000000000000000003E
:1012B0000000000000FFFFFFFFFFFFFFFFFF3F00F8
:1012C000000000C0C0C0C0C0C3C303070F3FFFFF82
:1012D000FFFFFFFFFFFC000000FFFFFFFFFFFFFF1E
:1012E000FFFF000000FFFFFFFFFFFFFFFFFF000009
:1012F00000808080808080808080000000FFFFFF71
:10130000FFFFFFFFFF000000000080C0C0E0E0E042
:10131000F0F0F8E0C0000000000000000000000055
:1013200000000000000000000000000000000000BD
:1013300000C0E0F8FFFFFFFFFFFFFFFF3F070000D7
:10134000000000FFFFFFFFFFFFFF00000000FFFFA6
:10135000FFFFFFFFFFFF000000FFFFFFFFFFFFFF9A
:10136000FFFF000000FFFFFFFFFFFFFFFFFF000088
:1013700000FFFFFFFFFFFFFFFFFF000000FFFFFF79
:10138000FFFFFFFFFF000000000000030F1F3F7F73
:10139000FFFFFFFFFFFFFEFCFCF8F0F0E0E0E0E005
:1013A000C0C0C0C0C0C0C0E0E0E0F0F0F8FCFCFE8F
:1013B000FFFFFFFFFFFF7F3F1F0F03010000000043
:1013C000000000FFFFFFFFFFFFFFE0C0C0E0FFFFE6
:1013D000FFFFFFFFFF1F000000077FFFFFFFFFFF72
:1013E000FFFFE0C0E0FFFFFFFFFFFFFFFF07000080
:1013F0000007FFFFFFFFFFFFFFFFE0C0F0FFFFFF61
:10140000FFFFFFFF7F000000000000000000000061
:1014100000010307070F0F1F1F3F3F3F7F7F7F7FA5
:101420007F7F7F7F7F7F7F7F7F7F3F3F3F1F1F1FAC
:101430000F0707030100000000000000000000008B
:1014400000000000030F1F3F3F7F7F7F7F7F7F7F74
:101450003F1F1F0701000000000000030F1F3F3F58
:101460007F7F7F7F7F7F7F3F3F1F0F030000000054
:10147000000000030F1F3F3F7F7F7F7F7F7F7F3F05
:101480003F1F0F0300000000000000000080E0E0AC
:10149000F0F8F8FCFCFEFEFEFEFEFEFEFEFEFEFE8A
:1014A000FEFEFEFEFEFEFEFEFEFEFEFEFEFEFEFE5C
:1014B000FEFEFEFEFEFEFEFEFEFEFEFEFEFEFEFE4C
:1014C000FEFEFEFEFEFEFEFEFEFEFEFEFEFEFEFE3C
:1014D000FEFEFEFEFEFCFCFCF8F8F0E0C080000022
:1014E00000000000000000000000000000000000FC
:1014F0000000000000F8F8F8F8F8F8F8F8F8F8F844
:10150000F8000000000000000000F0FCFFFFFFFFFB
:10151000FFFFFFFF7F3F1F8FC7E7E7E3E3E3E3E35F
:10152000E3030303030303030303030303030303AB
:10153000030303030303030303030303030303037B
:101540000303030303030303030303030303030767
:1015500007070F0F1F3FFFFFFFFFFFFFFFFFFFFC0E
:10156000E0E0E0E0E0E0E0C0C080800000000000DB
:101570000000000000FFFFFFFFFFFFFFFFFFFFFF76
:10158000FF000000000000000000FFFFFFFFFFFF62
:10159000FFFFFF030000FEFFFFFFFFFFFFFFFFFF56
:1015A000FF0000000000000000000000000000003C
:1015B000000000000000000000000000000000002B
:1015C000000000000000000000000000000000001B
:1015D000000000000000007F7F7F7F7F7F7F7F7F94
:1015E0007F7F7FFFFFFFFFFFFFFFFFFFFC0000008B
:1015F00000000000003FFFFFFFFFFFFFFFFFFFFFB6
:101600003F000000000000000000FFFFFFFFFFFFA1
:10161000FFFFFF000000FFFFFFFFFFFFFFFFFFFFD7
:10162000FF000000000000000000000000000000BB
:1016300000000000000000000000000000000000AA
:10164000000000000000000000000000000000009A
:10165000000000000000000000000000000000008A
:1016600000000000FFFFFFFFFFFFFFFFFF00000083
:10167000000000000000FFFFFFFFFFFFFFFFFFFF74
:1016800000000000000000000000FFFFFFFFFFFF60
:10169000FFFFFF000000FFFFFFFFFFFFFFFFFFFF57
:1016A000FF0000000000000000000000000000003B
:1016B000000000000000000000000000000000002A
:1016C000000000000000000000000000000000001A
:1016D000000000000000000000000000000000000A
:1016E00000000000FFFFFFFFFFFFFFFFFF00000003
:1016F000000000000000FFFFFFFFFFFFFFFFFFFFF4
:1017000000000000000000000000FFFFFFFFFFFFDF
:10171000FFFFFFC000007FFFFFFFFFFFFFFFFFFF96
:10172000FF000000000000000000000000000000BA
:1017300000000000000000000000000000000000A9
:101740000000000000000000000000000000000099
:1017500000000000000000FEFEFEFEFEFEFEFEFE9B
:10176000FEFEFEFFFFFFFFFFFFFFFFFF3F00000049
:10177000000000000000003F3F3F3F3F3F3F3F0071
:10178000000000000000000000000F3FFFFFFFFF0F
:10179000FFFFFFFFFEFCF8F1E3E7E7C7C7C7C7C7D6
:1017A000C7C0C0C0C0C0C0C0C0C0C0C0C0C0C0C032
:1017B000C0C0C0C0C0C0C0C0C0C0C0C0C0C0C0C029
:1017C000C0C0C0C0C0C0C0C0C0C0C0C0C0C0C0E0F9
:1017D000E0E0F0F0F8FCFFFFFFFFFFFFFFFFFF3F3F
:1017E00007070707070707030301010000000000C0
:1017F0000000000000F8FCFCFCFCFCFCFCFCFCFC19
:10180000F8000000000000000000000000010707D1
:101810000F1F1F3F3F7F7F7F7F7F7F7F7F7F7F7F88
:101820007F7F7F7F7F7F7F7F7F7F7F7F7F7F7F7FC8
:101830007F7F7F7F7F7F7F7F7F7F7F7F7F7F7F7FB8
:101840007F7F7F7F7F7F7F7F7F7F7F7F7F7F7F7FA8
:101850007F7F7F7F7F3F3F3F1F1F0F0703010000F8
:101860000000000000000000000000000000000078
:1018700000000000000F1F1F1F1F1F1F1F1F1F1F23
:101880000F0000000000506F776572206F6E2074AB
:10189000696D65006B6D0000000A0E201B000000E2
:1018A0000000000000000000000000000000000038
:1018B0000000000000000000000000000000000028
:1018C0000000000000000000000000000000000018
:1018D0000000000000000000000000000000000008
:1018E00000000000000000000000000000000000F8
:1018F00000000000000000000000000000000000E8
:1019000000000000000000000000000000000000D7
:1019100000000000000000000000000000000000C7
:1019200000000000000000000000000000000000B7
:1019300000000000000000000000000000000000A7
:101940000000000000000000000000000000000097
:101950000000000000000000000000000000000087
:101960000000000000000000000000000000000077
:101970000000000000000000000000000000000067
:101980000000000000000000000000000000000057
:101990000000000000000000000000000000000047
:1019A0000000000000000000000000000000000037
:1019B0000000000000000000000000000000000027
:1019C000000000383838000000000000000000006F
:1019D00000000000000000000000000000FCFEFF0E
:1019E000070303FFFEFC000F1F3F3030383F1F0F7F
:1019F0000000000C0C0EFFFFFF00000000000000C4
:101A00003F3F3F0000001C1E1F07C7FFFE3C0000B9
:101A100030383E3F3F333030000E0F6F63E3E7FF57
:101A2000FEDC000F1F3F3830383F1F0F0080E0F80A
:101A30003F07FFFFFF000007070707073F3F3F077C
:101A4000007F7F7F333373F3F3E3000E1E3E3830A5
:101A5000383F1F0F00FCFEFF6763E7EFEECC000F7F
:101A60001F3F3830303F1F0F0000030303E3FFFF29
:101A70003F07000000383F3F0F01000000BCFEFFA1
:101A8000C7C3E3FFFEBC000F1F3F3130383F1F0FBD
:101A900000FCFEFF8783C3FFFEFC000C1D3D3131BF
:101AA000383F1F0F00000000007070700000000041
:101AB0000000001C1C1C000000546F74616C20644A
:101AC000697374616E63650000000507206600009D
:101AD00000000000005F00000007000700147F14F2
:101AE0007F14242A7F2A1223130864623649552260
:101AF000500005030000001C2241000041221C0090
:101B0000082A1C2A0808083E08080050300000086F
:101B100008080808006060000020100804023E4128
:101B200041413E00427F40004261514946214145CA
:101B30004B311814127F1027454545393C4A494915
:101B40003001710905033649494936064949291EBC
:101B500000363600000056360000000814224114FA
:101B600014141414412214080002015109063249C8
:101B700079413E7E1111117E7F494949363E4141EE
:101B800041227F4141221C7F494949417F09090186
:101B9000013E414151327F0808087F00417F4100EA
:101BA0002040413F017F081422417F404040407F58
:101BB0000204027F7F0408107F3E4141413E7F09BD
:101BC0000909063E4151215E7F09192946464949C6
:101BD000493101017F01013F4040403F1F2040202B
:101BE0001F7F2018207F6314081463030478040304
:101BF000615149454300007F4141020408102041E2
:101C0000417F0000040201020440404040400001C6
:101C100002040020545454787F48444438384444E3
:101C20004420384444487F3854545418087E0901ED
:101C300002081454543C7F0804047800447D40009A
:101C40002040443D00007F10284400417F40007C3C
:101C5000041804787C0804047838444444387C141C
:101C6000141408081414187C7C08040408485454FC
:101C70005420043F4440203C4040207C1C20402015
:101C80001C3C4030403C44281028440C5050503CF0
:101C90004464544C44000836410000007F000000BA
:101CA0004136080008082A1C08081C2A08080006F3
:101CB0000909060000007F415D5D5D5D41414141D4
:101CC00041417F000000007C7C7C7C7C5361766518
:101CD00020616E64206578697400436F6E66696781
:101CE000757265204D3336350042617474657279C2
:101CF00020696E666F0042696720626174742E20ED
:101D00007761726E2E3A2000426174746572792098
:101D10007761726E696E673A200020205350454506
:101D2000440020202054454D5000564F4C5441470C
:101D3000450043555252454E540042696720737026
:101D40006565646F2E3A200042696720737065658F
:101D5000646F6D657465723A20003E3E3E204272AB
:101D6000616B6520746F2065786974203C3C3C0091
:101D7000457869740020382C35220020203130222B
:101D800000576865656C2053697A653A20202020E9
:101D90002000557064617465204B4552530020202B
:101DA0005745414B005354524F4E47004D4544490F
:101DB000554D004B4552533A202020202020202012
:101DC00000557064617465205461696C696768745A
:101DD00000204E4F00594553005461696C69676893
:101DE00074206F6E3A202020200055706461746565
:101DF00020437275697365004F464600204F4E00C0
:101E000043727569736520636F6E74726F6C3A20EC
:101E10000000F81D11241FBECFEFD1E2DEBFCDBF01
:101E200000E00CBF12E0A0E0B2E0E2E8F6E500E07E
:101E30000BBF02C007900D92A635B107D9F724E079
:101E4000A6E5B2E001C01D92A53CB207E1F71FE094
:101E5000CAE0DFE000E006C021970109802FFE0103
:101E60000E940F2BC930D10780E00807A9F70E9414
:101E70004C1E0C943F2B0C9400000000000000004E
:101E80009093AF048093AE04FC0124913196E491C9
:101E9000F22F319719F41092AA04089581E08093EB
:101EA000AA040895E4EBF4E082E09191DF01119738
:101EB000913031F48C9394E0E33CF907B1F7089545
:101EC0001C92F9CF80918C03833028F010928C0300
:101ED000F0E0E0E019948F5F80938C0308950895FB
:101EE0000895AF92BF92CF92DF92EF92FF920F933D
:101EF0001F93CF93DF936C017B018B01040F151FA0
:101F0000EB015E01AE18BF08C017D10759F0699107
:101F1000D601ED91FC910190F081E02DC60119955B
:101F2000892B79F7C501DF91CF911F910F91FF9018
:101F3000EF90DF90CF90BF90AF900895FC01538D4C
:101F4000448D252F30E0842F90E0821B930B541793
:101F500010F0CF96089501970895FC01918D828D20
:101F6000981761F0A28DAE0FBF2FB11D5D968C91B9
:101F7000928D9F5F9F73928F90E008958FEF9FEFF8
:101F80000895FC01918D828D981731F0828DE80FB4
:101F9000F11D858D90E008958FEF9FEF0895FC016E
:101FA000918D228D892F90E0805C9F4F821B91093B
:101FB0008F73992708958EED93E00E94CF0F21E053
:101FC000892B09F420E0822F0895FC01A48DA80F2D
:101FD000B92FB11DA35ABF4F2C91848D90E001966B
:101FE0008F739927848FA689B7892C93A089B1898B
:101FF0008C91837080648C93938D848D981306C02C
:102000000288F389E02D80818F7D80830895EF928F
:10201000FF920F931F93CF93DF93EC0181E0888FA2
:102020009B8D8C8D98131AC0E889F989808185FF72
:1020300015C09FB7F894EE89FF896083E889F98914
:1020400080818370806480839FBF81E090E0DF9116
:10205000CF911F910F91FF90EF900895F62E0B8D69
:1020600010E00F5F1F4F0F731127E02E8C8D8E1124
:102070000CC00FB607FCFACFE889F989808185FF8B
:10208000F5CFCE010E94E50FF1CFEB8DEC0FFD2FC8
:10209000F11DE35AFF4FF0829FB7F8940B8FEA8946
:1020A000FB8980818062CFCFCF93DF93EC01888D55
:1020B0008823B9F0AA89BB89E889F9898C9185FDC3
:1020C00003C0808186FD0DC00FB607FCF7CF8C9151
:1020D00085FFF2CF808185FFEDCFCE010E94E50F15
:1020E000E9CFDF91CF91089580E090E0892B49F00E
:1020F00080E090E0892B29F00E94000081110E946D
:10210000000080E090E0892B49F080E090E0892B8E
:1021100029F00E94000081110E94000080E090E000
:10212000892B49F080E090E0892B29F00E94000083
:1021300081110E94000080E090E0892B29F00E942C
:10214000DB0F81110C9400000895282F30E0F90175
:10215000EA53FD4F9491F901E058FD4F4491265CFC
:102160003D4FF9012491222309F435C0992311F13F
:1021700091509231F8F4E92FF0E08827ED53FF4EAB
:102180008F4F0C940F2BF410F810D510EC10F010AA
:10219000DA10FB10011105110B110F111311191198
:1021A0001D11DA10211127112B11809180008F77DA
:1021B00080938000E22FF0E0EE0FFF1FE05EFD4F06
:1021C000A591B4918FB7F894EC91611148C04095F6
:1021D0004E234C938FBF0895809180008F7DE8CF70
:1021E00080918000877FE4CF84B58F7784BDE2CF74
:1021F00084B58F7DFBCF8091B0008F778093B00046
:10220000D9CF8091B0008F7DF9CF809190008F77EA
:1022100080939000CFCF809190008F7DF9CF8091F7
:102220009000877FF5CF8091A0008F778093A000EA
:10223000C1CF8091A0008F7DF9CF8091A000877FD2
:10224000F5CF809120018F7780932001B3CF8091CB
:1022500020018F7DF9CF80912001877FF5CF4E2B14
:10226000B8CF3FB7F89480913F0390914003A0917D
:102270004103B091420326B5A89B05C02F3F19F03A
:102280000196A11DB11D3FBFBA2FA92F982F8827F6
:10229000BC01CD01620F711D811D911D42E0660FD1
:1022A000771F881F991F4A95D1F708952FB7F89483
:1022B00060913B0370913C0380913D0390913E03FC
:1022C0002FBF089520911703260F3327331F213284
:1022D0003105ECF42091B403FC0190E080E024305F
:1022E00069F082E00895A09117032191AC01495053
:1022F0005D4FA40FB52FB11D2C930196861798F34F
:1023000080911703680F6093170380E0089581E0C0
:1023100008951092B40381E08093B30310928E036A
:1023200061E084E10E94A51061E085E10E94A510B2
:10233000E9EBF0E080818E7F808380818D7F8083D8
:1023400088E48093B80085E48093BC000895CF931F
:10235000DF9391E09093F6028823B9F0C091B80022
:10236000D091BA008091BC008A7B8093BC0060E071
:1023700084E10E94A51060E085E10E94A5100E9402
:102380008911D093BA00C093B800DF91CF9108951E
:10239000CF92DF92EF92FF920F931F93CF93DF9331
:1023A000D091DD0381E0D13208F09CC0C091DC0304
:1023B0000E9431116B017C018091B40381116CC0CA
:1023C00082E08093B40381E08093B3038FEF809326
:1023D000B2031092B103D093B003ACEBB3E0E0E9E9
:1023E000F3E080E0D8138DC010928F0380918F03AB
:1023F000CC0FC82BC0938F0380918E03813009F0DE
:1024000084C010928E030E9431116B017C01809177
:102410008F038093BB008091B6039091B703A09186
:10242000B803B091B903892B8A2B8B2BA1F00E94A2
:1024300031110091B6031091B7032091B803309188
:10244000B9036C197D098E099F090617170728071C
:10245000390708F442C08091BC0083FDD8CF85ECD9
:102460008093BC000E9431116B017C018091B40308
:10247000823009F44CC08091B2038F3F09F469C0E7
:102480008091B203803209F466C08091B203803338
:1024900009F463C084E026C08091B6039091B7032D
:1024A000A091B803B091B903892B8A2B8B2B09F427
:1024B00083CF0E9431110091B6031091B703209190
:1024C000B8033091B9036C197D098E099F0906176D
:1024D00017072807390708F06FCF8091B5030E94CE
:1024E000A71185E01092BB031092DD031092BA038E
:1024F000DF91CF911F910F91FF90EF90DF90CF90E0
:1025000008959D9191938F5F6DCF85EEA9CF8091B6
:10251000B6039091B703A091B803B091B903892B8A
:102520008A2B8B2B09F4A2CF0E9431110091B603A4
:102530001091B7032091B8033091B9036C197D094C
:102540008E099F09061717072807390708F08ECF4D
:10255000C4CF80E0C7CF82E0C5CF83E0C3CF08956A
:10256000E091480380914703E81730F4F0E0EA5225
:10257000FD4F808190E008958FEF9FEF0895909137
:102580004803809147032FEF3FEF981748F4E92F56
:10259000F0E0EA52FD4F208130E09F5F90934803C6
:1025A000C90108958091470390914803891B990BB5
:1025B0000895CF92DF92EF92FF920F931F93CF93E4
:1025C000DF937C01CB018A012091BA03222389F099
:1025D000EB016B01C40ED51ECC15DD0569F06991C8
:1025E000D701ED91FC910190F081E02DC701199583
:1025F000F3CF642F0E946211C801DF91CF911F9128
:102600000F91FF90EF90DF90CF900895CF93DF93DD
:102610001F92CDB7DEB769832091BA032223F9F068
:102620002091DD03203258F021E030E0FC013383BB
:10263000228390E080E00F90DF91CF910895809108
:10264000BB03E82FF0E0E454FC4F998190838F5F47
:102650008093BB038093DD0381E090E0ECCF61E0E9
:10266000CE0101960E946211F7CFCF93DF93EC0168
:102670009C818E81981768F48F856827E881F9819D
:102680000084F185E02D42E0CE0119958C818F5FA9
:102690008C83DF91CF910895DC01ED91FC91008452
:1026A000F185E02D40E019940F931F93CF938C0197
:1026B000FC016483C085C60F6C2F6F700E944C13A1
:1026C0006C2F62956F706061C801CF911F910F915F
:1026D0000C944C13FC0127812695269526956217AC
:1026E00038F465832385620F6770606B0C944C131C
:1026F00008951F93CF93DF93EC01142F8E816817F9
:1027000018F4CE010E945413612FCE01DF91CF91B6
:102710001F910C946A13CF92DF92EF92FF920F9366
:102720001F93CF93DF93EC01F62EC42ED22E8F8110
:10273000869586958695081710F00FEF080F1D2DCA
:10274000011780F0412F6F2DCE010E947913EF2CDD
:10275000CE1430F06F85CE010E943513E394F8CF8C
:102760001F5FEECF4D2D6F2DCE01DF91CF911F91C9
:102770000F91FF90EF90DF90CF900C9479130F930F
:10278000CF93DF93C1EAD4E01B861A8660E4CE01C2
:102790000E944C130F8106950695069501504E81B7
:1027A000415020E060E0CE010E948B13DF91CF9179
:1027B0000F9108952F923F924F925F926F927F9266
:1027C0008F929F92AF92BF92CF92DF92EF92FF9241
:1027D0000F931F93CF93DF9300D01F921F92CDB71B
:1027E000DEB7DC011D962D913C912115310509F4D0
:1027F00070C19D838C83F901329664903196449127
:10280000E42EF12CB7E0EB0EF11C53E0F594E794C5
:102810005A95E1F7E982319654913196E491651722
:1028200048F08E2F90E0FC01E50FF11D6E171F069A
:102830000CF491C06D3029F5EC81FD818681811108
:102840001AC081E090E00F900F900F900F900F90C2
:10285000DF91CF911F910F91FF90EF90DF90CF907C
:10286000BF90AF909F908F907F906F905F904F90B0
:102870003F902F90089560E08C819D810E945413B9
:10288000E0CF6A3009F025C1AC81BD8116968C91EC
:102890001697882321F060E0CD010E945413EC814B
:1028A000FD8100890E9DE02C112465816E0D8485CB
:1028B000882349F027812695269526958E2D821B03
:1028C000860F18162CF08C819D810E946A13B9CF57
:1028D000AC81BD811B969C911B97890F87701B96BD
:1028E0008C931B972E1915962C9315971D96ED9189
:1028F000FC91309771F13396E491F0E0379633E034
:10290000F595E7953A95E1F70E9F002D1124EFEF2D
:10291000E20F0E0FEC81FD81468141506481CF01B1
:102920000E948B13AC81BD811C968C911C978130C9
:1029300009F087CF1B966C911B97660F660F660F89
:102940006F731A966C931A976064CD010E944C13B2
:1029500078CF00E0DCCF89010A5F1F4F651BEC8157
:10296000FD8171855089759F502D11245B83F9017C
:1029700054912F5F3F4FF9012491352F22303105BB
:1029800008F069C06E9CC0016F9C900D1124689F77
:10299000F001699FF00D11240E0F1F1F512CAC8107
:1029A000BD811496BC91BA83EC81FD812580862C73
:1029B000912CAA24A394B12C312CF9813F1608F054
:1029C00086C0412CAC81BD8150968C91481608F090
:1029D00077C0311002C0442041F0EC81FD81458177
:1029E0004F5F6A81CF010E947913D12CC12CC6148C
:1029F00008F059C0F801EC0DFD1D7490552061F0F0
:102A0000EA14FB0449F4E72DF0E0052C02C0F5952B
:102A1000E7950A94E2F77E2EAC81BD8150968C91A9
:102A2000823081F4442009F43AC072948FE0782215
:102A3000E72DF0E0E05FFD4F7490672D8C819D8164
:102A40000E943513672D8C819D810E943513EFEF15
:102A5000CE1ADE0ACCCF477028E0522E541A41110C
:102A600001C0512CF801612C30E020E0661631F0F5
:102A70004491240F311D63943196F8CF600E712E6E
:102A8000711CF3016490E29EF001E39EF00DF29E52
:102A9000F00D11248E0F9F1F080F191F80CFB72D27
:102AA000BF707B2EC5CFD12CFB81DF1639F060E0E3
:102AB0008C819D810E943513D394F6CF439482CFAD
:102AC0003394080D191D8FEFA81AB80A76CF622D1E
:102AD000FACE90E080E0B7CE682F81EA94E00C94C3
:102AE000DA130F931F93CF93DF938C01D0E0C0E0F4
:102AF000F801EC0FFD1F6491662341F081EA94E038
:102B00000E94DA13892B11F02196F2CFCE01DF91CA
:102B1000CF911F910F9108950895F89484B7877FFE
:102B200084BFE0E6F0E088E1808310827894089525
:102B3000F89484B7877F84BFE0E6F0E088E1808383
:102B400080914B03808378940895909160008093E6
:102B50004B0391110C9498150C948D15CF93C82F9D
:102B6000862F909157029C1302C0662329F00E9481
:102B7000BF13C093570281E0CF9108950F931F9325
:102B8000CF93DF93EC01062F142F8A89813120F433
:102B9000882329F0411103C00E94C8111A8A8A892A
:102BA000811112C0898991E09093BA038093DC036C
:102BB0001092BB031092DD0360E4111101C060E0CC
:102BC0008BE794E00E940613602F8BE794E00E944D
:102BD0000613123041F48A898F5F8A8BDF91CF917F
:102BE0001F910F9108950E94C8111A8AF7CF089576
:102BF00090E080E00895FC0101900020E9F7319712
:102C0000AF01481B590BBC0181EA94E00C94710F91
:102C10008F929F92AF92BF920F931F93CF93DF93A8
:102C2000CDB7DEB7A1970FB6F894DEBF0FBECDBF0C
:102C300019A2423008F44AE08E010F5D1F4F842E26
:102C4000912CB12CA12CA50194010E94ED2AE62F14
:102C5000B901CA01EA30F4F4E05DD801EE938D01C8
:102C6000232B242B252B79F790E080E0109719F087
:102C7000CD010E94FB15A1960FB6F894DEBF0FBEE2
:102C8000CDBFDF91CF911F910F91BF90AF909F90DB
:102C90008F900895E95CE1CF0C94FB15CF93DF93FF
:102CA0000E947115EC018DE392E00E94FB158C0FE0
:102CB0009D1FDF91CF910895CF92DF92EF92FF9207
:102CC000CF93DF936C01990FEE08FF08F7FE17C052
:102CD0008DE20E946C15EC0166277727CB016C19F9
:102CE0007D098E099F094AE00E9408168C0F9D1FDE
:102CF000DF91CF91FF90EF90DF90CF9008954AE061
:102D0000C701B601DF91CF91FF90EF90DF90CF9098
:102D10000C9408162F923F924F925F926F927F927F
:102D20008F929F92AF92BF92CF92DF92EF92FF92DB
:102D30000F931F93CF93DF9300D01F92CDB7DEB7D1
:102D40009C838B836A8381E08093B10488EC9AE151
:102D50000E94400F47E060E081EA94E00E9479130E
:102D600080910302882309F47AC081E80E946C15DF
:102D700025E0298310E000E088EE482E83E0582EFD
:102D8000612C712C8B819C816C01990FEE08FF08DE
:102D900018019FEF291A390A47E0698181EA94E016
:102DA0000E9479132A81211199C0C701B6010E949E
:102DB000A3292CE53FE842E45EE30E94342A4B015C
:102DC0005C01B801110F880B990B0E94A3299B018C
:102DD000AC01C501B4010E942F2A18160CF48BC057
:102DE00083E80E946C1589818B5F89838101843619
:102DF00079F647E063E681EA94E00E94791384E87B
:102E00000E946C158B819C81843691055CF480E274
:102E10000E946C152B813C812A3031051CF480E224
:102E20000E946C158B819C810E945C1685E20F903C
:102E30000F900F900F90DF91CF911F910F91FF9006
:102E4000EF90DF90CF90BF90AF909F908F907F904A
:102E50006F905F904F903F902F900C946C158091E5
:102E60000402882309F481CF2B813C818217130649
:102E70000CF47BCF0E94561128EE33E040E050E086
:102E80000E94ED2A643F71408105910508F46DCFE1
:102E9000198247E0698181EA94E00E94791380E217
:102EA0000E946C1539813B5F39833A3A91F70F9054
:102EB0000F900F900F90DF91CF911F910F91FF9086
:102EC000EF90DF90CF90BF90AF909F908F907F90CA
:102ED0006F905F904F903F902F9008950E945611F1
:102EE000A30192010E94ED2A643F71408105910582
:102EF00008F05BCF75CF82E874CFBC0190E080E032
:102F00004AE00C9408169F92AF92BF92CF92DF9244
:102F1000EF92FF920F931F93CF93DF9360E086E0D1
:102F20000E94AE1540E060E081EA94E00E947913CF
:102F300081E08093B104809168039091690397FFC9
:102F400003C091958195910964E670E00E94D92AA9
:102F50008B01EC016A3071051CF480E20E946C1553
:102F6000C8010E945C168EE20E946C15CA30D10521
:102F70001CF480E30E946C15CE010E945C1686E46E
:102F800097E00E94711580E20E946C1580916603A3
:102F90009091670397FF03C091958195910964E62D
:102FA00070E00E94D92A8B01EC016A3071051CF493
:102FB00080E20E946C15C8010E945C168EE20E949D
:102FC0006C15CA30D1051CF480E30E946C15CE014B
:102FD0000E945C1688E497E00E94711580E20E94CE
:102FE0006C158091620390916303883E934018F4BE
:102FF00080E20E946C158091620390916303843695
:10300000910518F480E20E946C1580916203909102
:1030100063030A9718F480E20E946C1580916203A2
:10302000909163030E947D1787ED91E00E947115D6
:10303000C0916A03C451DD0B41E069E081EA94E08C
:103040000E94791385ED91E00E94711580E492E071
:103050000E944C16CA30D1051CF480E20E946C1507
:10306000CE010E945C1680E80E946C1584E492E018
:103070000E944C1641E06AE481EA94E00E947913D0
:1030800085ED91E00E94711586E492E00E944C1655
:10309000C0916B03C451DD0BCA30D1051CF480E232
:1030A0000E946C15CE010E945C1680E80E946C158F
:1030B00084E492E00E944C16C12CD12C7601C8E524
:1030C000D2E008EE13E082E0982E9C0C492D65E0DA
:1030D00081EA94E00E9479134AE0C701B6010E9498
:1030E000081681E492E00E944C1688819981B8010B
:1030F0000E94D92ACB010E945C168EE20E946C15B8
:1031000088819981B8010E94D92A5C0184E6A816B9
:10311000B10454F480E30E946C152AE0A216B104B5
:103120001CF480E30E946C15C5010E945C1686E4C5
:1031300097E00E947115492D66E481EA94E00E94AF
:103140007913C60105960E945C1681E492E00E9404
:103150004C168A859B85B8010E94D92ACB010E9412
:103160005C168EE20E946C158A859B85B8010E94D0
:10317000D92A5C0184E6A816B10454F480E30E94C5
:103180006C152AE0A216B1041CF480E30E946C15B1
:10319000C5010E945C1686E497E00E947115229694
:1031A0008FEFC81AD80AE80AF80A25E0C216D10437
:1031B000E104F10409F087CFDF91CF911F910F91C6
:1031C000FF90EF90DF90CF90BF90AF909F900895C9
:1031D0000E94312B85ED8093BC008091B6039091C5
:1031E000B703A091B803B091B9030796A11DB11D13
:1031F00023E0B695A795979587952A95D1F72091C5
:10320000BC0024FD03C01092B40308954091B6039E
:103210005091B7036091B8037091B903452B462BC9
:10322000472B69F30097A105B10541F025E32A95E5
:10323000F1F700000197A109B109E1CF8091B50331
:103240000C94A7110C94E328EF92FF920F931F9315
:10325000CF93DF9381E080939B0488E080939C046C
:103260008AE080939D048EE080939E0484E08093A6
:10327000A004E091CD02F0E0E957FB4FC489CF30C4
:1032800008F06FC08091870481116BC0D0E0FE010F
:10329000E150FE4FE49110E000E09EEDE92E91E058
:1032A000F92EE130B9F0E23029F010E000E0F12C25
:1032B000E12C10C0E093CA0280915B038093CB02A3
:1032C00080915C038093CC020AEC12E08BEDE82E37
:1032D00081E0F82E42E050E06EE072E089E894E090
:1032E0000E94DA2843E050E0B7018BE894E00E94A6
:1032F000DA28BE0160517E4F41E050E08EE894E054
:103300000E94DA28BE016F517E4F41E050E08FE805
:1033100094E00E94DA2880E994E00115110551F04B
:1033200083E0F801A0E9B4E001900D928A95E1F7FD
:1033300083E994E08B589440282F80938804EBE82D
:10334000F4E08FEF9FEF222329F03191831B910945
:103350002150F9CF90939A048093990481E080934F
:1033600087048091CD028F5F8093CD029091A0045D
:10337000891710F01092CD02DF91CF911F910F911C
:10338000FF90EF9008950F931F93CF93DF9328E85A
:1033900032E03093C9022093C802809187028130C5
:1033A00089F1A0F0823009F43CC1809187029091AC
:1033B0007702981709F438C18093770281E08093EF
:1033C0000002DF91CF911F910F9108958EED93E050
:1033D0000E94CF0F02974CF38EED93E00E94AD0F49
:1033E0008535910599F78EED93E00E94C10F8A3AD9
:1033F000910561F78EED93E00E94AD0F81E080931F
:103400008702D3CF80910002882309F1C3E8D2E07C
:1034100084E0FE0111928A95E9F7309382022093AD
:103420008102109280020E94561160937C02709378
:103430007D0280937E0290937F02D0937B02C093A3
:103440007A028FEF9FEF90937902809378028091B8
:103450008002803410F082E0D2CF0E945611009199
:103460007C0210917D0220917E0230917F02601BD0
:10347000710B820B930B653071058105910558F72F
:103480008EED93E00E94CF0FC0918002892B59F1FD
:103490008EED93E00E94AD0FCF5FC0938002C530E8
:1034A00008F0C5C0E0917A02F0917B029F012F5F86
:1034B0003F4F30937B0220937A02808320917802E1
:1034C00030917902281B31093093790220937802D8
:1034D0000E94561160937C0270937D0280937E025D
:1034E00090937F02CDCF209183024C2F4450550BF7
:1034F0002417150609F059CFE0918102F09182025C
:103500003297209178023091790280819181281739
:10351000390709F0A0CFC6508091860290918402AD
:10352000933209F447C0953209F467C09032A9F587
:10353000811133C080918502853679F580918704A9
:10354000813019F58091760281111FC08091C100F0
:103550008F7E8093C1004091880450E04E5F5F4FA2
:1035600069E874E08EED93E00E94710F42E050E054
:1035700069E974E08EED93E00E94710F8091C100C3
:1035800080618093C100109287044C2F50E068E85E
:1035900072E08AE593E00E94362B809186028133A7
:1035A00029F0803B19F08A3309F055CF81E08093F0
:1035B0008D0351CF8A3371F0803B79F780E2E8E8E0
:1035C000F2E0ACE6B3E0C03241F701900D928A958B
:1035D000E1F7E3CFC43009F7809188029091890226
:1035E000A0918A02B0918B0280934C0390934D037B
:1035F000A0934E03B0934F03D0CF813351F080346A
:1036000061F68EE1E8E8F2E0A8E5B2E0CE3129F615
:10361000DCCFCA3011F68AE0E8E8F2E0A2E6B3E0D7
:10362000D4CF10928702C1CE10920002CACEE09190
:103630008102F09182029F012F5F3F4F30938202FF
:103640002093810280832091830230E02E5F3F4FE0
:10365000C217130609F00CF431CF3ACFFF920F9343
:103660001F93CF93DF93EC01F62E08811981C801D7
:103670000E94E328F81621F06F2DC8010E94EB2864
:10368000CE01DF91CF911F910F91FF9008950F937D
:103690001F93CF93DF931F921F92CDB7DEB78B019D
:1036A0009A838983FB016081CE0101960E942E1BC3
:1036B000C8010F900F90DF91CF911F910F91089546
:1036C0000F931F93CF93DF931F921F92CDB7DEB757
:1036D0008B019A838983FB016081CE0101960E9450
:1036E0002E1BC8010F900F90DF91CF911F910F916A
:1036F00008951F920F920FB60F9211240BB60F92DE
:103700002F933F934F935F936F937F938F939F93E9
:10371000AF93BF93EF93FF938EED93E00E94E50F7D
:10372000FF91EF91BF91AF919F918F917F916F9199
:103730005F914F913F912F910F900BBE0F900FBE55
:103740000F901F9018951F920F920FB60F92112491
:103750000BB60F922F938F939F93EF93FF93E0916C
:10376000EE03F091EF038081E091F403F091F50313
:1037700082FD1DC090818091F7038F5F8F73209130
:10378000F803821741F0E091F703F0E0E252FC4FBA
:10379000958F8093F703FF91EF919F918F912F91D8
:1037A0000F900BBE0F900FBE0F901F901895808149
:1037B000F2CF1F920F920FB60F9211242F933F93C7
:1037C0008F939F93AF93BF9380913B0390913C0362
:1037D000A0913D03B0913E0330913A0323E0230FC3
:1037E0002D3758F50196A11DB11D20933A03809302
:1037F0003B0390933C03A0933D03B0933E03809121
:103800003F0390914003A0914103B0914203019680
:10381000A11DB11D80933F0390934003A0934103EA
:10382000B0934203BF91AF919F918F913F912F91A0
:103830000F900FBE0F901F90189526E8230F029649
:10384000A11DB11DD2CF1F920F920FB60F9211245E
:103850000BB60F922F933F934F935F936F937F938A
:103860008F939F93AF93BF93EF93FF938091B90092
:10387000887F803609F44DC008F040C0883209F4D2
:10388000A9C028F5803109F49DC0C8F4882309F443
:10389000FBC0883009F496C0FF91EF91BF91AF91C2
:1038A0009F918F917F916F915F914F913F912F9158
:1038B0000F900BBE0F900FBE0F901F901895883180
:1038C00009F488C0803241F78093B20314C0803479
:1038D00009F49DC040F48033B9F38833E9F680934E
:1038E000B20385ECB0C0803509F485C0883509F491
:1038F00096C0883489F60E94EA18CECF883909F438
:103900008CC038F5883729F050F4883611F08037AC
:1039100019F683E08093B4031092390357C08838B6
:1039200009F47BC0803919F0803809F0B5CF809157
:103930003903803208F071C0E091390381E08E0FC5
:10394000809339038091BB00F0E0E75EFC4F8083F9
:103950003DC0803B39F0E0F4803A09F479C0883A00
:1039600009F09ACF84E08093B40310921803109268
:103970001703E0914503F0914603199580911703D1
:1039800081110FC081E0809317031092F70209C0E4
:10399000803C09F4A6CF883C09F4A3CF883B09F00A
:1039A0007BCFE091180381E08E0F80931803F0E045
:1039B000E950FD4F80818093BB0090911803809166
:1039C000170329C080918F038093BB0085EC8093FF
:1039D000BC0062CF9091B1038091B003981758F565
:1039E000E091B10381E08E0F8093B103F0E0E057E6
:1039F000FC4F8081E9CFE091B10381E08E0F80938D
:103A0000B1038091BB00F0E0E057FC4F80839091C0
:103A1000B1038091B0039817C8F285E8D8CFE09140
:103A2000B10381E08E0F8093B1038091BB00F0E081
:103A3000E057FC4F80838091B30381115CCF81E01C
:103A400080938E0384EA8093BC001092B40324CF49
:103A500085EC8093BC001092B403809139038032CE
:103A600030F4E0913903F0E0E75EFC4F10826091A2
:103A7000390370E0E0914303F091440389E193E05E
:103A800019951092390308CF1092B20334CF1F92C8
:103A90000F920FB60F9211240BB60F922F933F93F4
:103AA0004F935F936F937F938F939F93AF93BF9346
:103AB000EF93FF932091D4023091D5028091490376
:103AC00090914A0328173907E0F48091D40290912D
:103AD000D50201969093D5028093D402FF91EF9185
:103AE000BF91AF919F918F917F916F915F914F9116
:103AF0003F912F910F900BBE0F900FBE0F901F9014
:103B000018951092D5021092D402E0910102F09122
:103B100002021995E3CF94E09093CE0290E2909345
:103B2000CF0293E09093D002833009F45BC078F425
:103B30008130B1F0823009F44FC08CE78093D1021C
:103B400081E090E09093D3028093D20210C0853040
:103B500009F44CC008F448C0863079F78BE73DC0C3
:103B60008CE78093D1021092D3021092D20242E0ED
:103B700050E06EE072E089E894E00E94DA2886E086
:103B8000EEECF2E0ABE8B4E001900D928A95E1F73B
:103B900086E08093880480918B0490E080959095D6
:103BA00020918C04821B910920918D04821B910924
:103BB00020918E04821B910920918F04821B910910
:103BC00020919004821B910990939A048093990408
:103BD00081E08093870408958DE78093D10282E08D
:103BE00090E0B0CF8DE7BDCF8BE7BBCF8BE7A6CF03
:103BF000EEEDF3E01382128288EE93E0A0E0B0E0F5
:103C000084839583A683B7832FE032E031832083BA
:103C100025E331E03587248724E331E037872687A1
:103C200020E331E0318B208B21E331E0338B228B99
:103C300022E331E0358B248B26E331E0378B268B72
:103C4000118E128E138E148EEBE7F4E01382128223
:103C500084839583A683B78381E292E091838083F6
:103C6000E4EBF4E08FE0DF011D928A95E9F7109212
:103C7000C4041092C304E1EAF4E0138212821486B1
:103C800016861586178681E0808B83E392E0918308
:103C900080831092A0040895CF93DF9300D000D0CA
:103CA00000D01F92CDB7DEB7789484B5826084BD12
:103CB00084B5816084BD85B5826085BD85B5816030
:103CC00085BD80916E00816080936E0010928100AE
:103CD0008091810082608093810080918100816069
:103CE000809381008091800081608093800080912A
:103CF000B10084608093B1008091B00081608093B6
:103D0000B000809191008260809391008091910039
:103D100081608093910080919000816080939000F9
:103D20008091A10082608093A1008091A1008160B8
:103D30008093A1008091A00081608093A000809179
:103D40002101826080932101809121018160809313
:103D500021018091200181608093200180917A006F
:103D6000846080937A0080917A00826080937A00E8
:103D700080917A00816080937A0080917A008068D7
:103D800080937A001092C100E091EE03F091EF036E
:103D900082E08083E091EA03F091EB031082E091EE
:103DA000EC03F091ED0380E180831092F603E09143
:103DB000F203F091F30386E08083E091F003F09149
:103DC000F103808180618083E091F003F091F10341
:103DD000808188608083E091F003F091F10380811D
:103DE00080688083E091F003F091F10380818F7D02
:103DF000808390E080E00E942219803809F08CC016
:103E000081E090E00E94221991E0811101C090E0D0
:103E10009093050282E090E00E94221980930402B0
:103E200083E090E00E9422198093500384E090E0A8
:103E30000E94221991E0811101C090E09093030249
:103E400085E090E00E94221991E0811101C090E08C
:103E500090930A0286E090E00E94221991E081117D
:103E600001C090E09093530387E090E00E942219F4
:103E700091E0811101C090E09093520388E090E0BE
:103E80000E94221980935103109248031092470315
:103E90001092BB031092DD030E9489118FE69FE010
:103EA000909346038093450380E79FE090934403FB
:103EB000809343038CE08093B8001092B3048CE3AA
:103EC0008093B2041092A5041092A604E9E3F7E0EF
:103ED00085919491E82EEBE3F7E0F490ECE3F7E0C2
:103EE000E491E093A704EDE3F7E0E491E093A80404
:103EF000EEE3F7E0E491E093A9048C01802F8E19A2
:103F00008F1508F04AC0F801649181EA94E00E949C
:103F10004C130F5F1F4FF2CF1A82198260E8CE0157
:103F200001960E942E1B81E090E09A83898360E0D5
:103F3000CE0101960E942E1B65E072E081E090E0C8
:103F40000E94601B64E072E082E090E00E94471BE8
:103F500060E573E083E090E00E94471B63E072E05D
:103F600084E090E00E94601B6AE072E085E090E0EF
:103F70000E94601B63E573E086E090E00E94601B96
:103F800062E573E087E090E00E94601B61E573E00A
:103F900088E090E00E94471B77CF0E94BF1383E325
:103FA00093E00E94400F61E080E00E94AE1540E087
:103FB00060E081EA94E00E94791380E20E946C152F
:103FC00088EC9AE10E94400F0E9456116B017C011F
:103FD000F0EDCF0EF7E0DF1EE11CF11C4B015C01A0
:103FE00028EE820E23E0921EA11CB11C0E945611E5
:103FF0006C157D058E059F0558F40E94C3198091AC
:104000008704811102C00E9424190E94520FEECF32
:104010000E94561120916603309167036815790557
:104020008A059B0588F4232B89F080916803909181
:104030006903892B21F0809164038111DECF60E058
:1040400081E00E94AE152CC0232BC9F78091680334
:1040500090916903892B99F7809164038111EFCFC7
:1040600060E081E00E94AE1582E08093B10440E000
:1040700060E081EA94E00E9479138BE293E00E9471
:104080004E1680E293E00E944E1685E193E00E9476
:104090004E168CE093E00E944E1681E08093B104AE
:1040A00010928C0310924A031092490385E40E94F7
:1040B000A51580914B0381110E94981582E69FE01F
:1040C0009093020280930102332433940E94C31917
:1040D00080918704811102C00E94241980918D0370
:1040E000813009F08CC210928D03C0907603D0907D
:1040F000770380EFC81688EDD8060CF05FC00D2C52
:10410000000CEE08FF089FEFC90ED91EE11CF11C40
:1041100080910A02882309F45BC0AAE0B0E0A701FD
:1041200096010E94172B0E94A32920E030E048E06E
:1041300051E40E94F9280E946B296B837C838D8354
:104140009E838B819C81AD81BE81B7FF0BC0B095F2
:10415000A095909581959F4FAF4FBF4F8B839C83C8
:10416000AD83BE836B817C818D819E8128EE33E09F
:1041700040E050E00E94ED2A29013A0100916603D7
:104180001091670320906803909169039F83A2E0D8
:104190004A16510461047104F0F080916103882390
:1041A00031F01092600310925F0310926103E9EC0A
:1041B000CE16D104E104F104ACF069C0D7FE03C00F
:1041C000D194C194D1080D2C000CEE08FF08A0CFAB
:1041D000B601C701B2CFB9ECCB16D104E104F104AA
:1041E0000CF051C020915C0388248394912C2338D7
:1041F00050F481E090E0223310F090E080E08824D9
:104200009924881A990A20915B03273908F077C707
:1042100081E090E0223310F090E080E0AA24BB24FB
:10422000A81AB90A80915F03882309F412C2E1E059
:10423000AE16B10409F05CC08091060290910702AD
:10424000019709F455C0FFEF8F169F0609F050C083
:104250008091080290910902019609F088C0E091CE
:104260005403E83008F083C0F0E08827E55CFE4D99
:104270008F4F0C940F2BA321AF21382242224A22C8
:1042800060226C227622809161038111ABCF8091F4
:1042900003028111A4C4C60168EE73E00E94C52A1E
:1042A00064E670E00E94C52A7A876987C80117FF13
:1042B00004C088279927801B910B64E670E00E9458
:1042C000D92A4B015C0122E04216510461047104B9
:1042D00008F0B6C40C391F4F0CF02FC629ECC216DB
:1042E000D104E104F1040CF028C60E9483172FC505
:1042F00081E088169104D9F5809108029091090215
:104300000197A9F1FFEFAF16BF0689F5809106026C
:1043100090910702019659F580915403873008F077
:1043200002C18F5F809354030E9456116053784FEF
:104330008F4F9F4F6093550370935603809357039D
:104340009093580314C080915303832580935303A3
:1043500063E573E086E090E00E94601B08C08091F6
:104360005303882309F482C080E00E948B1D60E023
:1043700087E00E94AE158111109254033092B1046F
:1043800040E060E081EA94E00E9479138091540358
:104390008111CCC08EE70E946C1580E09EE10E94E6
:1043A000711580915303882309F4C5C08CEF9DE1FA
:1043B0000E94711541E060E081EA94E00E94791367
:1043C00080915403813009F0B9C08EE70E946C15CA
:1043D0008AEE9DE10E94711542E060E081EA94E07E
:1043E0000E94791380915403823009F0ACC08EE7AB
:1043F0000E946C1589ED9DE10E9471158091520318
:10440000882309F4A5C085ED9DE10E94711543E064
:1044100060E081EA94E00E94791380915403833034
:1044200009F099C08EE70E946C1581EC9DE10E9415
:10443000711544E060E081EA94E00E947913809174
:104440005403843009F08CC08EE70E946C1583EB16
:104450009DE10E94711580915103813009F485C05E
:10446000823009F4E1C08EE99DE181C081E07DCF19
:104470008091520383258093520362E573E087E0C5
:1044800090E06ACF80915203882311F082E06DCFD3
:1044900083E06BCF80915103813029F0823069F045
:1044A0003092510303C082E08093510361E573E0D1
:1044B00088E090E00E94471B5ACF10925103F6CF3C
:1044C00080915103813021F0823021F084E04DCF82
:1044D00085E04BCF86E049CF80910A028325809307
:1044E0000A026AE072E085E090E036CFAFEFBFEFFE
:1044F000B0930902A0930802E1E0F0E0F093070214
:10450000E09306020E9456116053784F8F4F9F4FE1
:104510006093550370935603809357039093580309
:1045200010925F0324CF10925403FECE82E492E0F7
:104530000E944C1632CF88EF9DE13ACF82E492E0A0
:104540000E944C1645CF82E492E00E944C1652CF56
:1045500081ED9DE15ACF82E492E00E944C1665CF36
:1045600082E492E00E944C1672CF8CEA9DE10E9498
:10457000711545E060E081EA94E00E947913809132
:104580005403853009F053C08EE70E946C1582E910
:104590009DE10E94711546E060E081EA94E00E948E
:1045A000791380915403863009F046C08EE70E944B
:1045B0006C1581E89DE10E94711580910A028823A3
:1045C00009F43FC08BE79DE10E94711547E060E070
:1045D00081EA94E00E947913809154038730A1F519
:1045E0008EE70E946C1580E79DE10E947115909204
:1045F000090280920802B0920702A09206020E946D
:10460000520F8091C304813009F471C51092C30424
:104610008091C404813009F46EC51092C4041092D4
:104620008C030E94741052CD85EA9DE1A0CF82E4F4
:1046300092E00E944C16ABCF82E492E00E944C16AE
:10464000B8CF85E79DE1C0CF82E492E00E944C168E
:10465000CACF809160038823C1F181E0881691045C
:1046600081F48091080290910902019751F09FEF27
:10467000A916B90631F480910602909107020196BD
:1046800059F00E94831747E060E081EA94E00E94BD
:1046900079138AE59DE1A9CF9092090280920802E0
:1046A000B0920702A09206020E9456116053784F02
:1046B0008F4F9F4F6093550370935603809357031A
:1046C00090935803109260039ACF809161038823DE
:1046D00009F4C5C1B1E08B16910409F03AC5809187
:1046E000080290910902019709F05EC5EFEFAE163E
:1046F000BE0609F059C58091060290910702019605
:10470000D9F4C0905503D0905603E0905703F09031
:104710005803C114D104E104F10471F00E94561150
:10472000C616D706E806F90638F41092610367CF7B
:10473000B1E08B16910461F5809108029091090215
:10474000019731F1EFEFAE16BE0611F5809106022A
:10475000909107020196E1F480915903863008F0A8
:1047600039C18F5F809359030E9456116053784F6F
:104770008F4F9F4F60935503709356038093570359
:104780009093580305C0809105028325809305020C
:1047900060E082E00E94AE153092B10440E060E03B
:1047A00081EA94E00E94791380915903811115C127
:1047B0008EE70E946C1588E49DE10E94711580913E
:1047C0000502882309F40EC185ED9DE10E94711553
:1047D00041E060E081EA94E00E94791380915903FE
:1047E000813009F002C18EE70E946C158AE39DE1D9
:1047F0000E94711580915003823009F4FBC0833010
:1048000009F4FBC0813009F0FBC082E39DE10E9406
:10481000711542E060E081EA94E00E947913809192
:104820005903823009F0EFC08EE70E946C1588E0D2
:104830009DE10E947115809104028A3009F4E8C05C
:104840008F3009F4E8C0853009F0E8C08AE492E0CE
:104850000E944C1643E060E081EA94E00E947913E4
:1048600080915903833009F0DEC08EE70E946C15F9
:1048700086EF9CE10E94711580910302882309F460
:10488000D7C085ED9DE10E94711544E060E081EAAA
:1048900094E00E94791380915903843009F0CBC0D1
:1048A0008EE70E946C1589EE9CE10E94711545E02F
:1048B00060E081EA94E00E94791380915903853089
:1048C00009F0BEC08EE70E946C158AED9CE10E9443
:1048D000711546E060E081EA94E00E94791310E0EF
:1048E00046E0612F81EA94E00E9479138DE20E94F4
:1048F0006C151B5F1D37A1F747E060E081EA94E08B
:104900000E94791380915903863009F09EC08EE78A
:104910000E946C158CEC9CE10E94711548E060E0EF
:1049200081EA94E00E94791380915903873009F05D
:1049300091C08EE70E946C155ACE80915003813051
:1049400049F028F0823051F01092500321CF30927C
:1049500050031ECF82E0809350031ACF83E0FBCF39
:1049600080910402853041F08A3041F0811108C005
:1049700085E0809304020CCF8AE0FBCF8FE0F9CF73
:104980001092040205CF80910302832580930302D5
:10499000FFCE30926003FCCE30925F03F9CE65E02B
:1049A00072E081E090E00E94601B64E072E082E0CF
:1049B00090E00E94471B60E573E083E090E00E9476
:1049C000471B63E072E084E090E00E94601B10925D
:1049D0006103DECE10925903C7CE82E492E00E94BA
:1049E0004C16E9CE81ED9DE1F1CE82E492E00E9489
:1049F0004C16FCCE8AE29DE10ACF82E29DE107CF10
:104A00008AE19DE104CF82E492E00E944C160FCF30
:104A10008EE492E01DCF82E592E01ACF88EF9DE10F
:104A20000E94711517CF82E492E00E944C1620CFAD
:104A300081ED9DE128CF82E492E00E944C1633CFB5
:104A400082E492E00E944C1640CF82E492E00E9401
:104A50004C1660CF82E492E00E944C16C8CD21E053
:104A6000A216B10481F48091060290910702019789
:104A700051F08FEF8816980631F4809108029091DA
:104A80000902019649F09092090280920802B092C0
:104A90000702A0920602FBCB60E083E00E94AE1505
:104AA0003092B10488EC9AE10E94400F40E060E04F
:104AB00081EA94E00E94791389EB9AE10E947115D2
:104AC0008AE30E946C1587E998E10E94400F41E05B
:104AD0006FE081EA94E00E94791360917A0370910B
:104AE0007B0380917C0390917D0328EE33E040E0CE
:104AF00050E00E94ED2A290189012AE030E040E0DF
:104B000050E00E94ED2A69015901B8EE4B16B3E05E
:104B10005B067CF480E20E946C15043611054CF4AF
:104B200080E20E946C150A3011051CF480E20E949C
:104B30006C15C2010E945C168EE20E946C15EAE0C0
:104B4000AE16B1041CF480E30E946C15C6010E94ED
:104B50005C1688EC9AE10E94400F84E998E10E947B
:104B6000711545E060E081EA94E00E94791386E8DF
:104B700098E10E9471158AE30E946C1587E998E11B
:104B80000E94400F46E06FE081EA94E00E947913B2
:104B900080914C0390914D036CE370E00E94C52A14
:104BA0008B017C016436710548F480E20E946C152B
:104BB0000A30110518F480E20E946C15C8010E94A9
:104BC0005C168AE30E946C15FAE0EF16F10418F403
:104BD00080E30E946C15C7010E945C1610CD809185
:104BE0000402882309F457CB90916403891708F4D1
:104BF00052CB0E94561120ED37E040E050E00E9479
:104C0000ED2A6C3B72408105910508F044CB60E0D1
:104C100084E00E94AE15882309F4F1CC80E890E18D
:104C20000E94400F40E060E081EA94E00E94791326
:104C300081E20E946C1588EC9AE10E94400FDFCC63
:104C400080910502882309F445CB60E085E00E944D
:104C5000AE153092B10480915003823009F482C0C5
:104C6000833009F4F7C0813009F01EC18AE497E06F
:104C70000E94400FC4016AE070E00E94C52A8B01C7
:104C80007C0140E062E081EA94E00E947913011522
:104C9000110509F440C0C8010E945C1640E060E2C2
:104CA00081EA94E00E947913C7010E945C1640E0FB
:104CB0006BE481EA94E00E947913C5016AE070E038
:104CC0000E94C52A8C01CB010E945C1640E06CE674
:104CD00081EA94E00E94791387E998E10E94400FED
:104CE000C8010E945C1688EC9AE10E94400F8091F6
:104CF00066039091670397FD12C082E08093B10430
:104D000044E06CE681EA94E00E94791388E497E03D
:104D10000E94711511C08BE30E946C15BFCF0E94D9
:104D2000561128EE33E040E050E00E94ED2A643F47
:104D300071408105910508F33092B10445E060E4CB
:104D400081EA94E00E94791385E80E946C156091D5
:104D50006703661F6627661F8091640390E00E94C8
:104D60008A164DCC022D1F8117FF03C011950195A6
:104D70001109C80164E670E00E94D92A7B018AE427
:104D800097E00E94400FC7016AE070E00E94C52AC8
:104D90007B016C0140E062E081EA94E00E947913BB
:104DA000E114F10409F444C0C7010E945C16C80173
:104DB00064E670E00E94D92A8C0140E063E281EA57
:104DC00094E00E947913C6010E945C1640E06BE4F7
:104DD00081EA94E00E947913C8016AE070E00E94C1
:104DE000C52A8C01CB010E945C1640E06CE681EA8A
:104DF00094E00E94791387E998E10E94400FC8016E
:104E00000E945C1688EC9AE10E94400F8091660334
:104E10009091670397FD10C082E08093B10444E055
:104E20006CE681EA94E00E94791386E497E070CF03
:104E30008BE30E946C15BBCF0E94561128EE33E025
:104E400040E050E00E94ED2A643F714081059105E9
:104E500018F372CF8AE497E00E94400F40E06EE1C1
:104E600081EA94E00E9479138091820390918303F8
:104E70006AE070E00E94D92ACB010E945C1688EC9F
:104E80009AE10E94400F82E08093B10444E06CE616
:104E900081EA94E00E94791380E80E946C1584E412
:104EA00097E00E94711553CF8AE497E00E94400F6B
:104EB0006B817C818D819E8120E137E240E050E072
:104EC0000E94ED2A6901C301B2012AE030E040E00E
:104ED00050E00E94ED2A2B0140E062E081EA94E07C
:104EE0000E9479131C141D0424F5C6010E945C164F
:104EF00040E060E281EA94E00E947913C2010E94DE
:104F00005C1640E06BE481EA94E00E9479138985A5
:104F10009A850E947D1740E06AE681EA94E00E944B
:104F200079138AE30E946C1588EC9AE10E94400F85
:104F300003CF8BE30E946C15DBCF60E080E00E9422
:104F4000AE1580917E0390917F0364E670E00E942D
:104F5000C52A6B017C0180914E0390914F036CE355
:104F600070E00E94C52A7C836B838C018091820350
:104F7000909183036AE070E00E94D92A78876F835A
:104F80003092B10487E998E10E94400F40E060E070
:104F900081EA94E00E9479138AE048165104610482
:104FA000710418F480E20E946C154AE0C301B2015A
:104FB0000E9408168EE20E946C1589859A850E94CF
:104FC0007D1788EC9AE10E94400F8FE397E00E94E2
:104FD000711587E998E10E94400F40E06FE581EA92
:104FE00094E00E947913AF81B8851A9718F480E293
:104FF0000E946C158F8198850E947D1788EC9AE13C
:105000000E94400F80E80E946C1584E497E00E94A3
:10501000711587E998E10E94400F42E060E081EA63
:1050200094E00E947913BAE0CB16D10418F480E220
:105030000E946C15C6010E947D178EE20E946C15BD
:10504000EAE0EE16F10418F480E30E946C15C70143
:105050000E947D1788EC9AE10E94400F84E998E154
:105060000E94711587E998E10E94400F44E060E0DA
:1050700081EA94E00E9479138B819C810A9718F44D
:1050800080E30E946C158B819C810E947D178AE3CE
:105090000E946C150A30110518F480E30E946C150B
:1050A000C8010E947D1744E064E481EA94E00E9414
:1050B00079139AE0891691041CF480E20E946C1521
:1050C000C4010E947D178EE20E946C15AAE0AA1608
:1050D000B1041CF480E30E946C15C5010E947D1789
:1050E00088EC9AE10E94400F88E497E0DACE82E0F3
:1050F0008093C3048DCA82E08093C40490CAB1E057
:105100008B16910411F58091610381111EC080916D
:10511000080290910902019731F480910602909162
:105120000702019791F0109259030E9456116053A3
:10513000784F8F4F9F4F6093550370935603809322
:1051400057039093580330926103AA24A394B12C7F
:1051500069C8F1E0AF16B10409F01ACB80910602DC
:1051600090910702019709F4E3CA2FEF8216920685
:1051700009F0DECA8091080290910902019609F0B7
:1051800007CBE0915903E73008F002CBF0E0882725
:10519000E353F74D8F4F0C940F2BC3239D24B02462
:1051A000C324C924CC24CF2421E0A216B10409F0E1
:1051B000C3CAD4CFFB01DC0102C005900D9241505F
:1051C0005040D8F70895F999FECF92BD81BDF89A65
:1051D000992780B50895262FF999FECF1FBA92BD61
:1051E00081BD20BD0FB6F894FA9AF99A0FBE0196C8
:1051F00008950E940D290C94F5290E94EE2958F07B
:105200000E94E72940F029F45F3F29F00C94DE2941
:1052100051110C94292A0C94E4290E94062A68F35F
:105220009923B1F3552391F3951B550BBB27AA275F
:1052300062177307840738F09F5F5F4F220F331F99
:10524000441FAA1FA9F335D00E2E3AF0E0E832D061
:1052500091505040E695001CCAF72BD0FE2F29D064
:10526000660F771F881FBB1F261737074807AB0736
:10527000B0E809F0BB0B802DBF01FF2793585F4FAB
:105280003AF09E3F510578F00C94DE290C94292ABF
:105290005F3FE4F3983ED4F3869577956795B7958D
:1052A000F7959F5FC9F7880F911D9695879597F998
:1052B0000895E1E0660F771F881FBB1F6217730711
:1052C0008407BA0720F0621B730B840BBA0BEE1F26
:1052D00088F7E09508950E9472296894B1110C94A2
:1052E000292A08950E940E2A88F09F5798F0B92F16
:1052F0009927B751B0F0E1F0660F771F881F991F0B
:105300001AF0BA95C9F714C0B13091F00E94282A5A
:10531000B1E008950C94282A672F782F8827B85F6A
:1053200039F0B93FCCF3869577956795B395D9F762
:105330003EF490958095709561957F4F8F4F9F4F6C
:105340000895E89409C097FB3EF490958095709578
:1053500061957F4F8F4F9F4F9923A9F0F92F96E9C1
:10536000BB279395F695879577956795B795F11136
:10537000F8CFFAF4BB0F11F460FF1BC06F5F7F4FD3
:105380008F4F9F4F16C0882311F096E911C07723E5
:1053900021F09EE8872F762F05C0662371F096E8EE
:1053A000862F70E060E02AF09A95660F771F881FBD
:1053B000DAF7880F9695879597F9089597F99F677B
:1053C00080E870E060E008959FEF80EC089500248D
:1053D0000A941616170618060906089500240A945A
:1053E00012161306140605060895092E0394000CE0
:1053F00011F4882352F0BB0F40F4BF2B11F460FF6F
:1054000004C06F5F7F4F8F4F9F4F089557FD905897
:10541000440F551F59F05F3F71F04795880F97FB78
:10542000991F61F09F3F79F0879508951216130632
:105430001406551FF2CF4695F1DF08C01616170661
:105440001806991FF1CF8695710561050894089596
:10545000E894BB2766277727CB0197F908950E9428
:10546000A12A08F48FEF08950E94472A0C94F52989
:105470000E94E72938F00E94EE2920F0952311F0D0
:105480000C94DE290C94E42911240C94292A0E94FE
:10549000062A70F3959FC1F3950F50E0551F629F48
:1054A000F001729FBB27F00DB11D639FAA27F00D7D
:1054B000B11DAA1F649F6627B00DA11D661F829FA4
:1054C0002227B00DA11D621F739FB00DA11D621F89
:1054D000839FA00D611D221F749F3327A00D611DA6
:1054E000231F849F600D211D822F762F6A2F112488
:1054F0009F5750409AF0F1F088234AF0EE0FFF1FBB
:10550000BB1F661F771F881F91505040A9F79E3F11
:10551000510580F00C94DE290C94292A5F3FE4F3B6
:10552000983ED4F3869577956795B795F795E79567
:105530009F5FC1F7FE2B880F911D9695879597F970
:105540000895990F0008550FAA0BE0E8FEEF161614
:105550001706E807F907C0F012161306E407F50767
:1055600098F0621B730B840B950B39F40A2661F0DB
:10557000232B242B252B21F408950A2609F4A1407E
:10558000A6958FEF811D811D0895AA1BBB1B51E1BC
:1055900007C0AA1FBB1FA617B70710F0A61BB70BA3
:1055A000881F991F5A95A9F780959095BC01CD0148
:1055B000089597FB072E16F4009407D077FD09D0C5
:1055C0000E94C52A07FC05D03EF4909581959F4F17
:1055D0000895709561957F4F0895A1E21A2EAA1B38
:1055E000BB1BFD010DC0AA1FBB1FEE1FFF1FA21793
:1055F000B307E407F50720F0A21BB30BE40BF50B90
:10560000661F771F881F991F1A9469F76095709518
:10561000809590959B01AC01BD01CF010895EE0FDF
:10562000FF1F881F8BBF0790F691E02D19940E94F1
:10563000222BA59F900DB49F900DA49F800D911DCE
:1056400011240895A29FB001B39FC001A39F700DC4
:10565000811D1124911DB29F700D811D1124911D7A
:10566000089581E090E0F8940C943F2BFB01DC015D
:1056700002C001900D9241505040D8F70895F8941F
:02568000FFCF5A
:10568200018C15010501FFFFFFFF0100000000076B
:1056920010710F9E0F5410CF0FAD0FC10F000000FD
:1056A200000613D912F815AF12D212BF12B01200AF
:1056B200000000DA13710FF815F715BE150D0A0078
:1056C200313A20004300323A2000203525003130A3
:0656D20025003135250022
:00000001FF
